{
  "contracts/Utils/BlockMiner.sol": {
    "BlockMiner": {
      "abi": [
        {
          "inputs": [],
          "stateMutability": "nonpayable",
          "type": "constructor"
        },
        {
          "inputs": [],
          "name": "blockTime",
          "outputs": [
            {
              "internalType": "uint256",
              "name": "",
              "type": "uint256"
            }
          ],
          "stateMutability": "view",
          "type": "function"
        },
        {
          "inputs": [],
          "name": "blocksMined",
          "outputs": [
            {
              "internalType": "uint256",
              "name": "",
              "type": "uint256"
            }
          ],
          "stateMutability": "view",
          "type": "function"
        },
        {
          "inputs": [],
          "name": "mine",
          "outputs": [],
          "stateMutability": "nonpayable",
          "type": "function"
        }
      ],
      "devdoc": {
        "kind": "dev",
        "methods": {},
        "version": 1
      },
      "evm": {
        "bytecode": {
          "linkReferences": {},
          "object": "608060405234801561001057600080fd5b506000805560f0806100236000396000f3fe6080604052348015600f57600080fd5b5060043610603c5760003560e01c806348b151661460415780638c4afaf614605557806399f4b25114605d575b600080fd5b425b60405190815260200160405180910390f35b604360005481565b60636065565b005b600160008082825460759190607c565b9091555050565b6000821982111560b5577f4e487b7100000000000000000000000000000000000000000000000000000000600052601160045260246000fd5b50019056fea26469706673582212205d62149ee9071faf10f1c0291af1db38c0f14ad8bfa0b0e3ba123769b06bf38664736f6c634300080a0033",
          "opcodes": "PUSH1 0x80 PUSH1 0x40 MSTORE CALLVALUE DUP1 ISZERO PUSH2 0x10 JUMPI PUSH1 0x0 DUP1 REVERT JUMPDEST POP PUSH1 0x0 DUP1 SSTORE PUSH1 0xF0 DUP1 PUSH2 0x23 PUSH1 0x0 CODECOPY PUSH1 0x0 RETURN INVALID PUSH1 0x80 PUSH1 0x40 MSTORE CALLVALUE DUP1 ISZERO PUSH1 0xF JUMPI PUSH1 0x0 DUP1 REVERT JUMPDEST POP PUSH1 0x4 CALLDATASIZE LT PUSH1 0x3C JUMPI PUSH1 0x0 CALLDATALOAD PUSH1 0xE0 SHR DUP1 PUSH4 0x48B15166 EQ PUSH1 0x41 JUMPI DUP1 PUSH4 0x8C4AFAF6 EQ PUSH1 0x55 JUMPI DUP1 PUSH4 0x99F4B251 EQ PUSH1 0x5D JUMPI JUMPDEST PUSH1 0x0 DUP1 REVERT JUMPDEST TIMESTAMP JUMPDEST PUSH1 0x40 MLOAD SWAP1 DUP2 MSTORE PUSH1 0x20 ADD PUSH1 0x40 MLOAD DUP1 SWAP2 SUB SWAP1 RETURN JUMPDEST PUSH1 0x43 PUSH1 0x0 SLOAD DUP2 JUMP JUMPDEST PUSH1 0x63 PUSH1 0x65 JUMP JUMPDEST STOP JUMPDEST PUSH1 0x1 PUSH1 0x0 DUP1 DUP3 DUP3 SLOAD PUSH1 0x75 SWAP2 SWAP1 PUSH1 0x7C JUMP JUMPDEST SWAP1 SWAP2 SSTORE POP POP JUMP JUMPDEST PUSH1 0x0 DUP3 NOT DUP3 GT ISZERO PUSH1 0xB5 JUMPI PUSH32 0x4E487B7100000000000000000000000000000000000000000000000000000000 PUSH1 0x0 MSTORE PUSH1 0x11 PUSH1 0x4 MSTORE PUSH1 0x24 PUSH1 0x0 REVERT JUMPDEST POP ADD SWAP1 JUMP INVALID LOG2 PUSH5 0x6970667358 0x22 SLT KECCAK256 0x5D PUSH3 0x149EE9 SMOD 0x1F 0xAF LT CALL 0xC0 0x29 BYTE CALL 0xDB CODESIZE 0xC0 CALL 0x4A 0xD8 0xBF LOG0 0xB0 0xE3 0xBA SLT CALLDATACOPY PUSH10 0xB06BF38664736F6C6343 STOP ADDMOD EXP STOP CALLER "
        },
        "gasEstimates": {
          "creation": {
            "codeDepositCost": "48000",
            "executionCost": "5105",
            "totalCost": "53105"
          },
          "external": {
            "blockTime()": "146",
            "blocksMined()": "2283",
            "mine()": "24461"
          }
        },
        "methodIdentifiers": {
          "blockTime()": "48b15166",
          "blocksMined()": "8c4afaf6",
          "mine()": "99f4b251"
        }
      },
      "storageLayout": {
        "storage": [
          {
            "astId": 3,
            "contract": "contracts/Utils/BlockMiner.sol:BlockMiner",
            "label": "blocksMined",
            "offset": 0,
            "slot": "0",
            "type": "t_uint256"
          }
        ],
        "types": {
          "t_uint256": {
            "encoding": "inplace",
            "label": "uint256",
            "numberOfBytes": "32"
          }
        }
      },
      "userdoc": {
        "kind": "user",
        "methods": {},
        "version": 1
      }
    }
  }
}