{
  "contracts/Math/MagnitudesAndPowers.sol": {
    "MagnitudesAndPowers": {
      "abi": [
        {
          "inputs": [
            {
              "internalType": "uint256",
              "name": "x",
              "type": "uint256"
            }
          ],
          "name": "magnitude",
          "outputs": [
            {
              "internalType": "uint256",
              "name": "",
              "type": "uint256"
            }
          ],
          "stateMutability": "pure",
          "type": "function"
        }
      ],
      "devdoc": {
        "kind": "dev",
        "methods": {},
        "version": 1
      },
      "evm": {
        "bytecode": {
          "linkReferences": {},
          "object": "61024461003a600b82828239805160001a60731461002d57634e487b7160e01b600052600060045260246000fd5b30600052607381538281f3fe73000000000000000000000000000000000000000030146080604052600436106100355760003560e01c80632ba96f631461003a575b600080fd5b61004d61004836600461011f565b61005f565b60405190815260200160405180910390f35b600080821161006d57600080fd5b6000604d5b818111156100c257600060016100888385610167565b610093906001610167565b901c90506100a0816100c9565b85106100ae578092506100bc565b6100b960018261017f565b91505b50610072565b5092915050565b60006001600a5b83156100c2576100e1600285610196565b60011415610107576100f381836101d1565b915061010060018561017f565b93506100d0565b61011181806101d1565b9050600184901c93506100d0565b60006020828403121561013157600080fd5b5035919050565b7f4e487b7100000000000000000000000000000000000000000000000000000000600052601160045260246000fd5b6000821982111561017a5761017a610138565b500190565b60008282101561019157610191610138565b500390565b6000826101cc577f4e487b7100000000000000000000000000000000000000000000000000000000600052601260045260246000fd5b500690565b6000817fffffffffffffffffffffffffffffffffffffffffffffffffffffffffffffffff048311821515161561020957610209610138565b50029056fea2646970667358221220f4b57d48c7c6315f8c36d1657c41c85b24284cac6a480aa1624613069b5d214264736f6c634300080a0033",
          "opcodes": "PUSH2 0x244 PUSH2 0x3A PUSH1 0xB DUP3 DUP3 DUP3 CODECOPY DUP1 MLOAD PUSH1 0x0 BYTE PUSH1 0x73 EQ PUSH2 0x2D JUMPI PUSH4 0x4E487B71 PUSH1 0xE0 SHL PUSH1 0x0 MSTORE PUSH1 0x0 PUSH1 0x4 MSTORE PUSH1 0x24 PUSH1 0x0 REVERT JUMPDEST ADDRESS PUSH1 0x0 MSTORE PUSH1 0x73 DUP2 MSTORE8 DUP3 DUP2 RETURN INVALID PUSH20 0x0 ADDRESS EQ PUSH1 0x80 PUSH1 0x40 MSTORE PUSH1 0x4 CALLDATASIZE LT PUSH2 0x35 JUMPI PUSH1 0x0 CALLDATALOAD PUSH1 0xE0 SHR DUP1 PUSH4 0x2BA96F63 EQ PUSH2 0x3A JUMPI JUMPDEST PUSH1 0x0 DUP1 REVERT JUMPDEST PUSH2 0x4D PUSH2 0x48 CALLDATASIZE PUSH1 0x4 PUSH2 0x11F JUMP JUMPDEST PUSH2 0x5F JUMP JUMPDEST PUSH1 0x40 MLOAD SWAP1 DUP2 MSTORE PUSH1 0x20 ADD PUSH1 0x40 MLOAD DUP1 SWAP2 SUB SWAP1 RETURN JUMPDEST PUSH1 0x0 DUP1 DUP3 GT PUSH2 0x6D JUMPI PUSH1 0x0 DUP1 REVERT JUMPDEST PUSH1 0x0 PUSH1 0x4D JUMPDEST DUP2 DUP2 GT ISZERO PUSH2 0xC2 JUMPI PUSH1 0x0 PUSH1 0x1 PUSH2 0x88 DUP4 DUP6 PUSH2 0x167 JUMP JUMPDEST PUSH2 0x93 SWAP1 PUSH1 0x1 PUSH2 0x167 JUMP JUMPDEST SWAP1 SHR SWAP1 POP PUSH2 0xA0 DUP2 PUSH2 0xC9 JUMP JUMPDEST DUP6 LT PUSH2 0xAE JUMPI DUP1 SWAP3 POP PUSH2 0xBC JUMP JUMPDEST PUSH2 0xB9 PUSH1 0x1 DUP3 PUSH2 0x17F JUMP JUMPDEST SWAP2 POP JUMPDEST POP PUSH2 0x72 JUMP JUMPDEST POP SWAP3 SWAP2 POP POP JUMP JUMPDEST PUSH1 0x0 PUSH1 0x1 PUSH1 0xA JUMPDEST DUP4 ISZERO PUSH2 0xC2 JUMPI PUSH2 0xE1 PUSH1 0x2 DUP6 PUSH2 0x196 JUMP JUMPDEST PUSH1 0x1 EQ ISZERO PUSH2 0x107 JUMPI PUSH2 0xF3 DUP2 DUP4 PUSH2 0x1D1 JUMP JUMPDEST SWAP2 POP PUSH2 0x100 PUSH1 0x1 DUP6 PUSH2 0x17F JUMP JUMPDEST SWAP4 POP PUSH2 0xD0 JUMP JUMPDEST PUSH2 0x111 DUP2 DUP1 PUSH2 0x1D1 JUMP JUMPDEST SWAP1 POP PUSH1 0x1 DUP5 SWAP1 SHR SWAP4 POP PUSH2 0xD0 JUMP JUMPDEST PUSH1 0x0 PUSH1 0x20 DUP3 DUP5 SUB SLT ISZERO PUSH2 0x131 JUMPI PUSH1 0x0 DUP1 REVERT JUMPDEST POP CALLDATALOAD SWAP2 SWAP1 POP JUMP JUMPDEST PUSH32 0x4E487B7100000000000000000000000000000000000000000000000000000000 PUSH1 0x0 MSTORE PUSH1 0x11 PUSH1 0x4 MSTORE PUSH1 0x24 PUSH1 0x0 REVERT JUMPDEST PUSH1 0x0 DUP3 NOT DUP3 GT ISZERO PUSH2 0x17A JUMPI PUSH2 0x17A PUSH2 0x138 JUMP JUMPDEST POP ADD SWAP1 JUMP JUMPDEST PUSH1 0x0 DUP3 DUP3 LT ISZERO PUSH2 0x191 JUMPI PUSH2 0x191 PUSH2 0x138 JUMP JUMPDEST POP SUB SWAP1 JUMP JUMPDEST PUSH1 0x0 DUP3 PUSH2 0x1CC JUMPI PUSH32 0x4E487B7100000000000000000000000000000000000000000000000000000000 PUSH1 0x0 MSTORE PUSH1 0x12 PUSH1 0x4 MSTORE PUSH1 0x24 PUSH1 0x0 REVERT JUMPDEST POP MOD SWAP1 JUMP JUMPDEST PUSH1 0x0 DUP2 PUSH32 0xFFFFFFFFFFFFFFFFFFFFFFFFFFFFFFFFFFFFFFFFFFFFFFFFFFFFFFFFFFFFFFFF DIV DUP4 GT DUP3 ISZERO ISZERO AND ISZERO PUSH2 0x209 JUMPI PUSH2 0x209 PUSH2 0x138 JUMP JUMPDEST POP MUL SWAP1 JUMP INVALID LOG2 PUSH5 0x6970667358 0x22 SLT KECCAK256 DELEGATECALL 0xB5 PUSH30 0x48C7C6315F8C36D1657C41C85B24284CAC6A480AA1624613069B5D214264 PUSH20 0x6F6C634300080A00330000000000000000000000 "
        },
        "gasEstimates": {
          "creation": {
            "codeDepositCost": "116000",
            "executionCost": "196",
            "totalCost": "116196"
          },
          "external": {
            "magnitude(uint256)": "infinite"
          },
          "internal": {
            "pow10(uint256)": "infinite"
          }
        },
        "methodIdentifiers": {
          "magnitude(uint256)": "2ba96f63"
        }
      },
      "storageLayout": {
        "storage": [],
        "types": null
      },
      "userdoc": {
        "kind": "user",
        "methods": {},
        "version": 1
      }
    }
  }
}