{
  "_format": "hh-sol-artifact-1",
  "contractName": "SafeDecimalMath",
  "sourceName": "contracts/Math/SafeDecimalMath.sol",
  "abi": [
    {
      "inputs": [],
      "name": "PRECISE_UNIT",
      "outputs": [
        {
          "internalType": "uint256",
          "name": "",
          "type": "uint256"
        }
      ],
      "stateMutability": "view",
      "type": "function"
    },
    {
      "inputs": [],
      "name": "UNIT",
      "outputs": [
        {
          "internalType": "uint256",
          "name": "",
          "type": "uint256"
        }
      ],
      "stateMutability": "view",
      "type": "function"
    },
    {
      "inputs": [],
      "name": "decimals",
      "outputs": [
        {
          "internalType": "uint8",
          "name": "",
          "type": "uint8"
        }
      ],
      "stateMutability": "view",
      "type": "function"
    },
    {
      "inputs": [],
      "name": "highPrecisionDecimals",
      "outputs": [
        {
          "internalType": "uint8",
          "name": "",
          "type": "uint8"
        }
      ],
      "stateMutability": "view",
      "type": "function"
    },
    {
      "inputs": [],
      "name": "preciseUnit",
      "outputs": [
        {
          "internalType": "uint256",
          "name": "",
          "type": "uint256"
        }
      ],
      "stateMutability": "pure",
      "type": "function"
    },
    {
      "inputs": [],
      "name": "unit",
      "outputs": [
        {
          "internalType": "uint256",
          "name": "",
          "type": "uint256"
        }
      ],
      "stateMutability": "pure",
      "type": "function"
    }
  ],
  "bytecode": "0x6102ac61003a600b82828239805160001a60731461002d57634e487b7160e01b600052600060045260246000fd5b30600052607381538281f3fe730000000000000000000000000000000000000000301460806040526004361061007c5760003560e01c80639d8e21771161005a5780639d8e2177146100be578063d5e5e6e6146100c6578063def4419d146100ce57600080fd5b8063313ce56714610081578063864029e7146100a0578063907af6c0146100b6575b600080fd5b610089601281565b60405160ff90911681526020015b60405180910390f35b6100a86100d6565b604051908152602001610097565b6100a86100e5565b6100a86100f8565b6100a8610104565b610089601b81565b6100e2601b600a610263565b81565b60006100f36012600a610263565b905090565b6100e26012600a610263565b60006100f3601b600a610263565b7f4e487b7100000000000000000000000000000000000000000000000000000000600052601160045260246000fd5b600181815b8085111561019a57817fffffffffffffffffffffffffffffffffffffffffffffffffffffffffffffffff0482111561018057610180610112565b8085161561018d57918102915b93841c9390800290610146565b509250929050565b6000826101b15750600161025d565b816101be5750600061025d565b81600181146101d457600281146101de576101fa565b600191505061025d565b60ff8411156101ef576101ef610112565b50506001821b61025d565b5060208310610133831016604e8410600b841016171561021d575081810a61025d565b6102278383610141565b807fffffffffffffffffffffffffffffffffffffffffffffffffffffffffffffffff0482111561025957610259610112565b0290505b92915050565b600061026f83836101a2565b939250505056fea2646970667358221220bf8edb58e6261c6a41b5d9a0a20c7bafb6d67dd0d05036f4fbe640f188a2a20d64736f6c634300080a0033",
  "linkReferences": {},
  "deployedLinkReferences": {}
}