{
  "_format": "hh-sol-artifact-1",
  "contractName": "Pool_DAI",
  "sourceName": "contracts/DEI/Pools/Pool_DAI.sol",
  "abi": [
    {
      "inputs": [
        {
          "internalType": "address",
          "name": "_dei_contract_address",
          "type": "address"
        },
        {
          "internalType": "address",
          "name": "_deus_contract_address",
          "type": "address"
        },
        {
          "internalType": "address",
          "name": "_collateral_address",
          "type": "address"
        },
        {
          "internalType": "address",
          "name": "_trusty_address",
          "type": "address"
        },
        {
          "internalType": "address",
          "name": "_admin_address",
          "type": "address"
        },
        {
          "internalType": "uint256",
          "name": "_pool_ceiling",
          "type": "uint256"
        },
        {
          "internalType": "address",
          "name": "_library",
          "type": "address"
        }
      ],
      "stateMutability": "nonpayable",
      "type": "constructor"
    },
    {
      "anonymous": false,
      "inputs": [
        {
          "indexed": false,
          "internalType": "bool",
          "name": "toggled",
          "type": "bool"
        }
      ],
      "name": "BuybackToggled",
      "type": "event"
    },
    {
      "anonymous": false,
      "inputs": [
        {
          "indexed": false,
          "internalType": "bool",
          "name": "toggled",
          "type": "bool"
        }
      ],
      "name": "MintingToggled",
      "type": "event"
    },
    {
      "anonymous": false,
      "inputs": [
        {
          "indexed": false,
          "internalType": "uint256",
          "name": "new_ceiling",
          "type": "uint256"
        },
        {
          "indexed": false,
          "internalType": "uint256",
          "name": "new_bonus_rate",
          "type": "uint256"
        },
        {
          "indexed": false,
          "internalType": "uint256",
          "name": "new_redemption_delay",
          "type": "uint256"
        },
        {
          "indexed": false,
          "internalType": "uint256",
          "name": "new_mint_fee",
          "type": "uint256"
        },
        {
          "indexed": false,
          "internalType": "uint256",
          "name": "new_redeem_fee",
          "type": "uint256"
        },
        {
          "indexed": false,
          "internalType": "uint256",
          "name": "new_buyback_fee",
          "type": "uint256"
        },
        {
          "indexed": false,
          "internalType": "uint256",
          "name": "new_recollat_fee",
          "type": "uint256"
        }
      ],
      "name": "PoolParametersSet",
      "type": "event"
    },
    {
      "anonymous": false,
      "inputs": [
        {
          "indexed": false,
          "internalType": "bool",
          "name": "toggled",
          "type": "bool"
        }
      ],
      "name": "RecollateralizeToggled",
      "type": "event"
    },
    {
      "anonymous": false,
      "inputs": [
        {
          "indexed": false,
          "internalType": "bool",
          "name": "toggled",
          "type": "bool"
        }
      ],
      "name": "RedeemingToggled",
      "type": "event"
    },
    {
      "anonymous": false,
      "inputs": [
        {
          "indexed": true,
          "internalType": "bytes32",
          "name": "role",
          "type": "bytes32"
        },
        {
          "indexed": true,
          "internalType": "bytes32",
          "name": "previousAdminRole",
          "type": "bytes32"
        },
        {
          "indexed": true,
          "internalType": "bytes32",
          "name": "newAdminRole",
          "type": "bytes32"
        }
      ],
      "name": "RoleAdminChanged",
      "type": "event"
    },
    {
      "anonymous": false,
      "inputs": [
        {
          "indexed": true,
          "internalType": "bytes32",
          "name": "role",
          "type": "bytes32"
        },
        {
          "indexed": true,
          "internalType": "address",
          "name": "account",
          "type": "address"
        },
        {
          "indexed": true,
          "internalType": "address",
          "name": "sender",
          "type": "address"
        }
      ],
      "name": "RoleGranted",
      "type": "event"
    },
    {
      "anonymous": false,
      "inputs": [
        {
          "indexed": true,
          "internalType": "bytes32",
          "name": "role",
          "type": "bytes32"
        },
        {
          "indexed": true,
          "internalType": "address",
          "name": "account",
          "type": "address"
        },
        {
          "indexed": true,
          "internalType": "address",
          "name": "sender",
          "type": "address"
        }
      ],
      "name": "RoleRevoked",
      "type": "event"
    },
    {
      "anonymous": false,
      "inputs": [
        {
          "indexed": false,
          "internalType": "uint256",
          "name": "daoShare",
          "type": "uint256"
        },
        {
          "indexed": false,
          "internalType": "address",
          "name": "to",
          "type": "address"
        }
      ],
      "name": "daoShareCollected",
      "type": "event"
    },
    {
      "inputs": [],
      "name": "DAI_address",
      "outputs": [
        {
          "internalType": "address",
          "name": "",
          "type": "address"
        }
      ],
      "stateMutability": "view",
      "type": "function"
    },
    {
      "inputs": [],
      "name": "DAO_SHARE_COLLECTOR",
      "outputs": [
        {
          "internalType": "bytes32",
          "name": "",
          "type": "bytes32"
        }
      ],
      "stateMutability": "view",
      "type": "function"
    },
    {
      "inputs": [],
      "name": "DEFAULT_ADMIN_ROLE",
      "outputs": [
        {
          "internalType": "bytes32",
          "name": "",
          "type": "bytes32"
        }
      ],
      "stateMutability": "view",
      "type": "function"
    },
    {
      "inputs": [],
      "name": "PARAMETER_SETTER_ROLE",
      "outputs": [
        {
          "internalType": "bytes32",
          "name": "",
          "type": "bytes32"
        }
      ],
      "stateMutability": "view",
      "type": "function"
    },
    {
      "inputs": [],
      "name": "TRUSTY_ROLE",
      "outputs": [
        {
          "internalType": "bytes32",
          "name": "",
          "type": "bytes32"
        }
      ],
      "stateMutability": "view",
      "type": "function"
    },
    {
      "inputs": [
        {
          "internalType": "uint256[]",
          "name": "collat_usd_price",
          "type": "uint256[]"
        }
      ],
      "name": "availableExcessCollatDV",
      "outputs": [
        {
          "internalType": "uint256",
          "name": "",
          "type": "uint256"
        }
      ],
      "stateMutability": "view",
      "type": "function"
    },
    {
      "inputs": [],
      "name": "bonus_rate",
      "outputs": [
        {
          "internalType": "uint256",
          "name": "",
          "type": "uint256"
        }
      ],
      "stateMutability": "view",
      "type": "function"
    },
    {
      "inputs": [
        {
          "internalType": "uint256",
          "name": "DEUS_amount",
          "type": "uint256"
        },
        {
          "internalType": "uint256[]",
          "name": "collateral_price",
          "type": "uint256[]"
        },
        {
          "internalType": "uint256",
          "name": "deus_current_price",
          "type": "uint256"
        },
        {
          "internalType": "uint256",
          "name": "expireBlock",
          "type": "uint256"
        },
        {
          "internalType": "bytes[]",
          "name": "sigs",
          "type": "bytes[]"
        }
      ],
      "name": "buyBackDEUS",
      "outputs": [],
      "stateMutability": "nonpayable",
      "type": "function"
    },
    {
      "inputs": [],
      "name": "buyBackPaused",
      "outputs": [
        {
          "internalType": "bool",
          "name": "",
          "type": "bool"
        }
      ],
      "stateMutability": "view",
      "type": "function"
    },
    {
      "inputs": [],
      "name": "buyback_fee",
      "outputs": [
        {
          "internalType": "uint256",
          "name": "",
          "type": "uint256"
        }
      ],
      "stateMutability": "view",
      "type": "function"
    },
    {
      "inputs": [
        {
          "internalType": "uint256",
          "name": "collat_usd_price",
          "type": "uint256"
        }
      ],
      "name": "collatDollarBalance",
      "outputs": [
        {
          "internalType": "uint256",
          "name": "",
          "type": "uint256"
        }
      ],
      "stateMutability": "view",
      "type": "function"
    },
    {
      "inputs": [
        {
          "internalType": "uint256",
          "name": "amount",
          "type": "uint256"
        },
        {
          "internalType": "address",
          "name": "to",
          "type": "address"
        }
      ],
      "name": "collectDaoShare",
      "outputs": [],
      "stateMutability": "nonpayable",
      "type": "function"
    },
    {
      "inputs": [],
      "name": "collectRedemption",
      "outputs": [],
      "stateMutability": "nonpayable",
      "type": "function"
    },
    {
      "inputs": [],
      "name": "daoShare",
      "outputs": [
        {
          "internalType": "uint256",
          "name": "",
          "type": "uint256"
        }
      ],
      "stateMutability": "view",
      "type": "function"
    },
    {
      "inputs": [
        {
          "internalType": "address",
          "name": "token",
          "type": "address"
        },
        {
          "internalType": "uint256",
          "name": "amount",
          "type": "uint256"
        },
        {
          "internalType": "address",
          "name": "to",
          "type": "address"
        }
      ],
      "name": "emergencyWithdrawERC20",
      "outputs": [],
      "stateMutability": "nonpayable",
      "type": "function"
    },
    {
      "inputs": [],
      "name": "getChainID",
      "outputs": [
        {
          "internalType": "uint256",
          "name": "",
          "type": "uint256"
        }
      ],
      "stateMutability": "view",
      "type": "function"
    },
    {
      "inputs": [
        {
          "internalType": "bytes32",
          "name": "role",
          "type": "bytes32"
        }
      ],
      "name": "getRoleAdmin",
      "outputs": [
        {
          "internalType": "bytes32",
          "name": "",
          "type": "bytes32"
        }
      ],
      "stateMutability": "view",
      "type": "function"
    },
    {
      "inputs": [
        {
          "internalType": "bytes32",
          "name": "role",
          "type": "bytes32"
        },
        {
          "internalType": "uint256",
          "name": "index",
          "type": "uint256"
        }
      ],
      "name": "getRoleMember",
      "outputs": [
        {
          "internalType": "address",
          "name": "",
          "type": "address"
        }
      ],
      "stateMutability": "view",
      "type": "function"
    },
    {
      "inputs": [
        {
          "internalType": "bytes32",
          "name": "role",
          "type": "bytes32"
        }
      ],
      "name": "getRoleMemberCount",
      "outputs": [
        {
          "internalType": "uint256",
          "name": "",
          "type": "uint256"
        }
      ],
      "stateMutability": "view",
      "type": "function"
    },
    {
      "inputs": [
        {
          "internalType": "bytes32",
          "name": "role",
          "type": "bytes32"
        },
        {
          "internalType": "address",
          "name": "account",
          "type": "address"
        }
      ],
      "name": "grantRole",
      "outputs": [],
      "stateMutability": "nonpayable",
      "type": "function"
    },
    {
      "inputs": [
        {
          "internalType": "bytes32",
          "name": "role",
          "type": "bytes32"
        },
        {
          "internalType": "address",
          "name": "account",
          "type": "address"
        }
      ],
      "name": "hasRole",
      "outputs": [
        {
          "internalType": "bool",
          "name": "",
          "type": "bool"
        }
      ],
      "stateMutability": "view",
      "type": "function"
    },
    {
      "inputs": [
        {
          "internalType": "address",
          "name": "",
          "type": "address"
        }
      ],
      "name": "lastRedeemed",
      "outputs": [
        {
          "internalType": "uint256",
          "name": "",
          "type": "uint256"
        }
      ],
      "stateMutability": "view",
      "type": "function"
    },
    {
      "inputs": [
        {
          "internalType": "uint256",
          "name": "collateral_amount",
          "type": "uint256"
        },
        {
          "internalType": "uint256",
          "name": "collateral_price",
          "type": "uint256"
        },
        {
          "internalType": "uint256",
          "name": "expireBlock",
          "type": "uint256"
        },
        {
          "internalType": "bytes[]",
          "name": "sigs",
          "type": "bytes[]"
        }
      ],
      "name": "mint1t1DEI",
      "outputs": [
        {
          "internalType": "uint256",
          "name": "dei_amount_d18",
          "type": "uint256"
        }
      ],
      "stateMutability": "nonpayable",
      "type": "function"
    },
    {
      "inputs": [
        {
          "internalType": "uint256",
          "name": "deus_amount_d18",
          "type": "uint256"
        },
        {
          "internalType": "uint256",
          "name": "deus_current_price",
          "type": "uint256"
        },
        {
          "internalType": "uint256",
          "name": "expireBlock",
          "type": "uint256"
        },
        {
          "internalType": "bytes[]",
          "name": "sigs",
          "type": "bytes[]"
        }
      ],
      "name": "mintAlgorithmicDEI",
      "outputs": [
        {
          "internalType": "uint256",
          "name": "dei_amount_d18",
          "type": "uint256"
        }
      ],
      "stateMutability": "nonpayable",
      "type": "function"
    },
    {
      "inputs": [
        {
          "internalType": "uint256",
          "name": "collateral_amount",
          "type": "uint256"
        },
        {
          "internalType": "uint256",
          "name": "deus_amount",
          "type": "uint256"
        },
        {
          "internalType": "uint256",
          "name": "collateral_price",
          "type": "uint256"
        },
        {
          "internalType": "uint256",
          "name": "deus_current_price",
          "type": "uint256"
        },
        {
          "internalType": "uint256",
          "name": "expireBlock",
          "type": "uint256"
        },
        {
          "internalType": "bytes[]",
          "name": "sigs",
          "type": "bytes[]"
        }
      ],
      "name": "mintFractionalDEI",
      "outputs": [
        {
          "internalType": "uint256",
          "name": "mint_amount",
          "type": "uint256"
        }
      ],
      "stateMutability": "nonpayable",
      "type": "function"
    },
    {
      "inputs": [],
      "name": "mintPaused",
      "outputs": [
        {
          "internalType": "bool",
          "name": "",
          "type": "bool"
        }
      ],
      "stateMutability": "view",
      "type": "function"
    },
    {
      "inputs": [],
      "name": "minting_fee",
      "outputs": [
        {
          "internalType": "uint256",
          "name": "",
          "type": "uint256"
        }
      ],
      "stateMutability": "view",
      "type": "function"
    },
    {
      "inputs": [],
      "name": "pausedPrice",
      "outputs": [
        {
          "internalType": "uint256",
          "name": "",
          "type": "uint256"
        }
      ],
      "stateMutability": "view",
      "type": "function"
    },
    {
      "inputs": [],
      "name": "pool_ceiling",
      "outputs": [
        {
          "internalType": "uint256",
          "name": "",
          "type": "uint256"
        }
      ],
      "stateMutability": "view",
      "type": "function"
    },
    {
      "inputs": [],
      "name": "recollat_fee",
      "outputs": [
        {
          "internalType": "uint256",
          "name": "",
          "type": "uint256"
        }
      ],
      "stateMutability": "view",
      "type": "function"
    },
    {
      "inputs": [
        {
          "components": [
            {
              "internalType": "uint256",
              "name": "collateral_amount",
              "type": "uint256"
            },
            {
              "internalType": "uint256",
              "name": "pool_collateral_price",
              "type": "uint256"
            },
            {
              "internalType": "uint256[]",
              "name": "collateral_price",
              "type": "uint256[]"
            },
            {
              "internalType": "uint256",
              "name": "deus_current_price",
              "type": "uint256"
            },
            {
              "internalType": "uint256",
              "name": "expireBlock",
              "type": "uint256"
            },
            {
              "internalType": "bytes[]",
              "name": "sigs",
              "type": "bytes[]"
            }
          ],
          "internalType": "struct DEIPool.RecollateralizeDEI",
          "name": "inputs",
          "type": "tuple"
        }
      ],
      "name": "recollateralizeDEI",
      "outputs": [],
      "stateMutability": "nonpayable",
      "type": "function"
    },
    {
      "inputs": [],
      "name": "recollateralizePaused",
      "outputs": [
        {
          "internalType": "bool",
          "name": "",
          "type": "bool"
        }
      ],
      "stateMutability": "view",
      "type": "function"
    },
    {
      "inputs": [
        {
          "internalType": "uint256",
          "name": "DEI_amount",
          "type": "uint256"
        },
        {
          "internalType": "uint256",
          "name": "collateral_price",
          "type": "uint256"
        },
        {
          "internalType": "uint256",
          "name": "expireBlock",
          "type": "uint256"
        },
        {
          "internalType": "bytes[]",
          "name": "sigs",
          "type": "bytes[]"
        }
      ],
      "name": "redeem1t1DEI",
      "outputs": [],
      "stateMutability": "nonpayable",
      "type": "function"
    },
    {
      "inputs": [
        {
          "internalType": "uint256",
          "name": "DEI_amount",
          "type": "uint256"
        },
        {
          "internalType": "uint256",
          "name": "deus_current_price",
          "type": "uint256"
        },
        {
          "internalType": "uint256",
          "name": "expireBlock",
          "type": "uint256"
        },
        {
          "internalType": "bytes[]",
          "name": "sigs",
          "type": "bytes[]"
        }
      ],
      "name": "redeemAlgorithmicDEI",
      "outputs": [],
      "stateMutability": "nonpayable",
      "type": "function"
    },
    {
      "inputs": [
        {
          "internalType": "address",
          "name": "",
          "type": "address"
        }
      ],
      "name": "redeemCollateralBalances",
      "outputs": [
        {
          "internalType": "uint256",
          "name": "",
          "type": "uint256"
        }
      ],
      "stateMutability": "view",
      "type": "function"
    },
    {
      "inputs": [
        {
          "internalType": "address",
          "name": "",
          "type": "address"
        }
      ],
      "name": "redeemDEUSBalances",
      "outputs": [
        {
          "internalType": "uint256",
          "name": "",
          "type": "uint256"
        }
      ],
      "stateMutability": "view",
      "type": "function"
    },
    {
      "inputs": [
        {
          "internalType": "uint256",
          "name": "DEI_amount",
          "type": "uint256"
        },
        {
          "internalType": "uint256",
          "name": "collateral_price",
          "type": "uint256"
        },
        {
          "internalType": "uint256",
          "name": "deus_current_price",
          "type": "uint256"
        },
        {
          "internalType": "uint256",
          "name": "expireBlock",
          "type": "uint256"
        },
        {
          "internalType": "bytes[]",
          "name": "sigs",
          "type": "bytes[]"
        }
      ],
      "name": "redeemFractionalDEI",
      "outputs": [],
      "stateMutability": "nonpayable",
      "type": "function"
    },
    {
      "inputs": [],
      "name": "redeemPaused",
      "outputs": [
        {
          "internalType": "bool",
          "name": "",
          "type": "bool"
        }
      ],
      "stateMutability": "view",
      "type": "function"
    },
    {
      "inputs": [],
      "name": "redemption_delay",
      "outputs": [
        {
          "internalType": "uint256",
          "name": "",
          "type": "uint256"
        }
      ],
      "stateMutability": "view",
      "type": "function"
    },
    {
      "inputs": [],
      "name": "redemption_fee",
      "outputs": [
        {
          "internalType": "uint256",
          "name": "",
          "type": "uint256"
        }
      ],
      "stateMutability": "view",
      "type": "function"
    },
    {
      "inputs": [
        {
          "internalType": "bytes32",
          "name": "role",
          "type": "bytes32"
        },
        {
          "internalType": "address",
          "name": "account",
          "type": "address"
        }
      ],
      "name": "renounceRole",
      "outputs": [],
      "stateMutability": "nonpayable",
      "type": "function"
    },
    {
      "inputs": [
        {
          "internalType": "bytes32",
          "name": "role",
          "type": "bytes32"
        },
        {
          "internalType": "address",
          "name": "account",
          "type": "address"
        }
      ],
      "name": "revokeRole",
      "outputs": [],
      "stateMutability": "nonpayable",
      "type": "function"
    },
    {
      "inputs": [
        {
          "internalType": "uint256",
          "name": "new_ceiling",
          "type": "uint256"
        },
        {
          "internalType": "uint256",
          "name": "new_bonus_rate",
          "type": "uint256"
        },
        {
          "internalType": "uint256",
          "name": "new_redemption_delay",
          "type": "uint256"
        },
        {
          "internalType": "uint256",
          "name": "new_mint_fee",
          "type": "uint256"
        },
        {
          "internalType": "uint256",
          "name": "new_redeem_fee",
          "type": "uint256"
        },
        {
          "internalType": "uint256",
          "name": "new_buyback_fee",
          "type": "uint256"
        },
        {
          "internalType": "uint256",
          "name": "new_recollat_fee",
          "type": "uint256"
        }
      ],
      "name": "setPoolParameters",
      "outputs": [],
      "stateMutability": "nonpayable",
      "type": "function"
    },
    {
      "inputs": [],
      "name": "toggleBuyBack",
      "outputs": [],
      "stateMutability": "nonpayable",
      "type": "function"
    },
    {
      "inputs": [],
      "name": "toggleMinting",
      "outputs": [],
      "stateMutability": "nonpayable",
      "type": "function"
    },
    {
      "inputs": [],
      "name": "toggleRecollateralize",
      "outputs": [],
      "stateMutability": "nonpayable",
      "type": "function"
    },
    {
      "inputs": [],
      "name": "toggleRedeeming",
      "outputs": [],
      "stateMutability": "nonpayable",
      "type": "function"
    },
    {
      "inputs": [],
      "name": "unclaimedPoolCollateral",
      "outputs": [
        {
          "internalType": "uint256",
          "name": "",
          "type": "uint256"
        }
      ],
      "stateMutability": "view",
      "type": "function"
    },
    {
      "inputs": [],
      "name": "unclaimedPoolDEUS",
      "outputs": [
        {
          "internalType": "uint256",
          "name": "",
          "type": "uint256"
        }
      ],
      "stateMutability": "view",
      "type": "function"
    }
  ],
  "bytecode": "0x60a06040526000600e819055600f819055611d4c60105560026011556012556013805463ffffffff60a01b191690553480156200003b57600080fd5b50604051620063c5380380620063c58339810160408190526200005e91620004b4565b868686868686866001600160a01b038716158015906200008657506001600160a01b03861615155b80156200009b57506001600160a01b03851615155b8015620000b057506001600160a01b03841615155b8015620000c557506001600160a01b03831615155b8015620000da57506001600160a01b03811615155b6200012c5760405162461bcd60e51b815260206004820152601b60248201527f504f4f4c3a3a5a65726f2061646472657373206465746563746564000000000060448201526064015b60405180910390fd5b601380546001600160a01b038084166001600160a01b031992831617909255600380548a8416908316179055600480548984169083161781556002805493891693831684179055600180549092168317909155600e8490556040805163313ce56760e01b8152905163313ce567928281019260209291908290030181865afa158015620001bd573d6000803e3d6000fd5b505050506040513d601f19601f82011682018060405250810190620001e3919062000540565b620001f39060ff1660126200056c565b60805262000203600084620003a9565b6200022f7fc65532185ed70b2e999433e2e9fac124e083acb13ec183a4e05944da0792337b85620003a9565b6200025b7fa84a5389ad41f9aab0831b01e5384cae76e7a7fd09131c206ff7927c201c385785620003a9565b620002877f8118eeb5231a5fe4008a55b62860f6a0db4f6c3ac04f8141927a9b3fedd86d2f85620003a9565b620002b37f103da79ff3755ff7a17a557d28b73d37cb4de0b3c3cc02fa6c48df0f35071fbf85620003a9565b620002df7f0db189261133fd7647d3308512b693b47bed44004cac80fb59aa64b63a231e2c85620003a9565b6200030b7fe08e6e8e2e796f02419355c6fa268d1461fe6f2f34114a881a2db47c0f24050985620003a9565b50505050506001600160a01b038716151591506200036e90505760405162461bcd60e51b815260206004820152601560248201527f5a65726f20616464726573732064657465637465640000000000000000000000604482015260640162000123565b6200037b600033620003a9565b5050601480546001600160a01b0319166001600160a01b039490941693909317909255506200059292505050565b620003b58282620003b9565b5050565b600082815260208181526040909120620003de91839062004ad062000420821b17901c565b15620003b55760405133906001600160a01b0383169084907f2f8788117e7eff1d82e926ec794901d17c78024a50270940304540a733656f0d90600090a45050565b60006200043c836001600160601b0319606085901b1662000445565b90505b92915050565b60008181526001830160205260408120546200048e575081546001818101845560008481526020808220909301849055845484825282860190935260409020919091556200043f565b5060006200043f565b80516001600160a01b0381168114620004af57600080fd5b919050565b600080600080600080600060e0888a031215620004d057600080fd5b620004db8862000497565b9650620004eb6020890162000497565b9550620004fb6040890162000497565b94506200050b6060890162000497565b93506200051b6080890162000497565b925060a088015191506200053260c0890162000497565b905092959891949750929550565b6000602082840312156200055357600080fd5b815160ff811681146200056557600080fd5b9392505050565b6000828210156200058d57634e487b7160e01b600052601160045260246000fd5b500390565b608051615de6620005df60003960008181610cc1015281816115850152818161228101528181612afd01528181612def015281816134c9015281816139a001526147af0152615de66000f3fe608060405234801561001057600080fd5b506004361061032b5760003560e01c80637b0461e9116101b2578063b6258aaa116100f9578063cb73999f116100a2578063e3d84d5e1161007c578063e3d84d5e146106df578063eb2d7461146106f2578063fa4dfa3a14610705578063fede5c9c1461072557600080fd5b8063cb73999f146106bb578063d547741f146106c4578063daa50485146106d757600080fd5b8063c6301e5d116100d3578063c6301e5d1461068c578063c74ec56a1461069f578063ca15c873146106a857600080fd5b8063b6258aaa1461065d578063c3355b8d14610670578063c410ca1b1461067957600080fd5b806391d148541161015b578063a217fddf11610135578063a217fddf1461060f578063abae2c4c14610617578063b235d4681461063757600080fd5b806391d14854146105d6578063928d2b31146105e9578063978b73b5146105fc57600080fd5b80637f877f851161018c5780637f877f851461056d57806388d19f1b146105955780639010d07c1461059e57600080fd5b80637b0461e9146105375780637d55094d146105405780637e4831d31461054857600080fd5b806340e14b7811610276578063564b81ef1161021f5780636d2c5615116101f95780636d2c5615146104c65780636d82e314146104fd5780637901330b1461052457600080fd5b8063564b81ef146104905780635de207cc146104965780636526a12a146104bd57600080fd5b80634ebbe762116102505780634ebbe7621461046257806350c9ecd91461047557806354f9769d1461047d57600080fd5b806340e14b781461043e57806342d15aec146104515780634c6349341461045957600080fd5b80632f2ff15d116102d85780633648b7dc116102b25780633648b7dc1461040257806336568abe1461040b5780633b92da471461041e57600080fd5b80632f2ff15d146103b557806332ad1ee4146103c857806334ddb95d146103db57600080fd5b806315128425116103095780631512842514610376578063248a9ca31461037f578063254cd2bd146103a257600080fd5b806308a7493d14610330578063101197c71461036357806312ace5a21461036c575b600080fd5b61035061033e366004615193565b600a6020526000908152604090205481565b6040519081526020015b60405180910390f35b61035060075481565b61037461072e565b005b61035060115481565b61035061038d3660046151ae565b60009081526020819052604090206002015490565b6103746103b0366004615213565b6108e7565b6103746103c3366004615274565b610fde565b6103506103d6366004615213565b611094565b6103507f0db189261133fd7647d3308512b693b47bed44004cac80fb59aa64b63a231e2c81565b610350600c5481565b610374610419366004615274565b61176a565b61035061042c366004615193565b60096020526000908152604090205481565b61035061044c3660046153d6565b611819565b610374611a37565b61035060105481565b610374610470366004615413565b611afe565b610374611c3d565b61035061048b36600461545f565b611cfb565b46610350565b6103507fe08e6e8e2e796f02419355c6fa268d1461fe6f2f34114a881a2db47c0f24050981565b610350600e5481565b6013546104ed90760100000000000000000000000000000000000000000000900460ff1681565b604051901515815260200161035a565b6103507f0d4a2989857a24de9c91e1daffe87d051d59f52b68729413d1ef656ec487e53081565b610374610532366004615274565b612586565b610350600b5481565b61037461271a565b6013546104ed9074010000000000000000000000000000000000000000900460ff1681565b6013546104ed9077010000000000000000000000000000000000000000000000900460ff1681565b61035060125481565b6105b16105ac3660046154d3565b6127d5565b60405173ffffffffffffffffffffffffffffffffffffffff909116815260200161035a565b6104ed6105e4366004615274565b6127f6565b6103746105f73660046155f7565b61280e565b61037461060a366004615213565b612f1a565b610350600081565b610350610625366004615193565b600d6020526000908152604090205481565b6013546104ed907501000000000000000000000000000000000000000000900460ff1681565b61035061066b3660046151ae565b6134bd565b61035060055481565b6103746106873660046156b0565b6135ac565b61035061069a366004615213565b613a91565b610350600f5481565b6103506106b63660046151ae565b614079565b61035060065481565b6103746106d2366004615274565b614090565b610374614138565b6103746106ed366004615737565b6141f4565b610374610700366004615773565b61431d565b6014546105b19073ffffffffffffffffffffffffffffffffffffffff1681565b61035060085481565b601154336000908152600d6020526040902054439161074c916157fa565b1115610805576040517f08c379a000000000000000000000000000000000000000000000000000000000815260206004820152605b60248201527f504f4f4c3a3a636f6c6c656374526564656d7074696f6e3a204d75737420776160448201527f697420666f7220726564656d7074696f6e5f64656c617920626c6f636b73206260648201527f65666f726520636f6c6c656374696e6720726564656d7074696f6e0000000000608482015260a4015b60405180910390fd5b336000908152600960205260408120548190819081901561084d573360009081526009602052604081208054919055600c54909250610845908390615812565b600c55600193505b336000908152600a60205260409020541561088d5750336000908152600a602052604081208054919055600b54610885908290615812565b600b55600192505b83156108b7576004546108b79073ffffffffffffffffffffffffffffffffffffffff163384614b02565b82156108e1576001546108e19073ffffffffffffffffffffffffffffffffffffffff163383614b02565b50505050565b6013547501000000000000000000000000000000000000000000900460ff161561096d576040517f08c379a000000000000000000000000000000000000000000000000000000000815260206004820152601960248201527f504f4f4c3a3a52656465656d696e67206973207061757365640000000000000060448201526064016107fc565b600354604080517f2eb9771b0000000000000000000000000000000000000000000000000000000081529051620f42409273ffffffffffffffffffffffffffffffffffffffff1691632eb9771b9160048083019260209291908290030181865afa1580156109df573d6000803e3d6000fd5b505050506040513d601f19601f82011682018060405250810190610a039190615829565b14610a6a576040517f08c379a000000000000000000000000000000000000000000000000000000000815260206004820152601d60248201527f436f6c6c61746572616c20726174696f206d757374206265203d3d203100000060448201526064016107fc565b43831015610afa576040517f08c379a000000000000000000000000000000000000000000000000000000000815260206004820152602f60248201527f504f4f4c3a3a6d696e74416c676f726974686d69634445493a207369676e617460448201527f75726520697320657870697265642e000000000000000000000000000000000060648201526084016107fc565b60025460009073ffffffffffffffffffffffffffffffffffffffff1685854660405160609490941b7fffffffffffffffffffffffffffffffffffffffff000000000000000000000000166020850152603484019290925260548301526074820152609401604080517fffffffffffffffffffffffffffffffffffffffffffffffffffffffffffffffe08184030181529082905280516020909101206003547f6793f0ac00000000000000000000000000000000000000000000000000000000835290925073ffffffffffffffffffffffffffffffffffffffff1690636793f0ac90610bed9084908790879060040161588b565b602060405180830381865afa158015610c0a573d6000803e3d6000fd5b505050506040513d601f19601f82011682018060405250810190610c2e919061596d565b610cba576040517f08c379a000000000000000000000000000000000000000000000000000000000815260206004820152602660248201527f504f4f4c3a3a72656465656d3174314445493a20696e76616c6964207369676e60448201527f617475726573000000000000000000000000000000000000000000000000000060648201526084016107fc565b6000610ce77f0000000000000000000000000000000000000000000000000000000000000000600a615ab6565b610cf19088615ac2565b6013546040517f068d54aa000000000000000000000000000000000000000000000000000000008152600481018990526024810183905291925060009173ffffffffffffffffffffffffffffffffffffffff9091169063068d54aa90604401602060405180830381865afa158015610d6d573d6000803e3d6000fd5b505050506040513d601f19601f82011682018060405250810190610d919190615829565b9050620f4240600654620f4240610da89190615812565b610db29083615afd565b610dbc9190615ac2565b600b546001546040517f70a08231000000000000000000000000000000000000000000000000000000008152306004820152929350909173ffffffffffffffffffffffffffffffffffffffff909116906370a0823190602401602060405180830381865afa158015610e32573d6000803e3d6000fd5b505050506040513d601f19601f82011682018060405250810190610e569190615829565b610e609190615812565b811115610ec9576040517f08c379a000000000000000000000000000000000000000000000000000000000815260206004820152601d60248201527f4e6f7420656e6f75676820636f6c6c61746572616c20696e20706f6f6c00000060448201526064016107fc565b336000908152600a6020526040902054610ee49082906157fa565b336000908152600a6020526040902055600b54610f029082906157fa565b600b55336000908152600d60205260409020439055600654620f424090610f29908a615afd565b610f339190615ac2565b60126000828254610f4491906157fa565b90915550506003546040517fa8a778ae000000000000000000000000000000000000000000000000000000008152336004820152602481018a905273ffffffffffffffffffffffffffffffffffffffff9091169063a8a778ae906044015b600060405180830381600087803b158015610fbc57600080fd5b505af1158015610fd0573d6000803e3d6000fd5b505050505050505050505050565b600082815260208190526040902060020154610ffa90336127f6565b611086576040517f08c379a000000000000000000000000000000000000000000000000000000000815260206004820152602f60248201527f416363657373436f6e74726f6c3a2073656e646572206d75737420626520616e60448201527f2061646d696e20746f206772616e74000000000000000000000000000000000060648201526084016107fc565b6110908282614c72565b5050565b60135460009074010000000000000000000000000000000000000000900460ff161561111c576040517f08c379a000000000000000000000000000000000000000000000000000000000815260206004820152601760248201527f504f4f4c3a3a4d696e74696e672069732070617573656400000000000000000060448201526064016107fc565b600354604080517f2eb9771b0000000000000000000000000000000000000000000000000000000081529051620f42409273ffffffffffffffffffffffffffffffffffffffff1691632eb9771b9160048083019260209291908290030181865afa15801561118e573d6000803e3d6000fd5b505050506040513d601f19601f820116820180604052508101906111b29190615829565b101561121a576040517f08c379a000000000000000000000000000000000000000000000000000000000815260206004820152601d60248201527f436f6c6c61746572616c20726174696f206d757374206265203e3d203100000060448201526064016107fc565b600e54600b546001546040517f70a0823100000000000000000000000000000000000000000000000000000000815230600482015289929173ffffffffffffffffffffffffffffffffffffffff16906370a0823190602401602060405180830381865afa15801561128f573d6000803e3d6000fd5b505050506040513d601f19601f820116820180604052508101906112b39190615829565b6112bd9190615812565b6112c791906157fa565b111561132f576040517f08c379a000000000000000000000000000000000000000000000000000000000815260206004820181905260248201527f5b506f6f6c277320436c6f7365645d3a204365696c696e67207265616368656460448201526064016107fc565b438410156113bf576040517f08c379a000000000000000000000000000000000000000000000000000000000815260206004820152602660248201527f504f4f4c3a3a6d696e743174314445493a207369676e6174757265206973206560448201527f787069726564000000000000000000000000000000000000000000000000000060648201526084016107fc565b60025460009073ffffffffffffffffffffffffffffffffffffffff1686864660405160609490941b7fffffffffffffffffffffffffffffffffffffffff000000000000000000000000166020850152603484019290925260548301526074820152609401604080517fffffffffffffffffffffffffffffffffffffffffffffffffffffffffffffffe08184030181529082905280516020909101206003547f6793f0ac00000000000000000000000000000000000000000000000000000000835290925073ffffffffffffffffffffffffffffffffffffffff1690636793f0ac906114b29084908890889060040161588b565b602060405180830381865afa1580156114cf573d6000803e3d6000fd5b505050506040513d601f19601f820116820180604052508101906114f3919061596d565b61157e576040517f08c379a0000000000000000000000000000000000000000000000000000000008152602060048201526024808201527f504f4f4c3a3a6d696e743174314445493a20696e76616c6964207369676e617460448201527f757265730000000000000000000000000000000000000000000000000000000060648201526084016107fc565b60006115ab7f0000000000000000000000000000000000000000000000000000000000000000600a615ab6565b6115b59089615afd565b6013546040517f882ab63a000000000000000000000000000000000000000000000000000000008152600481018a90526024810183905291925073ffffffffffffffffffffffffffffffffffffffff169063882ab63a90604401602060405180830381865afa15801561162c573d6000803e3d6000fd5b505050506040513d601f19601f820116820180604052508101906116509190615829565b9250620f4240600554620f42406116679190615812565b6116719085615afd565b61167b9190615ac2565b6001549093506116a39073ffffffffffffffffffffffffffffffffffffffff1633308b614cd8565b620f4240600554846116b59190615afd565b6116bf9190615ac2565b601260008282546116d091906157fa565b90915550506003546040517fb4f56b260000000000000000000000000000000000000000000000000000000081523360048201526024810185905273ffffffffffffffffffffffffffffffffffffffff9091169063b4f56b2690604401600060405180830381600087803b15801561174757600080fd5b505af115801561175b573d6000803e3d6000fd5b50505050505095945050505050565b73ffffffffffffffffffffffffffffffffffffffff8116331461180f576040517f08c379a000000000000000000000000000000000000000000000000000000000815260206004820152602f60248201527f416363657373436f6e74726f6c3a2063616e206f6e6c792072656e6f756e636560448201527f20726f6c657320666f722073656c66000000000000000000000000000000000060648201526084016107fc565b6110908282614e76565b600080600360009054906101000a900473ffffffffffffffffffffffffffffffffffffffff1673ffffffffffffffffffffffffffffffffffffffff166318160ddd6040518163ffffffff1660e01b8152600401602060405180830381865afa158015611889573d6000803e3d6000fd5b505050506040513d601f19601f820116820180604052508101906118ad9190615829565b90506000600360009054906101000a900473ffffffffffffffffffffffffffffffffffffffff1673ffffffffffffffffffffffffffffffffffffffff16632eb9771b6040518163ffffffff1660e01b8152600401602060405180830381865afa15801561191e573d6000803e3d6000fd5b505050506040513d601f19601f820116820180604052508101906119429190615829565b6003546040517f2480fcea00000000000000000000000000000000000000000000000000000000815291925060009173ffffffffffffffffffffffffffffffffffffffff90911690632480fcea9061199e908890600401615b3a565b602060405180830381865afa1580156119bb573d6000803e3d6000fd5b505050506040513d601f19601f820116820180604052508101906119df9190615829565b9050620f42408211156119f357620f424091505b6000620f4240611a038486615afd565b611a0d9190615ac2565b905080821115611a2b57611a218183615812565b9695505050505050565b50600095945050505050565b611a617f8118eeb5231a5fe4008a55b62860f6a0db4f6c3ac04f8141927a9b3fedd86d2f336127f6565b611a6a57600080fd5b6013805460ff76010000000000000000000000000000000000000000000080830482161581027fffffffffffffffffff00ffffffffffffffffffffffffffffffffffffffffffff90931692909217928390556040517f2fda313d9b5bb0b73bd003153f2fccbc0dca49791fdd1184dfad82b44f54bd2e93611af49390049091161515815260200190565b60405180910390a1565b611b287fe08e6e8e2e796f02419355c6fa268d1461fe6f2f34114a881a2db47c0f240509336127f6565b611bb4576040517f08c379a000000000000000000000000000000000000000000000000000000000815260206004820152602960248201527f504f4f4c3a2043616c6c6572206973206e6f7420504152414d455445525f534560448201527f545445525f524f4c45000000000000000000000000000000000000000000000060648201526084016107fc565b600e8790556010869055601185905560058490556006839055600782905560088190556040805188815260208101889052908101869052606081018590526080810184905260a0810183905260c081018290527f17fe98b66d27bd793ea01bd8a23a54acab8eeb167d9eb016a0c7cd71c573920c9060e00160405180910390a150505050505050565b611c677f103da79ff3755ff7a17a557d28b73d37cb4de0b3c3cc02fa6c48df0f35071fbf336127f6565b611c7057600080fd5b6013805460ff7701000000000000000000000000000000000000000000000080830482161581027fffffffffffffffff00ffffffffffffffffffffffffffffffffffffffffffffff90931692909217928390556040517f4f40fd1c59f78d7a2220da638cd9400daba01e57c7965702f390bf13133cc31f93611af49390049091161515815260200190565b60135460009074010000000000000000000000000000000000000000900460ff1615611d83576040517f08c379a000000000000000000000000000000000000000000000000000000000815260206004820152601760248201527f504f4f4c3a3a4d696e74696e672069732070617573656400000000000000000060448201526064016107fc565b600354604080517f2eb9771b000000000000000000000000000000000000000000000000000000008152905160009273ffffffffffffffffffffffffffffffffffffffff1691632eb9771b9160048083019260209291908290030181865afa158015611df3573d6000803e3d6000fd5b505050506040513d601f19601f82011682018060405250810190611e179190615829565b9050620f424081108015611e2b5750600081115b611eb7576040517f08c379a000000000000000000000000000000000000000000000000000000000815260206004820152603860248201527f436f6c6c61746572616c20726174696f206e6565647320746f2062652062657460448201527f7765656e202e30303030303120616e64202e393939393939000000000000000060648201526084016107fc565b600e54600b546001546040517f70a082310000000000000000000000000000000000000000000000000000000081523060048201528c929173ffffffffffffffffffffffffffffffffffffffff16906370a0823190602401602060405180830381865afa158015611f2c573d6000803e3d6000fd5b505050506040513d601f19601f82011682018060405250810190611f509190615829565b611f5a9190615812565b611f6491906157fa565b1115612019576040517f08c379a0000000000000000000000000000000000000000000000000000000008152602060048201526044602482018190527f506f6f6c206365696c696e6720726561636865642c206e6f206d6f7265204445908201527f492063616e206265206d696e7465642077697468207468697320636f6c6c617460648201527f6572616c00000000000000000000000000000000000000000000000000000000608482015260a4016107fc565b438510156120a9576040517f08c379a000000000000000000000000000000000000000000000000000000000815260206004820152602e60248201527f504f4f4c3a3a6d696e744672616374696f6e616c4445493a207369676e61747560448201527f726520697320657870697265642e00000000000000000000000000000000000060648201526084016107fc565b600254600454604080517fffffffffffffffffffffffffffffffffffffffff000000000000000000000000606094851b8116602080840191909152603483018d90529390941b909316605484015260688301899052608883018890524660a8808501919091528151808503909101815260c884019182905280519201919091206003547f6793f0ac000000000000000000000000000000000000000000000000000000009092529173ffffffffffffffffffffffffffffffffffffffff90911690636793f0ac906121829084908990899060cc0161588b565b602060405180830381865afa15801561219f573d6000803e3d6000fd5b505050506040513d601f19601f820116820180604052508101906121c3919061596d565b61224f576040517f08c379a000000000000000000000000000000000000000000000000000000000815260206004820152602b60248201527f504f4f4c3a3a6d696e744672616374696f6e616c4445493a20696e76616c696460448201527f207369676e61747572657300000000000000000000000000000000000000000060648201526084016107fc565b61227a6040518060800160405280600081526020016000815260200160008152602001600081525090565b60006122a77f0000000000000000000000000000000000000000000000000000000000000000600a615ab6565b6122b1908d615afd565b604080516080810182528b8152602081018d9052808201929092526060820186905260135490517f537a30a70000000000000000000000000000000000000000000000000000000081529193506000925073ffffffffffffffffffffffffffffffffffffffff169063537a30a79061232d908590600401615b7e565b6040805180830381865afa158015612349573d6000803e3d6000fd5b505050506040513d601f19601f8201168201806040525081019061236d9190615ba9565b90955090508a8111156123dc576040517f08c379a000000000000000000000000000000000000000000000000000000000815260206004820152601860248201527f4e6f7420656e6f756768204445555320696e707574746564000000000000000060448201526064016107fc565b620f4240600554620f42406123f19190615812565b6123fb9087615afd565b6124059190615ac2565b600480546040517fa8a778ae00000000000000000000000000000000000000000000000000000000815233928101929092526024820184905291965073ffffffffffffffffffffffffffffffffffffffff9091169063a8a778ae90604401600060405180830381600087803b15801561247d57600080fd5b505af1158015612491573d6000803e3d6000fd5b50506001546124bb925073ffffffffffffffffffffffffffffffffffffffff16905033308f614cd8565b620f4240600554866124cd9190615afd565b6124d79190615ac2565b601260008282546124e891906157fa565b90915550506003546040517fb4f56b260000000000000000000000000000000000000000000000000000000081523360048201526024810187905273ffffffffffffffffffffffffffffffffffffffff9091169063b4f56b2690604401600060405180830381600087803b15801561255f57600080fd5b505af1158015612573573d6000803e3d6000fd5b5050505050505050979650505050505050565b6125b07f0d4a2989857a24de9c91e1daffe87d051d59f52b68729413d1ef656ec487e530336127f6565b6125b957600080fd5b601254821115612625576040517f08c379a000000000000000000000000000000000000000000000000000000000815260206004820152601060248201527f616d6f756e743c3d64616f53686172650000000000000000000000000000000060448201526064016107fc565b6003546040517fb4f56b2600000000000000000000000000000000000000000000000000000000815273ffffffffffffffffffffffffffffffffffffffff8381166004830152602482018590529091169063b4f56b2690604401600060405180830381600087803b15801561269957600080fd5b505af11580156126ad573d6000803e3d6000fd5b5050505081601260008282546126c39190615812565b90915550506040805183815273ffffffffffffffffffffffffffffffffffffffff831660208201527f3a708f2f1c75b12457d207cf1e259ab9f87bbfccb29672903acf4661bd342e49910160405180910390a15050565b6127447fc65532185ed70b2e999433e2e9fac124e083acb13ec183a4e05944da0792337b336127f6565b61274d57600080fd5b6013805460ff7401000000000000000000000000000000000000000080830482161581027fffffffffffffffffffffff00ffffffffffffffffffffffffffffffffffffffff90931692909217928390556040517f6bdfe227d5db299c59aa56d5f846f40dbd73b271aaa78e18ed74fc3e00b8aa6b93611af49390049091161515815260200190565b60008281526020819052604081206127ed9083614edc565b90505b92915050565b60008281526020819052604081206127ed9083614ef2565b601354760100000000000000000000000000000000000000000000900460ff16156128bb576040517f08c379a000000000000000000000000000000000000000000000000000000000815260206004820152603360248201527f504f4f4c3a3a7265636f6c6c61746572616c697a654445493a205265636f6c6c60448201527f61746572616c697a65206973207061757365640000000000000000000000000060648201526084016107fc565b438160800151101561294f576040517f08c379a000000000000000000000000000000000000000000000000000000000815260206004820152602f60248201527f504f4f4c3a3a7265636f6c6c61746572616c697a654445493a207369676e617460448201527f75726520697320657870697265642e000000000000000000000000000000000060648201526084016107fc565b6002546040828101516004546060850151608086015193516000956129989573ffffffffffffffffffffffffffffffffffffffff91821695949190911692914690602001615bcd565b604080517fffffffffffffffffffffffffffffffffffffffffffffffffffffffffffffffe081840301815290829052805160209091012060035460a08501517f6793f0ac00000000000000000000000000000000000000000000000000000000845291935073ffffffffffffffffffffffffffffffffffffffff1691636793f0ac91612a2991859190600401615c78565b602060405180830381865afa158015612a46573d6000803e3d6000fd5b505050506040513d601f19601f82011682018060405250810190612a6a919061596d565b612af6576040517f08c379a000000000000000000000000000000000000000000000000000000000815260206004820152602c60248201527f504f4f4c3a3a7265636f6c6c61746572616c697a654445493a20696e76616c6960448201527f64207369676e617475726573000000000000000000000000000000000000000060648201526084016107fc565b6000612b237f0000000000000000000000000000000000000000000000000000000000000000600a615ab6565b8351612b2f9190615afd565b90506000600360009054906101000a900473ffffffffffffffffffffffffffffffffffffffff1673ffffffffffffffffffffffffffffffffffffffff166318160ddd6040518163ffffffff1660e01b8152600401602060405180830381865afa158015612ba0573d6000803e3d6000fd5b505050506040513d601f19601f82011682018060405250810190612bc49190615829565b90506000600360009054906101000a900473ffffffffffffffffffffffffffffffffffffffff1673ffffffffffffffffffffffffffffffffffffffff16632eb9771b6040518163ffffffff1660e01b8152600401602060405180830381865afa158015612c35573d6000803e3d6000fd5b505050506040513d601f19601f82011682018060405250810190612c599190615829565b60035460408088015190517f2480fcea00000000000000000000000000000000000000000000000000000000815292935060009273ffffffffffffffffffffffffffffffffffffffff90921691632480fcea91612cb891600401615b3a565b602060405180830381865afa158015612cd5573d6000803e3d6000fd5b505050506040513d601f19601f82011682018060405250810190612cf99190615829565b60135460408801518051929350600092839273ffffffffffffffffffffffffffffffffffffffff169163fc01106191899190612d3790600190615812565b81518110612d4757612d47615d36565b60209081029190910101516040517fffffffff0000000000000000000000000000000000000000000000000000000060e085901b1681526004810192909252602482015260448101869052606481018890526084810187905260a4016040805180830381865afa158015612dbf573d6000803e3d6000fd5b505050506040513d601f19601f82011682018060405250810190612de39190615ba9565b90925090506000612e157f0000000000000000000000000000000000000000000000000000000000000000600a615ab6565b612e1f9084615ac2565b905060008960600151600854601054620f4240612e3c91906157fa565b612e469190615812565b612e509085615afd565b612e5a9190615ac2565b600154909150612e829073ffffffffffffffffffffffffffffffffffffffff16333085614cd8565b600480546040517fb4f56b2600000000000000000000000000000000000000000000000000000000815233928101929092526024820183905273ffffffffffffffffffffffffffffffffffffffff169063b4f56b26906044015b600060405180830381600087803b158015612ef657600080fd5b505af1158015612f0a573d6000803e3d6000fd5b5050505050505050505050505050565b6013547501000000000000000000000000000000000000000000900460ff1615612fa0576040517f08c379a000000000000000000000000000000000000000000000000000000000815260206004820152601960248201527f504f4f4c3a3a52656465656d696e67206973207061757365640000000000000060448201526064016107fc565b600360009054906101000a900473ffffffffffffffffffffffffffffffffffffffff1673ffffffffffffffffffffffffffffffffffffffff16632eb9771b6040518163ffffffff1660e01b8152600401602060405180830381865afa15801561300d573d6000803e3d6000fd5b505050506040513d601f19601f820116820180604052508101906130319190615829565b156130be576040517f08c379a000000000000000000000000000000000000000000000000000000000815260206004820152603660248201527f504f4f4c3a3a72656465656d416c676f726974686d69634445493a20436f6c6c60448201527f61746572616c20726174696f206d75737420626520300000000000000000000060648201526084016107fc565b4383101561314e576040517f08c379a000000000000000000000000000000000000000000000000000000000815260206004820152603060248201527f4445493a3a72656465656d416c676f726974686d69634445493a207369676e6160448201527f7475726520697320657870697265642e0000000000000000000000000000000060648201526084016107fc565b60045460009073ffffffffffffffffffffffffffffffffffffffff1685854660405160609490941b7fffffffffffffffffffffffffffffffffffffffff000000000000000000000000166020850152603484019290925260548301526074820152609401604080517fffffffffffffffffffffffffffffffffffffffffffffffffffffffffffffffe08184030181529082905280516020909101206003547f6793f0ac00000000000000000000000000000000000000000000000000000000835290925073ffffffffffffffffffffffffffffffffffffffff1690636793f0ac906132419084908790879060040161588b565b602060405180830381865afa15801561325e573d6000803e3d6000fd5b505050506040513d601f19601f82011682018060405250810190613282919061596d565b61330e576040517f08c379a000000000000000000000000000000000000000000000000000000000815260206004820152602e60248201527f504f4f4c3a3a72656465656d416c676f726974686d69634445493a20696e766160448201527f6c6964207369676e61747572657300000000000000000000000000000000000060648201526084016107fc565b6006548690620f4240906133229082615812565b61332c9083615afd565b6133369190615ac2565b9050600086613348620f424084615afd565b6133529190615ac2565b336000908152600960205260409020549091506133709082906157fa565b33600090815260096020526040902055600c5461338e9082906157fa565b600c55336000908152600d60205260409020439055600654620f4240906133b5908a615afd565b6133bf9190615ac2565b601260008282546133d091906157fa565b90915550506003546040517fa8a778ae000000000000000000000000000000000000000000000000000000008152336004820152602481018a905273ffffffffffffffffffffffffffffffffffffffff9091169063a8a778ae90604401600060405180830381600087803b15801561344757600080fd5b505af115801561345b573d6000803e3d6000fd5b5050600480546040517fb4f56b2600000000000000000000000000000000000000000000000000000000815230928101929092526024820185905273ffffffffffffffffffffffffffffffffffffffff16925063b4f56b269150604401610fa2565b6000620f4240826134ef7f0000000000000000000000000000000000000000000000000000000000000000600a615ab6565b600b546001546040517f70a0823100000000000000000000000000000000000000000000000000000000815230600482015273ffffffffffffffffffffffffffffffffffffffff909116906370a0823190602401602060405180830381865afa158015613560573d6000803e3d6000fd5b505050506040513d601f19601f820116820180604052508101906135849190615829565b61358e9190615812565b6135989190615afd565b6135a29190615afd565b6127f09190615ac2565b60135477010000000000000000000000000000000000000000000000900460ff1615613659576040517f08c379a0000000000000000000000000000000000000000000000000000000008152602060048201526024808201527f504f4f4c3a3a6275794261636b444555533a204275796261636b20697320706160448201527f757365640000000000000000000000000000000000000000000000000000000060648201526084016107fc565b438310156136e9576040517f08c379a000000000000000000000000000000000000000000000000000000000815260206004820152602760248201527f4445493a3a6275794261636b444555533a207369676e6174757265206973206560448201527f7870697265642e0000000000000000000000000000000000000000000000000060648201526084016107fc565b60025460045460009173ffffffffffffffffffffffffffffffffffffffff9081169188911687874660405160200161372696959493929190615bcd565b604080517fffffffffffffffffffffffffffffffffffffffffffffffffffffffffffffffe08184030181529082905280516020909101206003547f6793f0ac00000000000000000000000000000000000000000000000000000000835290925073ffffffffffffffffffffffffffffffffffffffff1690636793f0ac906137b59084908790879060040161588b565b602060405180830381865afa1580156137d2573d6000803e3d6000fd5b505050506040513d601f19601f820116820180604052508101906137f6919061596d565b613882576040517f08c379a000000000000000000000000000000000000000000000000000000000815260206004820152602560248201527f504f4f4c3a3a6275794261636b444555533a20696e76616c6964207369676e6160448201527f747572657300000000000000000000000000000000000000000000000000000060648201526084016107fc565b6000604051806080016040528061389889611819565b81526020018781526020018860018a516138b29190615812565b815181106138c2576138c2615d36565b602002602001015181526020018981525090506000620f4240600754620f42406138ec9190615812565b6013546040517f3c04af9f00000000000000000000000000000000000000000000000000000000815273ffffffffffffffffffffffffffffffffffffffff90911690633c04af9f90613942908790600401615b7e565b602060405180830381865afa15801561395f573d6000803e3d6000fd5b505050506040513d601f19601f820116820180604052508101906139839190615829565b61398d9190615afd565b6139979190615ac2565b905060006139c67f0000000000000000000000000000000000000000000000000000000000000000600a615ab6565b6139d09083615ac2565b600480546040517fa8a778ae0000000000000000000000000000000000000000000000000000000081523392810192909252602482018d905291925073ffffffffffffffffffffffffffffffffffffffff9091169063a8a778ae90604401600060405180830381600087803b158015613a4857600080fd5b505af1158015613a5c573d6000803e3d6000fd5b5050600154613a85925073ffffffffffffffffffffffffffffffffffffffff1690503383614b02565b50505050505050505050565b60135460009074010000000000000000000000000000000000000000900460ff1615613b19576040517f08c379a000000000000000000000000000000000000000000000000000000000815260206004820152601760248201527f504f4f4c3a3a4d696e74696e672069732070617573656400000000000000000060448201526064016107fc565b600360009054906101000a900473ffffffffffffffffffffffffffffffffffffffff1673ffffffffffffffffffffffffffffffffffffffff16632eb9771b6040518163ffffffff1660e01b8152600401602060405180830381865afa158015613b86573d6000803e3d6000fd5b505050506040513d601f19601f82011682018060405250810190613baa9190615829565b15613c11576040517f08c379a000000000000000000000000000000000000000000000000000000000815260206004820152601a60248201527f436f6c6c61746572616c20726174696f206d757374206265203000000000000060448201526064016107fc565b43841015613ca1576040517f08c379a000000000000000000000000000000000000000000000000000000000815260206004820152602f60248201527f504f4f4c3a3a6d696e74416c676f726974686d69634445493a207369676e617460448201527f75726520697320657870697265642e000000000000000000000000000000000060648201526084016107fc565b60045460009073ffffffffffffffffffffffffffffffffffffffff1686864660405160609490941b7fffffffffffffffffffffffffffffffffffffffff000000000000000000000000166020850152603484019290925260548301526074820152609401604080517fffffffffffffffffffffffffffffffffffffffffffffffffffffffffffffffe08184030181529082905280516020909101206003547f6793f0ac00000000000000000000000000000000000000000000000000000000835290925073ffffffffffffffffffffffffffffffffffffffff1690636793f0ac90613d949084908890889060040161588b565b602060405180830381865afa158015613db1573d6000803e3d6000fd5b505050506040513d601f19601f82011682018060405250810190613dd5919061596d565b613e61576040517f08c379a000000000000000000000000000000000000000000000000000000000815260206004820152602c60248201527f504f4f4c3a3a6d696e74416c676f726974686d69634445493a20696e76616c6960448201527f64207369676e617475726573000000000000000000000000000000000000000060648201526084016107fc565b6013546040517f14da4ee1000000000000000000000000000000000000000000000000000000008152600481018890526024810189905273ffffffffffffffffffffffffffffffffffffffff909116906314da4ee190604401602060405180830381865afa158015613ed7573d6000803e3d6000fd5b505050506040513d601f19601f82011682018060405250810190613efb9190615829565b9150620f4240600554620f4240613f129190615812565b613f1c9084615afd565b613f269190615ac2565b9150620f424060055483613f3a9190615afd565b613f449190615ac2565b60126000828254613f5591906157fa565b9091555050600480546040517fa8a778ae00000000000000000000000000000000000000000000000000000000815233928101929092526024820189905273ffffffffffffffffffffffffffffffffffffffff169063a8a778ae90604401600060405180830381600087803b158015613fcd57600080fd5b505af1158015613fe1573d6000803e3d6000fd5b50506003546040517fb4f56b260000000000000000000000000000000000000000000000000000000081523360048201526024810186905273ffffffffffffffffffffffffffffffffffffffff909116925063b4f56b269150604401600060405180830381600087803b15801561405757600080fd5b505af115801561406b573d6000803e3d6000fd5b505050505095945050505050565b60008181526020819052604081206127f090614f31565b6000828152602081905260409020600201546140ac90336127f6565b61180f576040517f08c379a000000000000000000000000000000000000000000000000000000000815260206004820152603060248201527f416363657373436f6e74726f6c3a2073656e646572206d75737420626520616e60448201527f2061646d696e20746f207265766f6b650000000000000000000000000000000060648201526084016107fc565b6141627fa84a5389ad41f9aab0831b01e5384cae76e7a7fd09131c206ff7927c201c3857336127f6565b61416b57600080fd5b6013805460ff750100000000000000000000000000000000000000000080830482161581027fffffffffffffffffffff00ffffffffffffffffffffffffffffffffffffffffff90931692909217928390556040517f5860c5063a65e23cea4e2e2925f1a841bb6d1bc9615bd425f8dd084980b0514193611af49390049091161515815260200190565b61421e7f0db189261133fd7647d3308512b693b47bed44004cac80fb59aa64b63a231e2c336127f6565b614284576040517f08c379a000000000000000000000000000000000000000000000000000000000815260206004820152601860248201527f504f4f4c3a3a796f7520617265206e6f7420747275737479000000000000000060448201526064016107fc565b6040517fa9059cbb00000000000000000000000000000000000000000000000000000000815273ffffffffffffffffffffffffffffffffffffffff82811660048301526024820184905284169063a9059cbb906044016020604051808303816000875af11580156142f9573d6000803e3d6000fd5b505050506040513d601f19601f820116820180604052508101906108e1919061596d565b6013547501000000000000000000000000000000000000000000900460ff16156143a3576040517f08c379a000000000000000000000000000000000000000000000000000000000815260206004820152601960248201527f504f4f4c3a3a52656465656d696e67206973207061757365640000000000000060448201526064016107fc565b600354604080517f2eb9771b000000000000000000000000000000000000000000000000000000008152905160009273ffffffffffffffffffffffffffffffffffffffff1691632eb9771b9160048083019260209291908290030181865afa158015614413573d6000803e3d6000fd5b505050506040513d601f19601f820116820180604052508101906144379190615829565b9050620f42408110801561444b5750600081115b6144fd576040517f08c379a000000000000000000000000000000000000000000000000000000000815260206004820152605360248201527f504f4f4c3a3a72656465656d4672616374696f6e616c4445493a20436f6c6c6160448201527f746572616c20726174696f206e6565647320746f206265206265747765656e2060648201527f2e30303030303120616e64202e39393939393900000000000000000000000000608482015260a4016107fc565b4384101561458d576040517f08c379a000000000000000000000000000000000000000000000000000000000815260206004820152602e60248201527f4445493a3a72656465656d4672616374696f6e616c4445493a207369676e617460448201527f757265206973206578706972656400000000000000000000000000000000000060648201526084016107fc565b600254600454604080517fffffffffffffffffffffffffffffffffffffffff000000000000000000000000606094851b8116602080840191909152603483018c90529390941b909316605484015260688301889052608883018790524660a8808501919091528151808503909101815260c884019182905280519201919091206003547f6793f0ac000000000000000000000000000000000000000000000000000000009092529173ffffffffffffffffffffffffffffffffffffffff90911690636793f0ac906146669084908890889060cc0161588b565b602060405180830381865afa158015614683573d6000803e3d6000fd5b505050506040513d601f19601f820116820180604052508101906146a7919061596d565b614733576040517f08c379a000000000000000000000000000000000000000000000000000000000815260206004820152602d60248201527f504f4f4c3a3a72656465656d4672616374696f6e616c4445493a20696e76616c60448201527f6964207369676e6174757265730000000000000000000000000000000000000060648201526084016107fc565b60008060008990506000620f4240600654620f42406147529190615812565b61475c908e615afd565b6147669190615ac2565b90506000620f42406147788884615afd565b6147829190615ac2565b61478c9083615812565b90508a61479c620f424083615afd565b6147a69190615ac2565b945060006147d57f0000000000000000000000000000000000000000000000000000000000000000600a615ab6565b6147df9084615ac2565b90506000620f42406147f18a84615afd565b6147fb9190615ac2565b90508461480b620f424083615afd565b6148159190615ac2565b600b546001546040517f70a0823100000000000000000000000000000000000000000000000000000000815230600482015292985090965073ffffffffffffffffffffffffffffffffffffffff1694506370a08231935060240191506148789050565b602060405180830381865afa158015614895573d6000803e3d6000fd5b505050506040513d601f19601f820116820180604052508101906148b99190615829565b6148c39190615812565b81111561492c576040517f08c379a000000000000000000000000000000000000000000000000000000000815260206004820152601d60248201527f4e6f7420656e6f75676820636f6c6c61746572616c20696e20706f6f6c00000060448201526064016107fc565b336000908152600a60205260409020546149479082906157fa565b336000908152600a6020526040902055600b546149659082906157fa565b600b55336000908152600960205260409020546149839083906157fa565b33600090815260096020526040902055600c546149a19083906157fa565b600c55336000908152600d60205260409020439055600654620f4240906149c8908c615afd565b6149d29190615ac2565b601260008282546149e391906157fa565b90915550506003546040517fa8a778ae000000000000000000000000000000000000000000000000000000008152336004820152602481018c905273ffffffffffffffffffffffffffffffffffffffff9091169063a8a778ae90604401600060405180830381600087803b158015614a5a57600080fd5b505af1158015614a6e573d6000803e3d6000fd5b5050600480546040517fb4f56b2600000000000000000000000000000000000000000000000000000000815230928101929092526024820186905273ffffffffffffffffffffffffffffffffffffffff16925063b4f56b269150604401612edc565b60006127ed837fffffffffffffffffffffffffffffffffffffffff000000000000000000000000606085901b16614f3b565b6040805173ffffffffffffffffffffffffffffffffffffffff8481166024830152604480830185905283518084039091018152606490920183526020820180517bffffffffffffffffffffffffffffffffffffffffffffffffffffffff167fa9059cbb000000000000000000000000000000000000000000000000000000001790529151600092839290871691614b999190615d65565b6000604051808303816000865af19150503d8060008114614bd6576040519150601f19603f3d011682016040523d82523d6000602084013e614bdb565b606091505b5091509150818015614c05575080511580614c05575080806020019051810190614c05919061596d565b614c6b576040517f08c379a000000000000000000000000000000000000000000000000000000000815260206004820152601f60248201527f5472616e7366657248656c7065723a205452414e534645525f4641494c45440060448201526064016107fc565b5050505050565b6000828152602081905260409020614c8a9082614ad0565b1561109057604051339073ffffffffffffffffffffffffffffffffffffffff83169084907f2f8788117e7eff1d82e926ec794901d17c78024a50270940304540a733656f0d90600090a45050565b6040805173ffffffffffffffffffffffffffffffffffffffff85811660248301528481166044830152606480830185905283518084039091018152608490920183526020820180517bffffffffffffffffffffffffffffffffffffffffffffffffffffffff167f23b872dd000000000000000000000000000000000000000000000000000000001790529151600092839290881691614d779190615d65565b6000604051808303816000865af19150503d8060008114614db4576040519150601f19603f3d011682016040523d82523d6000602084013e614db9565b606091505b5091509150818015614de3575080511580614de3575080806020019051810190614de3919061596d565b614e6e576040517f08c379a0000000000000000000000000000000000000000000000000000000008152602060048201526024808201527f5472616e7366657248656c7065723a205452414e534645525f46524f4d5f464160448201527f494c45440000000000000000000000000000000000000000000000000000000060648201526084016107fc565b505050505050565b6000828152602081905260409020614e8e9082614f8a565b1561109057604051339073ffffffffffffffffffffffffffffffffffffffff83169084907ff6391f5c32d9c69d2a47ea670b442974b53935d1edc7fd64eb21e047a839171b90600090a45050565b6000614ee88383614fbc565b60601c9392505050565b606081901b7fffffffffffffffffffffffffffffffffffffffff00000000000000000000000016600090815260018301602052604081205415156127ed565b60006127f0825490565b6000818152600183016020526040812054614f82575081546001818101845560008481526020808220909301849055845484825282860190935260409020919091556127f0565b5060006127f0565b60006127ed837fffffffffffffffffffffffffffffffffffffffff000000000000000000000000606085901b16615077565b8154600090821061504f576040517f08c379a000000000000000000000000000000000000000000000000000000000815260206004820152602260248201527f456e756d657261626c655365743a20696e646578206f7574206f6620626f756e60448201527f647300000000000000000000000000000000000000000000000000000000000060648201526084016107fc565b82600001828154811061506457615064615d36565b9060005260206000200154905092915050565b6000818152600183016020526040812054801561516057600061509b600183615812565b85549091506000906150af90600190615812565b905060008660000182815481106150c8576150c8615d36565b90600052602060002001549050808760000184815481106150eb576150eb615d36565b6000918252602090912001556151028360016157fa565b6000828152600189016020526040902055865487908061512457615124615d81565b600190038181906000526020600020016000905590558660010160008781526020019081526020016000206000905560019450505050506127f0565b60009150506127f0565b803573ffffffffffffffffffffffffffffffffffffffff8116811461518e57600080fd5b919050565b6000602082840312156151a557600080fd5b6127ed8261516a565b6000602082840312156151c057600080fd5b5035919050565b60008083601f8401126151d957600080fd5b50813567ffffffffffffffff8111156151f157600080fd5b6020830191508360208260051b850101111561520c57600080fd5b9250929050565b60008060008060006080868803121561522b57600080fd5b853594506020860135935060408601359250606086013567ffffffffffffffff81111561525757600080fd5b615263888289016151c7565b969995985093965092949392505050565b6000806040838503121561528757600080fd5b823591506152976020840161516a565b90509250929050565b7f4e487b7100000000000000000000000000000000000000000000000000000000600052604160045260246000fd5b60405160c0810167ffffffffffffffff811182821017156152f2576152f26152a0565b60405290565b604051601f82017fffffffffffffffffffffffffffffffffffffffffffffffffffffffffffffffe016810167ffffffffffffffff8111828210171561533f5761533f6152a0565b604052919050565b600067ffffffffffffffff821115615361576153616152a0565b5060051b60200190565b600082601f83011261537c57600080fd5b8135602061539161538c83615347565b6152f8565b82815260059290921b840181019181810190868411156153b057600080fd5b8286015b848110156153cb57803583529183019183016153b4565b509695505050505050565b6000602082840312156153e857600080fd5b813567ffffffffffffffff8111156153ff57600080fd5b61540b8482850161536b565b949350505050565b600080600080600080600060e0888a03121561542e57600080fd5b505085359760208701359750604087013596606081013596506080810135955060a0810135945060c0013592509050565b600080600080600080600060c0888a03121561547a57600080fd5b873596506020880135955060408801359450606088013593506080880135925060a088013567ffffffffffffffff8111156154b457600080fd5b6154c08a828b016151c7565b989b979a50959850939692959293505050565b600080604083850312156154e657600080fd5b50508035926020909101359150565b6000601f838184011261550757600080fd5b8235602061551761538c83615347565b82815260059290921b8501810191818101908784111561553657600080fd5b8287015b848110156155eb57803567ffffffffffffffff8082111561555b5760008081fd5b818a0191508a603f8301126155705760008081fd5b85820135604082821115615586576155866152a0565b6155b5887fffffffffffffffffffffffffffffffffffffffffffffffffffffffffffffffe08c850116016152f8565b92508183528c818386010111156155cc5760008081fd5b818185018985013750600090820187015284525091830191830161553a565b50979650505050505050565b60006020828403121561560957600080fd5b813567ffffffffffffffff8082111561562157600080fd5b9083019060c0828603121561563557600080fd5b61563d6152cf565b823581526020830135602082015260408301358281111561565d57600080fd5b6156698782860161536b565b604083015250606083013560608201526080830135608082015260a08301358281111561569557600080fd5b6156a1878286016154f5565b60a08301525095945050505050565b60008060008060008060a087890312156156c957600080fd5b86359550602087013567ffffffffffffffff808211156156e857600080fd5b6156f48a838b0161536b565b96506040890135955060608901359450608089013591508082111561571857600080fd5b5061572589828a016151c7565b979a9699509497509295939492505050565b60008060006060848603121561574c57600080fd5b6157558461516a565b92506020840135915061576a6040850161516a565b90509250925092565b60008060008060008060a0878903121561578c57600080fd5b86359550602087013594506040870135935060608701359250608087013567ffffffffffffffff8111156157bf57600080fd5b61572589828a016151c7565b7f4e487b7100000000000000000000000000000000000000000000000000000000600052601160045260246000fd5b6000821982111561580d5761580d6157cb565b500190565b600082821015615824576158246157cb565b500390565b60006020828403121561583b57600080fd5b5051919050565b8183528181602085013750600060208284010152600060207fffffffffffffffffffffffffffffffffffffffffffffffffffffffffffffffe0601f840116840101905092915050565b60006040820185835260206040818501528185835260608501905060608660051b86010192508660005b8781101561595f577fffffffffffffffffffffffffffffffffffffffffffffffffffffffffffffffa087860301835281357fffffffffffffffffffffffffffffffffffffffffffffffffffffffffffffffe18a360301811261591657600080fd5b8901803567ffffffffffffffff81111561592f57600080fd5b8036038b131561593e57600080fd5b61594b8782888501615842565b9650505091830191908301906001016158b5565b509298975050505050505050565b60006020828403121561597f57600080fd5b8151801515811461598f57600080fd5b9392505050565b600181815b808511156159ef57817fffffffffffffffffffffffffffffffffffffffffffffffffffffffffffffffff048211156159d5576159d56157cb565b808516156159e257918102915b93841c939080029061599b565b509250929050565b600082615a06575060016127f0565b81615a13575060006127f0565b8160018114615a295760028114615a3357615a4f565b60019150506127f0565b60ff841115615a4457615a446157cb565b50506001821b6127f0565b5060208310610133831016604e8410600b8410161715615a72575081810a6127f0565b615a7c8383615996565b807fffffffffffffffffffffffffffffffffffffffffffffffffffffffffffffffff04821115615aae57615aae6157cb565b029392505050565b60006127ed83836159f7565b600082615af8577f4e487b7100000000000000000000000000000000000000000000000000000000600052601260045260246000fd5b500490565b6000817fffffffffffffffffffffffffffffffffffffffffffffffffffffffffffffffff0483118215151615615b3557615b356157cb565b500290565b6020808252825182820181905260009190848201906040850190845b81811015615b7257835183529284019291840191600101615b56565b50909695505050505050565b81518152602080830151908201526040808301519082015260608083015190820152608081016127f0565b60008060408385031215615bbc57600080fd5b505080516020909101519092909150565b60007fffffffffffffffffffffffffffffffffffffffff000000000000000000000000808960601b1683526014830188516020808b0160005b83811015615c2257815185529382019390820190600101615c06565b5050505060609790971b168652505060148401929092526034830152605482015260740192915050565b60005b83811015615c67578181015183820152602001615c4f565b838111156108e15750506000910152565b600060408201848352602060408185015281855180845260608601915060608160051b870101935082870160005b82811015615d28577fffffffffffffffffffffffffffffffffffffffffffffffffffffffffffffffa088870301845281518051808852615ceb81888a01898501615c4c565b601f017fffffffffffffffffffffffffffffffffffffffffffffffffffffffffffffffe01696909601850195509284019290840190600101615ca6565b509398975050505050505050565b7f4e487b7100000000000000000000000000000000000000000000000000000000600052603260045260246000fd5b60008251615d77818460208701615c4c565b9190910192915050565b7f4e487b7100000000000000000000000000000000000000000000000000000000600052603160045260246000fdfea26469706673582212202c9b857d563f37079c55cac8650b11b2ed95e9e47dc81d7ea1fc60ca817bdec064736f6c634300080a0033",
  "linkReferences": {},
  "deployedLinkReferences": {}
}