{
  "_format": "hh-sol-artifact-1",
  "contractName": "DEIPool",
  "sourceName": "contracts/DEI/Pools/DEIPool.sol",
  "abi": [
    {
      "inputs": [
        {
          "internalType": "address",
          "name": "_dei_contract_address",
          "type": "address"
        },
        {
          "internalType": "address",
          "name": "_deus_contract_address",
          "type": "address"
        },
        {
          "internalType": "address",
          "name": "_collateral_address",
          "type": "address"
        },
        {
          "internalType": "address",
          "name": "_trusty_address",
          "type": "address"
        },
        {
          "internalType": "address",
          "name": "_admin_address",
          "type": "address"
        },
        {
          "internalType": "uint256",
          "name": "_pool_ceiling",
          "type": "uint256"
        },
        {
          "internalType": "address",
          "name": "_library",
          "type": "address"
        }
      ],
      "stateMutability": "nonpayable",
      "type": "constructor"
    },
    {
      "anonymous": false,
      "inputs": [
        {
          "indexed": false,
          "internalType": "bool",
          "name": "toggled",
          "type": "bool"
        }
      ],
      "name": "BuybackToggled",
      "type": "event"
    },
    {
      "anonymous": false,
      "inputs": [
        {
          "indexed": false,
          "internalType": "bool",
          "name": "toggled",
          "type": "bool"
        }
      ],
      "name": "MintingToggled",
      "type": "event"
    },
    {
      "anonymous": false,
      "inputs": [
        {
          "indexed": false,
          "internalType": "uint256",
          "name": "new_ceiling",
          "type": "uint256"
        },
        {
          "indexed": false,
          "internalType": "uint256",
          "name": "new_bonus_rate",
          "type": "uint256"
        },
        {
          "indexed": false,
          "internalType": "uint256",
          "name": "new_redemption_delay",
          "type": "uint256"
        },
        {
          "indexed": false,
          "internalType": "uint256",
          "name": "new_mint_fee",
          "type": "uint256"
        },
        {
          "indexed": false,
          "internalType": "uint256",
          "name": "new_redeem_fee",
          "type": "uint256"
        },
        {
          "indexed": false,
          "internalType": "uint256",
          "name": "new_buyback_fee",
          "type": "uint256"
        },
        {
          "indexed": false,
          "internalType": "uint256",
          "name": "new_recollat_fee",
          "type": "uint256"
        }
      ],
      "name": "PoolParametersSet",
      "type": "event"
    },
    {
      "anonymous": false,
      "inputs": [
        {
          "indexed": false,
          "internalType": "bool",
          "name": "toggled",
          "type": "bool"
        }
      ],
      "name": "RecollateralizeToggled",
      "type": "event"
    },
    {
      "anonymous": false,
      "inputs": [
        {
          "indexed": false,
          "internalType": "bool",
          "name": "toggled",
          "type": "bool"
        }
      ],
      "name": "RedeemingToggled",
      "type": "event"
    },
    {
      "anonymous": false,
      "inputs": [
        {
          "indexed": true,
          "internalType": "bytes32",
          "name": "role",
          "type": "bytes32"
        },
        {
          "indexed": true,
          "internalType": "bytes32",
          "name": "previousAdminRole",
          "type": "bytes32"
        },
        {
          "indexed": true,
          "internalType": "bytes32",
          "name": "newAdminRole",
          "type": "bytes32"
        }
      ],
      "name": "RoleAdminChanged",
      "type": "event"
    },
    {
      "anonymous": false,
      "inputs": [
        {
          "indexed": true,
          "internalType": "bytes32",
          "name": "role",
          "type": "bytes32"
        },
        {
          "indexed": true,
          "internalType": "address",
          "name": "account",
          "type": "address"
        },
        {
          "indexed": true,
          "internalType": "address",
          "name": "sender",
          "type": "address"
        }
      ],
      "name": "RoleGranted",
      "type": "event"
    },
    {
      "anonymous": false,
      "inputs": [
        {
          "indexed": true,
          "internalType": "bytes32",
          "name": "role",
          "type": "bytes32"
        },
        {
          "indexed": true,
          "internalType": "address",
          "name": "account",
          "type": "address"
        },
        {
          "indexed": true,
          "internalType": "address",
          "name": "sender",
          "type": "address"
        }
      ],
      "name": "RoleRevoked",
      "type": "event"
    },
    {
      "anonymous": false,
      "inputs": [
        {
          "indexed": false,
          "internalType": "uint256",
          "name": "daoShare",
          "type": "uint256"
        },
        {
          "indexed": false,
          "internalType": "address",
          "name": "to",
          "type": "address"
        }
      ],
      "name": "daoShareCollected",
      "type": "event"
    },
    {
      "inputs": [],
      "name": "DAO_SHARE_COLLECTOR",
      "outputs": [
        {
          "internalType": "bytes32",
          "name": "",
          "type": "bytes32"
        }
      ],
      "stateMutability": "view",
      "type": "function"
    },
    {
      "inputs": [],
      "name": "DEFAULT_ADMIN_ROLE",
      "outputs": [
        {
          "internalType": "bytes32",
          "name": "",
          "type": "bytes32"
        }
      ],
      "stateMutability": "view",
      "type": "function"
    },
    {
      "inputs": [],
      "name": "PARAMETER_SETTER_ROLE",
      "outputs": [
        {
          "internalType": "bytes32",
          "name": "",
          "type": "bytes32"
        }
      ],
      "stateMutability": "view",
      "type": "function"
    },
    {
      "inputs": [],
      "name": "TRUSTY_ROLE",
      "outputs": [
        {
          "internalType": "bytes32",
          "name": "",
          "type": "bytes32"
        }
      ],
      "stateMutability": "view",
      "type": "function"
    },
    {
      "inputs": [
        {
          "internalType": "uint256[]",
          "name": "collat_usd_price",
          "type": "uint256[]"
        }
      ],
      "name": "availableExcessCollatDV",
      "outputs": [
        {
          "internalType": "uint256",
          "name": "",
          "type": "uint256"
        }
      ],
      "stateMutability": "view",
      "type": "function"
    },
    {
      "inputs": [],
      "name": "bonus_rate",
      "outputs": [
        {
          "internalType": "uint256",
          "name": "",
          "type": "uint256"
        }
      ],
      "stateMutability": "view",
      "type": "function"
    },
    {
      "inputs": [
        {
          "internalType": "uint256",
          "name": "DEUS_amount",
          "type": "uint256"
        },
        {
          "internalType": "uint256[]",
          "name": "collateral_price",
          "type": "uint256[]"
        },
        {
          "internalType": "uint256",
          "name": "deus_current_price",
          "type": "uint256"
        },
        {
          "internalType": "uint256",
          "name": "expireBlock",
          "type": "uint256"
        },
        {
          "internalType": "bytes[]",
          "name": "sigs",
          "type": "bytes[]"
        }
      ],
      "name": "buyBackDEUS",
      "outputs": [],
      "stateMutability": "nonpayable",
      "type": "function"
    },
    {
      "inputs": [],
      "name": "buyBackPaused",
      "outputs": [
        {
          "internalType": "bool",
          "name": "",
          "type": "bool"
        }
      ],
      "stateMutability": "view",
      "type": "function"
    },
    {
      "inputs": [],
      "name": "buyback_fee",
      "outputs": [
        {
          "internalType": "uint256",
          "name": "",
          "type": "uint256"
        }
      ],
      "stateMutability": "view",
      "type": "function"
    },
    {
      "inputs": [
        {
          "internalType": "uint256",
          "name": "collat_usd_price",
          "type": "uint256"
        }
      ],
      "name": "collatDollarBalance",
      "outputs": [
        {
          "internalType": "uint256",
          "name": "",
          "type": "uint256"
        }
      ],
      "stateMutability": "view",
      "type": "function"
    },
    {
      "inputs": [
        {
          "internalType": "uint256",
          "name": "amount",
          "type": "uint256"
        },
        {
          "internalType": "address",
          "name": "to",
          "type": "address"
        }
      ],
      "name": "collectDaoShare",
      "outputs": [],
      "stateMutability": "nonpayable",
      "type": "function"
    },
    {
      "inputs": [],
      "name": "collectRedemption",
      "outputs": [],
      "stateMutability": "nonpayable",
      "type": "function"
    },
    {
      "inputs": [],
      "name": "daoShare",
      "outputs": [
        {
          "internalType": "uint256",
          "name": "",
          "type": "uint256"
        }
      ],
      "stateMutability": "view",
      "type": "function"
    },
    {
      "inputs": [
        {
          "internalType": "address",
          "name": "token",
          "type": "address"
        },
        {
          "internalType": "uint256",
          "name": "amount",
          "type": "uint256"
        },
        {
          "internalType": "address",
          "name": "to",
          "type": "address"
        }
      ],
      "name": "emergencyWithdrawERC20",
      "outputs": [],
      "stateMutability": "nonpayable",
      "type": "function"
    },
    {
      "inputs": [],
      "name": "getChainID",
      "outputs": [
        {
          "internalType": "uint256",
          "name": "",
          "type": "uint256"
        }
      ],
      "stateMutability": "view",
      "type": "function"
    },
    {
      "inputs": [
        {
          "internalType": "bytes32",
          "name": "role",
          "type": "bytes32"
        }
      ],
      "name": "getRoleAdmin",
      "outputs": [
        {
          "internalType": "bytes32",
          "name": "",
          "type": "bytes32"
        }
      ],
      "stateMutability": "view",
      "type": "function"
    },
    {
      "inputs": [
        {
          "internalType": "bytes32",
          "name": "role",
          "type": "bytes32"
        },
        {
          "internalType": "uint256",
          "name": "index",
          "type": "uint256"
        }
      ],
      "name": "getRoleMember",
      "outputs": [
        {
          "internalType": "address",
          "name": "",
          "type": "address"
        }
      ],
      "stateMutability": "view",
      "type": "function"
    },
    {
      "inputs": [
        {
          "internalType": "bytes32",
          "name": "role",
          "type": "bytes32"
        }
      ],
      "name": "getRoleMemberCount",
      "outputs": [
        {
          "internalType": "uint256",
          "name": "",
          "type": "uint256"
        }
      ],
      "stateMutability": "view",
      "type": "function"
    },
    {
      "inputs": [
        {
          "internalType": "bytes32",
          "name": "role",
          "type": "bytes32"
        },
        {
          "internalType": "address",
          "name": "account",
          "type": "address"
        }
      ],
      "name": "grantRole",
      "outputs": [],
      "stateMutability": "nonpayable",
      "type": "function"
    },
    {
      "inputs": [
        {
          "internalType": "bytes32",
          "name": "role",
          "type": "bytes32"
        },
        {
          "internalType": "address",
          "name": "account",
          "type": "address"
        }
      ],
      "name": "hasRole",
      "outputs": [
        {
          "internalType": "bool",
          "name": "",
          "type": "bool"
        }
      ],
      "stateMutability": "view",
      "type": "function"
    },
    {
      "inputs": [
        {
          "internalType": "address",
          "name": "",
          "type": "address"
        }
      ],
      "name": "lastRedeemed",
      "outputs": [
        {
          "internalType": "uint256",
          "name": "",
          "type": "uint256"
        }
      ],
      "stateMutability": "view",
      "type": "function"
    },
    {
      "inputs": [
        {
          "internalType": "uint256",
          "name": "collateral_amount",
          "type": "uint256"
        },
        {
          "internalType": "uint256",
          "name": "collateral_price",
          "type": "uint256"
        },
        {
          "internalType": "uint256",
          "name": "expireBlock",
          "type": "uint256"
        },
        {
          "internalType": "bytes[]",
          "name": "sigs",
          "type": "bytes[]"
        }
      ],
      "name": "mint1t1DEI",
      "outputs": [
        {
          "internalType": "uint256",
          "name": "dei_amount_d18",
          "type": "uint256"
        }
      ],
      "stateMutability": "nonpayable",
      "type": "function"
    },
    {
      "inputs": [
        {
          "internalType": "uint256",
          "name": "deus_amount_d18",
          "type": "uint256"
        },
        {
          "internalType": "uint256",
          "name": "deus_current_price",
          "type": "uint256"
        },
        {
          "internalType": "uint256",
          "name": "expireBlock",
          "type": "uint256"
        },
        {
          "internalType": "bytes[]",
          "name": "sigs",
          "type": "bytes[]"
        }
      ],
      "name": "mintAlgorithmicDEI",
      "outputs": [
        {
          "internalType": "uint256",
          "name": "dei_amount_d18",
          "type": "uint256"
        }
      ],
      "stateMutability": "nonpayable",
      "type": "function"
    },
    {
      "inputs": [
        {
          "internalType": "uint256",
          "name": "collateral_amount",
          "type": "uint256"
        },
        {
          "internalType": "uint256",
          "name": "deus_amount",
          "type": "uint256"
        },
        {
          "internalType": "uint256",
          "name": "collateral_price",
          "type": "uint256"
        },
        {
          "internalType": "uint256",
          "name": "deus_current_price",
          "type": "uint256"
        },
        {
          "internalType": "uint256",
          "name": "expireBlock",
          "type": "uint256"
        },
        {
          "internalType": "bytes[]",
          "name": "sigs",
          "type": "bytes[]"
        }
      ],
      "name": "mintFractionalDEI",
      "outputs": [
        {
          "internalType": "uint256",
          "name": "mint_amount",
          "type": "uint256"
        }
      ],
      "stateMutability": "nonpayable",
      "type": "function"
    },
    {
      "inputs": [],
      "name": "mintPaused",
      "outputs": [
        {
          "internalType": "bool",
          "name": "",
          "type": "bool"
        }
      ],
      "stateMutability": "view",
      "type": "function"
    },
    {
      "inputs": [],
      "name": "minting_fee",
      "outputs": [
        {
          "internalType": "uint256",
          "name": "",
          "type": "uint256"
        }
      ],
      "stateMutability": "view",
      "type": "function"
    },
    {
      "inputs": [],
      "name": "pausedPrice",
      "outputs": [
        {
          "internalType": "uint256",
          "name": "",
          "type": "uint256"
        }
      ],
      "stateMutability": "view",
      "type": "function"
    },
    {
      "inputs": [],
      "name": "pool_ceiling",
      "outputs": [
        {
          "internalType": "uint256",
          "name": "",
          "type": "uint256"
        }
      ],
      "stateMutability": "view",
      "type": "function"
    },
    {
      "inputs": [],
      "name": "recollat_fee",
      "outputs": [
        {
          "internalType": "uint256",
          "name": "",
          "type": "uint256"
        }
      ],
      "stateMutability": "view",
      "type": "function"
    },
    {
      "inputs": [
        {
          "components": [
            {
              "internalType": "uint256",
              "name": "collateral_amount",
              "type": "uint256"
            },
            {
              "internalType": "uint256",
              "name": "pool_collateral_price",
              "type": "uint256"
            },
            {
              "internalType": "uint256[]",
              "name": "collateral_price",
              "type": "uint256[]"
            },
            {
              "internalType": "uint256",
              "name": "deus_current_price",
              "type": "uint256"
            },
            {
              "internalType": "uint256",
              "name": "expireBlock",
              "type": "uint256"
            },
            {
              "internalType": "bytes[]",
              "name": "sigs",
              "type": "bytes[]"
            }
          ],
          "internalType": "struct DEIPool.RecollateralizeDEI",
          "name": "inputs",
          "type": "tuple"
        }
      ],
      "name": "recollateralizeDEI",
      "outputs": [],
      "stateMutability": "nonpayable",
      "type": "function"
    },
    {
      "inputs": [],
      "name": "recollateralizePaused",
      "outputs": [
        {
          "internalType": "bool",
          "name": "",
          "type": "bool"
        }
      ],
      "stateMutability": "view",
      "type": "function"
    },
    {
      "inputs": [
        {
          "internalType": "uint256",
          "name": "DEI_amount",
          "type": "uint256"
        },
        {
          "internalType": "uint256",
          "name": "collateral_price",
          "type": "uint256"
        },
        {
          "internalType": "uint256",
          "name": "expireBlock",
          "type": "uint256"
        },
        {
          "internalType": "bytes[]",
          "name": "sigs",
          "type": "bytes[]"
        }
      ],
      "name": "redeem1t1DEI",
      "outputs": [],
      "stateMutability": "nonpayable",
      "type": "function"
    },
    {
      "inputs": [
        {
          "internalType": "uint256",
          "name": "DEI_amount",
          "type": "uint256"
        },
        {
          "internalType": "uint256",
          "name": "deus_current_price",
          "type": "uint256"
        },
        {
          "internalType": "uint256",
          "name": "expireBlock",
          "type": "uint256"
        },
        {
          "internalType": "bytes[]",
          "name": "sigs",
          "type": "bytes[]"
        }
      ],
      "name": "redeemAlgorithmicDEI",
      "outputs": [],
      "stateMutability": "nonpayable",
      "type": "function"
    },
    {
      "inputs": [
        {
          "internalType": "address",
          "name": "",
          "type": "address"
        }
      ],
      "name": "redeemCollateralBalances",
      "outputs": [
        {
          "internalType": "uint256",
          "name": "",
          "type": "uint256"
        }
      ],
      "stateMutability": "view",
      "type": "function"
    },
    {
      "inputs": [
        {
          "internalType": "address",
          "name": "",
          "type": "address"
        }
      ],
      "name": "redeemDEUSBalances",
      "outputs": [
        {
          "internalType": "uint256",
          "name": "",
          "type": "uint256"
        }
      ],
      "stateMutability": "view",
      "type": "function"
    },
    {
      "inputs": [
        {
          "internalType": "uint256",
          "name": "DEI_amount",
          "type": "uint256"
        },
        {
          "internalType": "uint256",
          "name": "collateral_price",
          "type": "uint256"
        },
        {
          "internalType": "uint256",
          "name": "deus_current_price",
          "type": "uint256"
        },
        {
          "internalType": "uint256",
          "name": "expireBlock",
          "type": "uint256"
        },
        {
          "internalType": "bytes[]",
          "name": "sigs",
          "type": "bytes[]"
        }
      ],
      "name": "redeemFractionalDEI",
      "outputs": [],
      "stateMutability": "nonpayable",
      "type": "function"
    },
    {
      "inputs": [],
      "name": "redeemPaused",
      "outputs": [
        {
          "internalType": "bool",
          "name": "",
          "type": "bool"
        }
      ],
      "stateMutability": "view",
      "type": "function"
    },
    {
      "inputs": [],
      "name": "redemption_delay",
      "outputs": [
        {
          "internalType": "uint256",
          "name": "",
          "type": "uint256"
        }
      ],
      "stateMutability": "view",
      "type": "function"
    },
    {
      "inputs": [],
      "name": "redemption_fee",
      "outputs": [
        {
          "internalType": "uint256",
          "name": "",
          "type": "uint256"
        }
      ],
      "stateMutability": "view",
      "type": "function"
    },
    {
      "inputs": [
        {
          "internalType": "bytes32",
          "name": "role",
          "type": "bytes32"
        },
        {
          "internalType": "address",
          "name": "account",
          "type": "address"
        }
      ],
      "name": "renounceRole",
      "outputs": [],
      "stateMutability": "nonpayable",
      "type": "function"
    },
    {
      "inputs": [
        {
          "internalType": "bytes32",
          "name": "role",
          "type": "bytes32"
        },
        {
          "internalType": "address",
          "name": "account",
          "type": "address"
        }
      ],
      "name": "revokeRole",
      "outputs": [],
      "stateMutability": "nonpayable",
      "type": "function"
    },
    {
      "inputs": [
        {
          "internalType": "uint256",
          "name": "new_ceiling",
          "type": "uint256"
        },
        {
          "internalType": "uint256",
          "name": "new_bonus_rate",
          "type": "uint256"
        },
        {
          "internalType": "uint256",
          "name": "new_redemption_delay",
          "type": "uint256"
        },
        {
          "internalType": "uint256",
          "name": "new_mint_fee",
          "type": "uint256"
        },
        {
          "internalType": "uint256",
          "name": "new_redeem_fee",
          "type": "uint256"
        },
        {
          "internalType": "uint256",
          "name": "new_buyback_fee",
          "type": "uint256"
        },
        {
          "internalType": "uint256",
          "name": "new_recollat_fee",
          "type": "uint256"
        }
      ],
      "name": "setPoolParameters",
      "outputs": [],
      "stateMutability": "nonpayable",
      "type": "function"
    },
    {
      "inputs": [],
      "name": "toggleBuyBack",
      "outputs": [],
      "stateMutability": "nonpayable",
      "type": "function"
    },
    {
      "inputs": [],
      "name": "toggleMinting",
      "outputs": [],
      "stateMutability": "nonpayable",
      "type": "function"
    },
    {
      "inputs": [],
      "name": "toggleRecollateralize",
      "outputs": [],
      "stateMutability": "nonpayable",
      "type": "function"
    },
    {
      "inputs": [],
      "name": "toggleRedeeming",
      "outputs": [],
      "stateMutability": "nonpayable",
      "type": "function"
    },
    {
      "inputs": [],
      "name": "unclaimedPoolCollateral",
      "outputs": [
        {
          "internalType": "uint256",
          "name": "",
          "type": "uint256"
        }
      ],
      "stateMutability": "view",
      "type": "function"
    },
    {
      "inputs": [],
      "name": "unclaimedPoolDEUS",
      "outputs": [
        {
          "internalType": "uint256",
          "name": "",
          "type": "uint256"
        }
      ],
      "stateMutability": "view",
      "type": "function"
    }
  ],
  "bytecode": "0x60a06040526000600e819055600f819055611d4c60105560026011556012556013805463ffffffff60a01b191690553480156200003b57600080fd5b5060405162006301380380620063018339810160408190526200005e916200041b565b6001600160a01b038716158015906200007f57506001600160a01b03861615155b80156200009457506001600160a01b03851615155b8015620000a957506001600160a01b03841615155b8015620000be57506001600160a01b03831615155b8015620000d357506001600160a01b03811615155b620001245760405162461bcd60e51b815260206004820152601b60248201527f504f4f4c3a3a5a65726f20616464726573732064657465637465640000000000604482015260640160405180910390fd5b601380546001600160a01b038084166001600160a01b031992831617909255600380548a8416908316179055600480548984169083161781556002805493891693831684179055600180549092168317909155600e8490556040805163313ce56760e01b8152905163313ce567928281019260209291908290030181865afa158015620001b5573d6000803e3d6000fd5b505050506040513d601f19601f82011682018060405250810190620001db9190620004a7565b620001eb9060ff166012620004d3565b608052620001fb60008462000310565b620002277fc65532185ed70b2e999433e2e9fac124e083acb13ec183a4e05944da0792337b8562000310565b620002537fa84a5389ad41f9aab0831b01e5384cae76e7a7fd09131c206ff7927c201c38578562000310565b6200027f7f8118eeb5231a5fe4008a55b62860f6a0db4f6c3ac04f8141927a9b3fedd86d2f8562000310565b620002ab7f103da79ff3755ff7a17a557d28b73d37cb4de0b3c3cc02fa6c48df0f35071fbf8562000310565b620002d77f0db189261133fd7647d3308512b693b47bed44004cac80fb59aa64b63a231e2c8562000310565b620003037fe08e6e8e2e796f02419355c6fa268d1461fe6f2f34114a881a2db47c0f2405098562000310565b50505050505050620004f9565b6200031c828262000320565b5050565b6000828152602081815260409091206200034591839062004aa562000387821b17901c565b156200031c5760405133906001600160a01b0383169084907f2f8788117e7eff1d82e926ec794901d17c78024a50270940304540a733656f0d90600090a45050565b6000620003a3836001600160601b0319606085901b16620003ac565b90505b92915050565b6000818152600183016020526040812054620003f557508154600181810184556000848152602080822090930184905584548482528286019093526040902091909155620003a6565b506000620003a6565b80516001600160a01b03811681146200041657600080fd5b919050565b600080600080600080600060e0888a0312156200043757600080fd5b6200044288620003fe565b96506200045260208901620003fe565b95506200046260408901620003fe565b94506200047260608901620003fe565b93506200048260808901620003fe565b925060a088015191506200049960c08901620003fe565b905092959891949750929550565b600060208284031215620004ba57600080fd5b815160ff81168114620004cc57600080fd5b9392505050565b600082821015620004f457634e487b7160e01b600052601160045260246000fd5b500390565b608051615dbb6200054660003960008181610c960152818161155a0152818161225601528181612ad201528181612dc40152818161349e0152818161397501526147840152615dbb6000f3fe608060405234801561001057600080fd5b50600436106103205760003560e01c80637b0461e9116101a7578063b6258aaa116100ee578063cb73999f11610097578063e3d84d5e11610071578063e3d84d5e146106d4578063eb2d7461146106e7578063fede5c9c146106fa57600080fd5b8063cb73999f146106b0578063d547741f146106b9578063daa50485146106cc57600080fd5b8063c6301e5d116100c8578063c6301e5d14610681578063c74ec56a14610694578063ca15c8731461069d57600080fd5b8063b6258aaa14610652578063c3355b8d14610665578063c410ca1b1461066e57600080fd5b806391d1485411610150578063a217fddf1161012a578063a217fddf14610604578063abae2c4c1461060c578063b235d4681461062c57600080fd5b806391d14854146105cb578063928d2b31146105de578063978b73b5146105f157600080fd5b80637f877f85116101815780637f877f851461056257806388d19f1b1461058a5780639010d07c1461059357600080fd5b80637b0461e91461052c5780637d55094d146105355780637e4831d31461053d57600080fd5b806340e14b781161026b578063564b81ef116102145780636d2c5615116101ee5780636d2c5615146104bb5780636d82e314146104f25780637901330b1461051957600080fd5b8063564b81ef146104855780635de207cc1461048b5780636526a12a146104b257600080fd5b80634ebbe762116102455780634ebbe7621461045757806350c9ecd91461046a57806354f9769d1461047257600080fd5b806340e14b781461043357806342d15aec146104465780634c6349341461044e57600080fd5b80632f2ff15d116102cd5780633648b7dc116102a75780633648b7dc146103f757806336568abe146104005780633b92da471461041357600080fd5b80632f2ff15d146103aa57806332ad1ee4146103bd57806334ddb95d146103d057600080fd5b806315128425116102fe578063151284251461036b578063248a9ca314610374578063254cd2bd1461039757600080fd5b806308a7493d14610325578063101197c71461035857806312ace5a214610361575b600080fd5b610345610333366004615168565b600a6020526000908152604090205481565b6040519081526020015b60405180910390f35b61034560075481565b610369610703565b005b61034560115481565b610345610382366004615183565b60009081526020819052604090206002015490565b6103696103a53660046151e8565b6108bc565b6103696103b8366004615249565b610fb3565b6103456103cb3660046151e8565b611069565b6103457f0db189261133fd7647d3308512b693b47bed44004cac80fb59aa64b63a231e2c81565b610345600c5481565b61036961040e366004615249565b61173f565b610345610421366004615168565b60096020526000908152604090205481565b6103456104413660046153ab565b6117ee565b610369611a0c565b61034560105481565b6103696104653660046153e8565b611ad3565b610369611c12565b610345610480366004615434565b611cd0565b46610345565b6103457fe08e6e8e2e796f02419355c6fa268d1461fe6f2f34114a881a2db47c0f24050981565b610345600e5481565b6013546104e290760100000000000000000000000000000000000000000000900460ff1681565b604051901515815260200161034f565b6103457f0d4a2989857a24de9c91e1daffe87d051d59f52b68729413d1ef656ec487e53081565b610369610527366004615249565b61255b565b610345600b5481565b6103696126ef565b6013546104e29074010000000000000000000000000000000000000000900460ff1681565b6013546104e29077010000000000000000000000000000000000000000000000900460ff1681565b61034560125481565b6105a66105a13660046154a8565b6127aa565b60405173ffffffffffffffffffffffffffffffffffffffff909116815260200161034f565b6104e26105d9366004615249565b6127cb565b6103696105ec3660046155cc565b6127e3565b6103696105ff3660046151e8565b612eef565b610345600081565b61034561061a366004615168565b600d6020526000908152604090205481565b6013546104e2907501000000000000000000000000000000000000000000900460ff1681565b610345610660366004615183565b613492565b61034560055481565b61036961067c366004615685565b613581565b61034561068f3660046151e8565b613a66565b610345600f5481565b6103456106ab366004615183565b61404e565b61034560065481565b6103696106c7366004615249565b614065565b61036961410d565b6103696106e236600461570c565b6141c9565b6103696106f5366004615748565b6142f2565b61034560085481565b601154336000908152600d60205260409020544391610721916157cf565b11156107da576040517f08c379a000000000000000000000000000000000000000000000000000000000815260206004820152605b60248201527f504f4f4c3a3a636f6c6c656374526564656d7074696f6e3a204d75737420776160448201527f697420666f7220726564656d7074696f6e5f64656c617920626c6f636b73206260648201527f65666f726520636f6c6c656374696e6720726564656d7074696f6e0000000000608482015260a4015b60405180910390fd5b3360009081526009602052604081205481908190819015610822573360009081526009602052604081208054919055600c5490925061081a9083906157e7565b600c55600193505b336000908152600a6020526040902054156108625750336000908152600a602052604081208054919055600b5461085a9082906157e7565b600b55600192505b831561088c5760045461088c9073ffffffffffffffffffffffffffffffffffffffff163384614ad7565b82156108b6576001546108b69073ffffffffffffffffffffffffffffffffffffffff163383614ad7565b50505050565b6013547501000000000000000000000000000000000000000000900460ff1615610942576040517f08c379a000000000000000000000000000000000000000000000000000000000815260206004820152601960248201527f504f4f4c3a3a52656465656d696e67206973207061757365640000000000000060448201526064016107d1565b600354604080517f2eb9771b0000000000000000000000000000000000000000000000000000000081529051620f42409273ffffffffffffffffffffffffffffffffffffffff1691632eb9771b9160048083019260209291908290030181865afa1580156109b4573d6000803e3d6000fd5b505050506040513d601f19601f820116820180604052508101906109d891906157fe565b14610a3f576040517f08c379a000000000000000000000000000000000000000000000000000000000815260206004820152601d60248201527f436f6c6c61746572616c20726174696f206d757374206265203d3d203100000060448201526064016107d1565b43831015610acf576040517f08c379a000000000000000000000000000000000000000000000000000000000815260206004820152602f60248201527f504f4f4c3a3a6d696e74416c676f726974686d69634445493a207369676e617460448201527f75726520697320657870697265642e000000000000000000000000000000000060648201526084016107d1565b60025460009073ffffffffffffffffffffffffffffffffffffffff1685854660405160609490941b7fffffffffffffffffffffffffffffffffffffffff000000000000000000000000166020850152603484019290925260548301526074820152609401604080517fffffffffffffffffffffffffffffffffffffffffffffffffffffffffffffffe08184030181529082905280516020909101206003547f6793f0ac00000000000000000000000000000000000000000000000000000000835290925073ffffffffffffffffffffffffffffffffffffffff1690636793f0ac90610bc290849087908790600401615860565b602060405180830381865afa158015610bdf573d6000803e3d6000fd5b505050506040513d601f19601f82011682018060405250810190610c039190615942565b610c8f576040517f08c379a000000000000000000000000000000000000000000000000000000000815260206004820152602660248201527f504f4f4c3a3a72656465656d3174314445493a20696e76616c6964207369676e60448201527f617475726573000000000000000000000000000000000000000000000000000060648201526084016107d1565b6000610cbc7f0000000000000000000000000000000000000000000000000000000000000000600a615a8b565b610cc69088615a97565b6013546040517f068d54aa000000000000000000000000000000000000000000000000000000008152600481018990526024810183905291925060009173ffffffffffffffffffffffffffffffffffffffff9091169063068d54aa90604401602060405180830381865afa158015610d42573d6000803e3d6000fd5b505050506040513d601f19601f82011682018060405250810190610d6691906157fe565b9050620f4240600654620f4240610d7d91906157e7565b610d879083615ad2565b610d919190615a97565b600b546001546040517f70a08231000000000000000000000000000000000000000000000000000000008152306004820152929350909173ffffffffffffffffffffffffffffffffffffffff909116906370a0823190602401602060405180830381865afa158015610e07573d6000803e3d6000fd5b505050506040513d601f19601f82011682018060405250810190610e2b91906157fe565b610e3591906157e7565b811115610e9e576040517f08c379a000000000000000000000000000000000000000000000000000000000815260206004820152601d60248201527f4e6f7420656e6f75676820636f6c6c61746572616c20696e20706f6f6c00000060448201526064016107d1565b336000908152600a6020526040902054610eb99082906157cf565b336000908152600a6020526040902055600b54610ed79082906157cf565b600b55336000908152600d60205260409020439055600654620f424090610efe908a615ad2565b610f089190615a97565b60126000828254610f1991906157cf565b90915550506003546040517fa8a778ae000000000000000000000000000000000000000000000000000000008152336004820152602481018a905273ffffffffffffffffffffffffffffffffffffffff9091169063a8a778ae906044015b600060405180830381600087803b158015610f9157600080fd5b505af1158015610fa5573d6000803e3d6000fd5b505050505050505050505050565b600082815260208190526040902060020154610fcf90336127cb565b61105b576040517f08c379a000000000000000000000000000000000000000000000000000000000815260206004820152602f60248201527f416363657373436f6e74726f6c3a2073656e646572206d75737420626520616e60448201527f2061646d696e20746f206772616e74000000000000000000000000000000000060648201526084016107d1565b6110658282614c47565b5050565b60135460009074010000000000000000000000000000000000000000900460ff16156110f1576040517f08c379a000000000000000000000000000000000000000000000000000000000815260206004820152601760248201527f504f4f4c3a3a4d696e74696e672069732070617573656400000000000000000060448201526064016107d1565b600354604080517f2eb9771b0000000000000000000000000000000000000000000000000000000081529051620f42409273ffffffffffffffffffffffffffffffffffffffff1691632eb9771b9160048083019260209291908290030181865afa158015611163573d6000803e3d6000fd5b505050506040513d601f19601f8201168201806040525081019061118791906157fe565b10156111ef576040517f08c379a000000000000000000000000000000000000000000000000000000000815260206004820152601d60248201527f436f6c6c61746572616c20726174696f206d757374206265203e3d203100000060448201526064016107d1565b600e54600b546001546040517f70a0823100000000000000000000000000000000000000000000000000000000815230600482015289929173ffffffffffffffffffffffffffffffffffffffff16906370a0823190602401602060405180830381865afa158015611264573d6000803e3d6000fd5b505050506040513d601f19601f8201168201806040525081019061128891906157fe565b61129291906157e7565b61129c91906157cf565b1115611304576040517f08c379a000000000000000000000000000000000000000000000000000000000815260206004820181905260248201527f5b506f6f6c277320436c6f7365645d3a204365696c696e67207265616368656460448201526064016107d1565b43841015611394576040517f08c379a000000000000000000000000000000000000000000000000000000000815260206004820152602660248201527f504f4f4c3a3a6d696e743174314445493a207369676e6174757265206973206560448201527f787069726564000000000000000000000000000000000000000000000000000060648201526084016107d1565b60025460009073ffffffffffffffffffffffffffffffffffffffff1686864660405160609490941b7fffffffffffffffffffffffffffffffffffffffff000000000000000000000000166020850152603484019290925260548301526074820152609401604080517fffffffffffffffffffffffffffffffffffffffffffffffffffffffffffffffe08184030181529082905280516020909101206003547f6793f0ac00000000000000000000000000000000000000000000000000000000835290925073ffffffffffffffffffffffffffffffffffffffff1690636793f0ac9061148790849088908890600401615860565b602060405180830381865afa1580156114a4573d6000803e3d6000fd5b505050506040513d601f19601f820116820180604052508101906114c89190615942565b611553576040517f08c379a0000000000000000000000000000000000000000000000000000000008152602060048201526024808201527f504f4f4c3a3a6d696e743174314445493a20696e76616c6964207369676e617460448201527f757265730000000000000000000000000000000000000000000000000000000060648201526084016107d1565b60006115807f0000000000000000000000000000000000000000000000000000000000000000600a615a8b565b61158a9089615ad2565b6013546040517f882ab63a000000000000000000000000000000000000000000000000000000008152600481018a90526024810183905291925073ffffffffffffffffffffffffffffffffffffffff169063882ab63a90604401602060405180830381865afa158015611601573d6000803e3d6000fd5b505050506040513d601f19601f8201168201806040525081019061162591906157fe565b9250620f4240600554620f424061163c91906157e7565b6116469085615ad2565b6116509190615a97565b6001549093506116789073ffffffffffffffffffffffffffffffffffffffff1633308b614cad565b620f42406005548461168a9190615ad2565b6116949190615a97565b601260008282546116a591906157cf565b90915550506003546040517fb4f56b260000000000000000000000000000000000000000000000000000000081523360048201526024810185905273ffffffffffffffffffffffffffffffffffffffff9091169063b4f56b2690604401600060405180830381600087803b15801561171c57600080fd5b505af1158015611730573d6000803e3d6000fd5b50505050505095945050505050565b73ffffffffffffffffffffffffffffffffffffffff811633146117e4576040517f08c379a000000000000000000000000000000000000000000000000000000000815260206004820152602f60248201527f416363657373436f6e74726f6c3a2063616e206f6e6c792072656e6f756e636560448201527f20726f6c657320666f722073656c66000000000000000000000000000000000060648201526084016107d1565b6110658282614e4b565b600080600360009054906101000a900473ffffffffffffffffffffffffffffffffffffffff1673ffffffffffffffffffffffffffffffffffffffff166318160ddd6040518163ffffffff1660e01b8152600401602060405180830381865afa15801561185e573d6000803e3d6000fd5b505050506040513d601f19601f8201168201806040525081019061188291906157fe565b90506000600360009054906101000a900473ffffffffffffffffffffffffffffffffffffffff1673ffffffffffffffffffffffffffffffffffffffff16632eb9771b6040518163ffffffff1660e01b8152600401602060405180830381865afa1580156118f3573d6000803e3d6000fd5b505050506040513d601f19601f8201168201806040525081019061191791906157fe565b6003546040517f2480fcea00000000000000000000000000000000000000000000000000000000815291925060009173ffffffffffffffffffffffffffffffffffffffff90911690632480fcea90611973908890600401615b0f565b602060405180830381865afa158015611990573d6000803e3d6000fd5b505050506040513d601f19601f820116820180604052508101906119b491906157fe565b9050620f42408211156119c857620f424091505b6000620f42406119d88486615ad2565b6119e29190615a97565b905080821115611a00576119f681836157e7565b9695505050505050565b50600095945050505050565b611a367f8118eeb5231a5fe4008a55b62860f6a0db4f6c3ac04f8141927a9b3fedd86d2f336127cb565b611a3f57600080fd5b6013805460ff76010000000000000000000000000000000000000000000080830482161581027fffffffffffffffffff00ffffffffffffffffffffffffffffffffffffffffffff90931692909217928390556040517f2fda313d9b5bb0b73bd003153f2fccbc0dca49791fdd1184dfad82b44f54bd2e93611ac99390049091161515815260200190565b60405180910390a1565b611afd7fe08e6e8e2e796f02419355c6fa268d1461fe6f2f34114a881a2db47c0f240509336127cb565b611b89576040517f08c379a000000000000000000000000000000000000000000000000000000000815260206004820152602960248201527f504f4f4c3a2043616c6c6572206973206e6f7420504152414d455445525f534560448201527f545445525f524f4c45000000000000000000000000000000000000000000000060648201526084016107d1565b600e8790556010869055601185905560058490556006839055600782905560088190556040805188815260208101889052908101869052606081018590526080810184905260a0810183905260c081018290527f17fe98b66d27bd793ea01bd8a23a54acab8eeb167d9eb016a0c7cd71c573920c9060e00160405180910390a150505050505050565b611c3c7f103da79ff3755ff7a17a557d28b73d37cb4de0b3c3cc02fa6c48df0f35071fbf336127cb565b611c4557600080fd5b6013805460ff7701000000000000000000000000000000000000000000000080830482161581027fffffffffffffffff00ffffffffffffffffffffffffffffffffffffffffffffff90931692909217928390556040517f4f40fd1c59f78d7a2220da638cd9400daba01e57c7965702f390bf13133cc31f93611ac99390049091161515815260200190565b60135460009074010000000000000000000000000000000000000000900460ff1615611d58576040517f08c379a000000000000000000000000000000000000000000000000000000000815260206004820152601760248201527f504f4f4c3a3a4d696e74696e672069732070617573656400000000000000000060448201526064016107d1565b600354604080517f2eb9771b000000000000000000000000000000000000000000000000000000008152905160009273ffffffffffffffffffffffffffffffffffffffff1691632eb9771b9160048083019260209291908290030181865afa158015611dc8573d6000803e3d6000fd5b505050506040513d601f19601f82011682018060405250810190611dec91906157fe565b9050620f424081108015611e005750600081115b611e8c576040517f08c379a000000000000000000000000000000000000000000000000000000000815260206004820152603860248201527f436f6c6c61746572616c20726174696f206e6565647320746f2062652062657460448201527f7765656e202e30303030303120616e64202e393939393939000000000000000060648201526084016107d1565b600e54600b546001546040517f70a082310000000000000000000000000000000000000000000000000000000081523060048201528c929173ffffffffffffffffffffffffffffffffffffffff16906370a0823190602401602060405180830381865afa158015611f01573d6000803e3d6000fd5b505050506040513d601f19601f82011682018060405250810190611f2591906157fe565b611f2f91906157e7565b611f3991906157cf565b1115611fee576040517f08c379a0000000000000000000000000000000000000000000000000000000008152602060048201526044602482018190527f506f6f6c206365696c696e6720726561636865642c206e6f206d6f7265204445908201527f492063616e206265206d696e7465642077697468207468697320636f6c6c617460648201527f6572616c00000000000000000000000000000000000000000000000000000000608482015260a4016107d1565b4385101561207e576040517f08c379a000000000000000000000000000000000000000000000000000000000815260206004820152602e60248201527f504f4f4c3a3a6d696e744672616374696f6e616c4445493a207369676e61747560448201527f726520697320657870697265642e00000000000000000000000000000000000060648201526084016107d1565b600254600454604080517fffffffffffffffffffffffffffffffffffffffff000000000000000000000000606094851b8116602080840191909152603483018d90529390941b909316605484015260688301899052608883018890524660a8808501919091528151808503909101815260c884019182905280519201919091206003547f6793f0ac000000000000000000000000000000000000000000000000000000009092529173ffffffffffffffffffffffffffffffffffffffff90911690636793f0ac906121579084908990899060cc01615860565b602060405180830381865afa158015612174573d6000803e3d6000fd5b505050506040513d601f19601f820116820180604052508101906121989190615942565b612224576040517f08c379a000000000000000000000000000000000000000000000000000000000815260206004820152602b60248201527f504f4f4c3a3a6d696e744672616374696f6e616c4445493a20696e76616c696460448201527f207369676e61747572657300000000000000000000000000000000000000000060648201526084016107d1565b61224f6040518060800160405280600081526020016000815260200160008152602001600081525090565b600061227c7f0000000000000000000000000000000000000000000000000000000000000000600a615a8b565b612286908d615ad2565b604080516080810182528b8152602081018d9052808201929092526060820186905260135490517f537a30a70000000000000000000000000000000000000000000000000000000081529193506000925073ffffffffffffffffffffffffffffffffffffffff169063537a30a790612302908590600401615b53565b6040805180830381865afa15801561231e573d6000803e3d6000fd5b505050506040513d601f19601f820116820180604052508101906123429190615b7e565b90955090508a8111156123b1576040517f08c379a000000000000000000000000000000000000000000000000000000000815260206004820152601860248201527f4e6f7420656e6f756768204445555320696e707574746564000000000000000060448201526064016107d1565b620f4240600554620f42406123c691906157e7565b6123d09087615ad2565b6123da9190615a97565b600480546040517fa8a778ae00000000000000000000000000000000000000000000000000000000815233928101929092526024820184905291965073ffffffffffffffffffffffffffffffffffffffff9091169063a8a778ae90604401600060405180830381600087803b15801561245257600080fd5b505af1158015612466573d6000803e3d6000fd5b5050600154612490925073ffffffffffffffffffffffffffffffffffffffff16905033308f614cad565b620f4240600554866124a29190615ad2565b6124ac9190615a97565b601260008282546124bd91906157cf565b90915550506003546040517fb4f56b260000000000000000000000000000000000000000000000000000000081523360048201526024810187905273ffffffffffffffffffffffffffffffffffffffff9091169063b4f56b2690604401600060405180830381600087803b15801561253457600080fd5b505af1158015612548573d6000803e3d6000fd5b5050505050505050979650505050505050565b6125857f0d4a2989857a24de9c91e1daffe87d051d59f52b68729413d1ef656ec487e530336127cb565b61258e57600080fd5b6012548211156125fa576040517f08c379a000000000000000000000000000000000000000000000000000000000815260206004820152601060248201527f616d6f756e743c3d64616f53686172650000000000000000000000000000000060448201526064016107d1565b6003546040517fb4f56b2600000000000000000000000000000000000000000000000000000000815273ffffffffffffffffffffffffffffffffffffffff8381166004830152602482018590529091169063b4f56b2690604401600060405180830381600087803b15801561266e57600080fd5b505af1158015612682573d6000803e3d6000fd5b50505050816012600082825461269891906157e7565b90915550506040805183815273ffffffffffffffffffffffffffffffffffffffff831660208201527f3a708f2f1c75b12457d207cf1e259ab9f87bbfccb29672903acf4661bd342e49910160405180910390a15050565b6127197fc65532185ed70b2e999433e2e9fac124e083acb13ec183a4e05944da0792337b336127cb565b61272257600080fd5b6013805460ff7401000000000000000000000000000000000000000080830482161581027fffffffffffffffffffffff00ffffffffffffffffffffffffffffffffffffffff90931692909217928390556040517f6bdfe227d5db299c59aa56d5f846f40dbd73b271aaa78e18ed74fc3e00b8aa6b93611ac99390049091161515815260200190565b60008281526020819052604081206127c29083614eb1565b90505b92915050565b60008281526020819052604081206127c29083614ec7565b601354760100000000000000000000000000000000000000000000900460ff1615612890576040517f08c379a000000000000000000000000000000000000000000000000000000000815260206004820152603360248201527f504f4f4c3a3a7265636f6c6c61746572616c697a654445493a205265636f6c6c60448201527f61746572616c697a65206973207061757365640000000000000000000000000060648201526084016107d1565b4381608001511015612924576040517f08c379a000000000000000000000000000000000000000000000000000000000815260206004820152602f60248201527f504f4f4c3a3a7265636f6c6c61746572616c697a654445493a207369676e617460448201527f75726520697320657870697265642e000000000000000000000000000000000060648201526084016107d1565b60025460408281015160045460608501516080860151935160009561296d9573ffffffffffffffffffffffffffffffffffffffff91821695949190911692914690602001615ba2565b604080517fffffffffffffffffffffffffffffffffffffffffffffffffffffffffffffffe081840301815290829052805160209091012060035460a08501517f6793f0ac00000000000000000000000000000000000000000000000000000000845291935073ffffffffffffffffffffffffffffffffffffffff1691636793f0ac916129fe91859190600401615c4d565b602060405180830381865afa158015612a1b573d6000803e3d6000fd5b505050506040513d601f19601f82011682018060405250810190612a3f9190615942565b612acb576040517f08c379a000000000000000000000000000000000000000000000000000000000815260206004820152602c60248201527f504f4f4c3a3a7265636f6c6c61746572616c697a654445493a20696e76616c6960448201527f64207369676e617475726573000000000000000000000000000000000000000060648201526084016107d1565b6000612af87f0000000000000000000000000000000000000000000000000000000000000000600a615a8b565b8351612b049190615ad2565b90506000600360009054906101000a900473ffffffffffffffffffffffffffffffffffffffff1673ffffffffffffffffffffffffffffffffffffffff166318160ddd6040518163ffffffff1660e01b8152600401602060405180830381865afa158015612b75573d6000803e3d6000fd5b505050506040513d601f19601f82011682018060405250810190612b9991906157fe565b90506000600360009054906101000a900473ffffffffffffffffffffffffffffffffffffffff1673ffffffffffffffffffffffffffffffffffffffff16632eb9771b6040518163ffffffff1660e01b8152600401602060405180830381865afa158015612c0a573d6000803e3d6000fd5b505050506040513d601f19601f82011682018060405250810190612c2e91906157fe565b60035460408088015190517f2480fcea00000000000000000000000000000000000000000000000000000000815292935060009273ffffffffffffffffffffffffffffffffffffffff90921691632480fcea91612c8d91600401615b0f565b602060405180830381865afa158015612caa573d6000803e3d6000fd5b505050506040513d601f19601f82011682018060405250810190612cce91906157fe565b60135460408801518051929350600092839273ffffffffffffffffffffffffffffffffffffffff169163fc01106191899190612d0c906001906157e7565b81518110612d1c57612d1c615d0b565b60209081029190910101516040517fffffffff0000000000000000000000000000000000000000000000000000000060e085901b1681526004810192909252602482015260448101869052606481018890526084810187905260a4016040805180830381865afa158015612d94573d6000803e3d6000fd5b505050506040513d601f19601f82011682018060405250810190612db89190615b7e565b90925090506000612dea7f0000000000000000000000000000000000000000000000000000000000000000600a615a8b565b612df49084615a97565b905060008960600151600854601054620f4240612e1191906157cf565b612e1b91906157e7565b612e259085615ad2565b612e2f9190615a97565b600154909150612e579073ffffffffffffffffffffffffffffffffffffffff16333085614cad565b600480546040517fb4f56b2600000000000000000000000000000000000000000000000000000000815233928101929092526024820183905273ffffffffffffffffffffffffffffffffffffffff169063b4f56b26906044015b600060405180830381600087803b158015612ecb57600080fd5b505af1158015612edf573d6000803e3d6000fd5b5050505050505050505050505050565b6013547501000000000000000000000000000000000000000000900460ff1615612f75576040517f08c379a000000000000000000000000000000000000000000000000000000000815260206004820152601960248201527f504f4f4c3a3a52656465656d696e67206973207061757365640000000000000060448201526064016107d1565b600360009054906101000a900473ffffffffffffffffffffffffffffffffffffffff1673ffffffffffffffffffffffffffffffffffffffff16632eb9771b6040518163ffffffff1660e01b8152600401602060405180830381865afa158015612fe2573d6000803e3d6000fd5b505050506040513d601f19601f8201168201806040525081019061300691906157fe565b15613093576040517f08c379a000000000000000000000000000000000000000000000000000000000815260206004820152603660248201527f504f4f4c3a3a72656465656d416c676f726974686d69634445493a20436f6c6c60448201527f61746572616c20726174696f206d75737420626520300000000000000000000060648201526084016107d1565b43831015613123576040517f08c379a000000000000000000000000000000000000000000000000000000000815260206004820152603060248201527f4445493a3a72656465656d416c676f726974686d69634445493a207369676e6160448201527f7475726520697320657870697265642e0000000000000000000000000000000060648201526084016107d1565b60045460009073ffffffffffffffffffffffffffffffffffffffff1685854660405160609490941b7fffffffffffffffffffffffffffffffffffffffff000000000000000000000000166020850152603484019290925260548301526074820152609401604080517fffffffffffffffffffffffffffffffffffffffffffffffffffffffffffffffe08184030181529082905280516020909101206003547f6793f0ac00000000000000000000000000000000000000000000000000000000835290925073ffffffffffffffffffffffffffffffffffffffff1690636793f0ac9061321690849087908790600401615860565b602060405180830381865afa158015613233573d6000803e3d6000fd5b505050506040513d601f19601f820116820180604052508101906132579190615942565b6132e3576040517f08c379a000000000000000000000000000000000000000000000000000000000815260206004820152602e60248201527f504f4f4c3a3a72656465656d416c676f726974686d69634445493a20696e766160448201527f6c6964207369676e61747572657300000000000000000000000000000000000060648201526084016107d1565b6006548690620f4240906132f790826157e7565b6133019083615ad2565b61330b9190615a97565b905060008661331d620f424084615ad2565b6133279190615a97565b336000908152600960205260409020549091506133459082906157cf565b33600090815260096020526040902055600c546133639082906157cf565b600c55336000908152600d60205260409020439055600654620f42409061338a908a615ad2565b6133949190615a97565b601260008282546133a591906157cf565b90915550506003546040517fa8a778ae000000000000000000000000000000000000000000000000000000008152336004820152602481018a905273ffffffffffffffffffffffffffffffffffffffff9091169063a8a778ae90604401600060405180830381600087803b15801561341c57600080fd5b505af1158015613430573d6000803e3d6000fd5b5050600480546040517fb4f56b2600000000000000000000000000000000000000000000000000000000815230928101929092526024820185905273ffffffffffffffffffffffffffffffffffffffff16925063b4f56b269150604401610f77565b6000620f4240826134c47f0000000000000000000000000000000000000000000000000000000000000000600a615a8b565b600b546001546040517f70a0823100000000000000000000000000000000000000000000000000000000815230600482015273ffffffffffffffffffffffffffffffffffffffff909116906370a0823190602401602060405180830381865afa158015613535573d6000803e3d6000fd5b505050506040513d601f19601f8201168201806040525081019061355991906157fe565b61356391906157e7565b61356d9190615ad2565b6135779190615ad2565b6127c59190615a97565b60135477010000000000000000000000000000000000000000000000900460ff161561362e576040517f08c379a0000000000000000000000000000000000000000000000000000000008152602060048201526024808201527f504f4f4c3a3a6275794261636b444555533a204275796261636b20697320706160448201527f757365640000000000000000000000000000000000000000000000000000000060648201526084016107d1565b438310156136be576040517f08c379a000000000000000000000000000000000000000000000000000000000815260206004820152602760248201527f4445493a3a6275794261636b444555533a207369676e6174757265206973206560448201527f7870697265642e0000000000000000000000000000000000000000000000000060648201526084016107d1565b60025460045460009173ffffffffffffffffffffffffffffffffffffffff908116918891168787466040516020016136fb96959493929190615ba2565b604080517fffffffffffffffffffffffffffffffffffffffffffffffffffffffffffffffe08184030181529082905280516020909101206003547f6793f0ac00000000000000000000000000000000000000000000000000000000835290925073ffffffffffffffffffffffffffffffffffffffff1690636793f0ac9061378a90849087908790600401615860565b602060405180830381865afa1580156137a7573d6000803e3d6000fd5b505050506040513d601f19601f820116820180604052508101906137cb9190615942565b613857576040517f08c379a000000000000000000000000000000000000000000000000000000000815260206004820152602560248201527f504f4f4c3a3a6275794261636b444555533a20696e76616c6964207369676e6160448201527f747572657300000000000000000000000000000000000000000000000000000060648201526084016107d1565b6000604051806080016040528061386d896117ee565b81526020018781526020018860018a5161388791906157e7565b8151811061389757613897615d0b565b602002602001015181526020018981525090506000620f4240600754620f42406138c191906157e7565b6013546040517f3c04af9f00000000000000000000000000000000000000000000000000000000815273ffffffffffffffffffffffffffffffffffffffff90911690633c04af9f90613917908790600401615b53565b602060405180830381865afa158015613934573d6000803e3d6000fd5b505050506040513d601f19601f8201168201806040525081019061395891906157fe565b6139629190615ad2565b61396c9190615a97565b9050600061399b7f0000000000000000000000000000000000000000000000000000000000000000600a615a8b565b6139a59083615a97565b600480546040517fa8a778ae0000000000000000000000000000000000000000000000000000000081523392810192909252602482018d905291925073ffffffffffffffffffffffffffffffffffffffff9091169063a8a778ae90604401600060405180830381600087803b158015613a1d57600080fd5b505af1158015613a31573d6000803e3d6000fd5b5050600154613a5a925073ffffffffffffffffffffffffffffffffffffffff1690503383614ad7565b50505050505050505050565b60135460009074010000000000000000000000000000000000000000900460ff1615613aee576040517f08c379a000000000000000000000000000000000000000000000000000000000815260206004820152601760248201527f504f4f4c3a3a4d696e74696e672069732070617573656400000000000000000060448201526064016107d1565b600360009054906101000a900473ffffffffffffffffffffffffffffffffffffffff1673ffffffffffffffffffffffffffffffffffffffff16632eb9771b6040518163ffffffff1660e01b8152600401602060405180830381865afa158015613b5b573d6000803e3d6000fd5b505050506040513d601f19601f82011682018060405250810190613b7f91906157fe565b15613be6576040517f08c379a000000000000000000000000000000000000000000000000000000000815260206004820152601a60248201527f436f6c6c61746572616c20726174696f206d757374206265203000000000000060448201526064016107d1565b43841015613c76576040517f08c379a000000000000000000000000000000000000000000000000000000000815260206004820152602f60248201527f504f4f4c3a3a6d696e74416c676f726974686d69634445493a207369676e617460448201527f75726520697320657870697265642e000000000000000000000000000000000060648201526084016107d1565b60045460009073ffffffffffffffffffffffffffffffffffffffff1686864660405160609490941b7fffffffffffffffffffffffffffffffffffffffff000000000000000000000000166020850152603484019290925260548301526074820152609401604080517fffffffffffffffffffffffffffffffffffffffffffffffffffffffffffffffe08184030181529082905280516020909101206003547f6793f0ac00000000000000000000000000000000000000000000000000000000835290925073ffffffffffffffffffffffffffffffffffffffff1690636793f0ac90613d6990849088908890600401615860565b602060405180830381865afa158015613d86573d6000803e3d6000fd5b505050506040513d601f19601f82011682018060405250810190613daa9190615942565b613e36576040517f08c379a000000000000000000000000000000000000000000000000000000000815260206004820152602c60248201527f504f4f4c3a3a6d696e74416c676f726974686d69634445493a20696e76616c6960448201527f64207369676e617475726573000000000000000000000000000000000000000060648201526084016107d1565b6013546040517f14da4ee1000000000000000000000000000000000000000000000000000000008152600481018890526024810189905273ffffffffffffffffffffffffffffffffffffffff909116906314da4ee190604401602060405180830381865afa158015613eac573d6000803e3d6000fd5b505050506040513d601f19601f82011682018060405250810190613ed091906157fe565b9150620f4240600554620f4240613ee791906157e7565b613ef19084615ad2565b613efb9190615a97565b9150620f424060055483613f0f9190615ad2565b613f199190615a97565b60126000828254613f2a91906157cf565b9091555050600480546040517fa8a778ae00000000000000000000000000000000000000000000000000000000815233928101929092526024820189905273ffffffffffffffffffffffffffffffffffffffff169063a8a778ae90604401600060405180830381600087803b158015613fa257600080fd5b505af1158015613fb6573d6000803e3d6000fd5b50506003546040517fb4f56b260000000000000000000000000000000000000000000000000000000081523360048201526024810186905273ffffffffffffffffffffffffffffffffffffffff909116925063b4f56b269150604401600060405180830381600087803b15801561402c57600080fd5b505af1158015614040573d6000803e3d6000fd5b505050505095945050505050565b60008181526020819052604081206127c590614f06565b60008281526020819052604090206002015461408190336127cb565b6117e4576040517f08c379a000000000000000000000000000000000000000000000000000000000815260206004820152603060248201527f416363657373436f6e74726f6c3a2073656e646572206d75737420626520616e60448201527f2061646d696e20746f207265766f6b650000000000000000000000000000000060648201526084016107d1565b6141377fa84a5389ad41f9aab0831b01e5384cae76e7a7fd09131c206ff7927c201c3857336127cb565b61414057600080fd5b6013805460ff750100000000000000000000000000000000000000000080830482161581027fffffffffffffffffffff00ffffffffffffffffffffffffffffffffffffffffff90931692909217928390556040517f5860c5063a65e23cea4e2e2925f1a841bb6d1bc9615bd425f8dd084980b0514193611ac99390049091161515815260200190565b6141f37f0db189261133fd7647d3308512b693b47bed44004cac80fb59aa64b63a231e2c336127cb565b614259576040517f08c379a000000000000000000000000000000000000000000000000000000000815260206004820152601860248201527f504f4f4c3a3a796f7520617265206e6f7420747275737479000000000000000060448201526064016107d1565b6040517fa9059cbb00000000000000000000000000000000000000000000000000000000815273ffffffffffffffffffffffffffffffffffffffff82811660048301526024820184905284169063a9059cbb906044016020604051808303816000875af11580156142ce573d6000803e3d6000fd5b505050506040513d601f19601f820116820180604052508101906108b69190615942565b6013547501000000000000000000000000000000000000000000900460ff1615614378576040517f08c379a000000000000000000000000000000000000000000000000000000000815260206004820152601960248201527f504f4f4c3a3a52656465656d696e67206973207061757365640000000000000060448201526064016107d1565b600354604080517f2eb9771b000000000000000000000000000000000000000000000000000000008152905160009273ffffffffffffffffffffffffffffffffffffffff1691632eb9771b9160048083019260209291908290030181865afa1580156143e8573d6000803e3d6000fd5b505050506040513d601f19601f8201168201806040525081019061440c91906157fe565b9050620f4240811080156144205750600081115b6144d2576040517f08c379a000000000000000000000000000000000000000000000000000000000815260206004820152605360248201527f504f4f4c3a3a72656465656d4672616374696f6e616c4445493a20436f6c6c6160448201527f746572616c20726174696f206e6565647320746f206265206265747765656e2060648201527f2e30303030303120616e64202e39393939393900000000000000000000000000608482015260a4016107d1565b43841015614562576040517f08c379a000000000000000000000000000000000000000000000000000000000815260206004820152602e60248201527f4445493a3a72656465656d4672616374696f6e616c4445493a207369676e617460448201527f757265206973206578706972656400000000000000000000000000000000000060648201526084016107d1565b600254600454604080517fffffffffffffffffffffffffffffffffffffffff000000000000000000000000606094851b8116602080840191909152603483018c90529390941b909316605484015260688301889052608883018790524660a8808501919091528151808503909101815260c884019182905280519201919091206003547f6793f0ac000000000000000000000000000000000000000000000000000000009092529173ffffffffffffffffffffffffffffffffffffffff90911690636793f0ac9061463b9084908890889060cc01615860565b602060405180830381865afa158015614658573d6000803e3d6000fd5b505050506040513d601f19601f8201168201806040525081019061467c9190615942565b614708576040517f08c379a000000000000000000000000000000000000000000000000000000000815260206004820152602d60248201527f504f4f4c3a3a72656465656d4672616374696f6e616c4445493a20696e76616c60448201527f6964207369676e6174757265730000000000000000000000000000000000000060648201526084016107d1565b60008060008990506000620f4240600654620f424061472791906157e7565b614731908e615ad2565b61473b9190615a97565b90506000620f424061474d8884615ad2565b6147579190615a97565b61476190836157e7565b90508a614771620f424083615ad2565b61477b9190615a97565b945060006147aa7f0000000000000000000000000000000000000000000000000000000000000000600a615a8b565b6147b49084615a97565b90506000620f42406147c68a84615ad2565b6147d09190615a97565b9050846147e0620f424083615ad2565b6147ea9190615a97565b600b546001546040517f70a0823100000000000000000000000000000000000000000000000000000000815230600482015292985090965073ffffffffffffffffffffffffffffffffffffffff1694506370a082319350602401915061484d9050565b602060405180830381865afa15801561486a573d6000803e3d6000fd5b505050506040513d601f19601f8201168201806040525081019061488e91906157fe565b61489891906157e7565b811115614901576040517f08c379a000000000000000000000000000000000000000000000000000000000815260206004820152601d60248201527f4e6f7420656e6f75676820636f6c6c61746572616c20696e20706f6f6c00000060448201526064016107d1565b336000908152600a602052604090205461491c9082906157cf565b336000908152600a6020526040902055600b5461493a9082906157cf565b600b55336000908152600960205260409020546149589083906157cf565b33600090815260096020526040902055600c546149769083906157cf565b600c55336000908152600d60205260409020439055600654620f42409061499d908c615ad2565b6149a79190615a97565b601260008282546149b891906157cf565b90915550506003546040517fa8a778ae000000000000000000000000000000000000000000000000000000008152336004820152602481018c905273ffffffffffffffffffffffffffffffffffffffff9091169063a8a778ae90604401600060405180830381600087803b158015614a2f57600080fd5b505af1158015614a43573d6000803e3d6000fd5b5050600480546040517fb4f56b2600000000000000000000000000000000000000000000000000000000815230928101929092526024820186905273ffffffffffffffffffffffffffffffffffffffff16925063b4f56b269150604401612eb1565b60006127c2837fffffffffffffffffffffffffffffffffffffffff000000000000000000000000606085901b16614f10565b6040805173ffffffffffffffffffffffffffffffffffffffff8481166024830152604480830185905283518084039091018152606490920183526020820180517bffffffffffffffffffffffffffffffffffffffffffffffffffffffff167fa9059cbb000000000000000000000000000000000000000000000000000000001790529151600092839290871691614b6e9190615d3a565b6000604051808303816000865af19150503d8060008114614bab576040519150601f19603f3d011682016040523d82523d6000602084013e614bb0565b606091505b5091509150818015614bda575080511580614bda575080806020019051810190614bda9190615942565b614c40576040517f08c379a000000000000000000000000000000000000000000000000000000000815260206004820152601f60248201527f5472616e7366657248656c7065723a205452414e534645525f4641494c45440060448201526064016107d1565b5050505050565b6000828152602081905260409020614c5f9082614aa5565b1561106557604051339073ffffffffffffffffffffffffffffffffffffffff83169084907f2f8788117e7eff1d82e926ec794901d17c78024a50270940304540a733656f0d90600090a45050565b6040805173ffffffffffffffffffffffffffffffffffffffff85811660248301528481166044830152606480830185905283518084039091018152608490920183526020820180517bffffffffffffffffffffffffffffffffffffffffffffffffffffffff167f23b872dd000000000000000000000000000000000000000000000000000000001790529151600092839290881691614d4c9190615d3a565b6000604051808303816000865af19150503d8060008114614d89576040519150601f19603f3d011682016040523d82523d6000602084013e614d8e565b606091505b5091509150818015614db8575080511580614db8575080806020019051810190614db89190615942565b614e43576040517f08c379a0000000000000000000000000000000000000000000000000000000008152602060048201526024808201527f5472616e7366657248656c7065723a205452414e534645525f46524f4d5f464160448201527f494c45440000000000000000000000000000000000000000000000000000000060648201526084016107d1565b505050505050565b6000828152602081905260409020614e639082614f5f565b1561106557604051339073ffffffffffffffffffffffffffffffffffffffff83169084907ff6391f5c32d9c69d2a47ea670b442974b53935d1edc7fd64eb21e047a839171b90600090a45050565b6000614ebd8383614f91565b60601c9392505050565b606081901b7fffffffffffffffffffffffffffffffffffffffff00000000000000000000000016600090815260018301602052604081205415156127c2565b60006127c5825490565b6000818152600183016020526040812054614f57575081546001818101845560008481526020808220909301849055845484825282860190935260409020919091556127c5565b5060006127c5565b60006127c2837fffffffffffffffffffffffffffffffffffffffff000000000000000000000000606085901b1661504c565b81546000908210615024576040517f08c379a000000000000000000000000000000000000000000000000000000000815260206004820152602260248201527f456e756d657261626c655365743a20696e646578206f7574206f6620626f756e60448201527f647300000000000000000000000000000000000000000000000000000000000060648201526084016107d1565b82600001828154811061503957615039615d0b565b9060005260206000200154905092915050565b600081815260018301602052604081205480156151355760006150706001836157e7565b8554909150600090615084906001906157e7565b9050600086600001828154811061509d5761509d615d0b565b90600052602060002001549050808760000184815481106150c0576150c0615d0b565b6000918252602090912001556150d78360016157cf565b600082815260018901602052604090205586548790806150f9576150f9615d56565b600190038181906000526020600020016000905590558660010160008781526020019081526020016000206000905560019450505050506127c5565b60009150506127c5565b803573ffffffffffffffffffffffffffffffffffffffff8116811461516357600080fd5b919050565b60006020828403121561517a57600080fd5b6127c28261513f565b60006020828403121561519557600080fd5b5035919050565b60008083601f8401126151ae57600080fd5b50813567ffffffffffffffff8111156151c657600080fd5b6020830191508360208260051b85010111156151e157600080fd5b9250929050565b60008060008060006080868803121561520057600080fd5b853594506020860135935060408601359250606086013567ffffffffffffffff81111561522c57600080fd5b6152388882890161519c565b969995985093965092949392505050565b6000806040838503121561525c57600080fd5b8235915061526c6020840161513f565b90509250929050565b7f4e487b7100000000000000000000000000000000000000000000000000000000600052604160045260246000fd5b60405160c0810167ffffffffffffffff811182821017156152c7576152c7615275565b60405290565b604051601f82017fffffffffffffffffffffffffffffffffffffffffffffffffffffffffffffffe016810167ffffffffffffffff8111828210171561531457615314615275565b604052919050565b600067ffffffffffffffff82111561533657615336615275565b5060051b60200190565b600082601f83011261535157600080fd5b813560206153666153618361531c565b6152cd565b82815260059290921b8401810191818101908684111561538557600080fd5b8286015b848110156153a05780358352918301918301615389565b509695505050505050565b6000602082840312156153bd57600080fd5b813567ffffffffffffffff8111156153d457600080fd5b6153e084828501615340565b949350505050565b600080600080600080600060e0888a03121561540357600080fd5b505085359760208701359750604087013596606081013596506080810135955060a0810135945060c0013592509050565b600080600080600080600060c0888a03121561544f57600080fd5b873596506020880135955060408801359450606088013593506080880135925060a088013567ffffffffffffffff81111561548957600080fd5b6154958a828b0161519c565b989b979a50959850939692959293505050565b600080604083850312156154bb57600080fd5b50508035926020909101359150565b6000601f83818401126154dc57600080fd5b823560206154ec6153618361531c565b82815260059290921b8501810191818101908784111561550b57600080fd5b8287015b848110156155c057803567ffffffffffffffff808211156155305760008081fd5b818a0191508a603f8301126155455760008081fd5b8582013560408282111561555b5761555b615275565b61558a887fffffffffffffffffffffffffffffffffffffffffffffffffffffffffffffffe08c850116016152cd565b92508183528c818386010111156155a15760008081fd5b818185018985013750600090820187015284525091830191830161550f565b50979650505050505050565b6000602082840312156155de57600080fd5b813567ffffffffffffffff808211156155f657600080fd5b9083019060c0828603121561560a57600080fd5b6156126152a4565b823581526020830135602082015260408301358281111561563257600080fd5b61563e87828601615340565b604083015250606083013560608201526080830135608082015260a08301358281111561566a57600080fd5b615676878286016154ca565b60a08301525095945050505050565b60008060008060008060a0878903121561569e57600080fd5b86359550602087013567ffffffffffffffff808211156156bd57600080fd5b6156c98a838b01615340565b9650604089013595506060890135945060808901359150808211156156ed57600080fd5b506156fa89828a0161519c565b979a9699509497509295939492505050565b60008060006060848603121561572157600080fd5b61572a8461513f565b92506020840135915061573f6040850161513f565b90509250925092565b60008060008060008060a0878903121561576157600080fd5b86359550602087013594506040870135935060608701359250608087013567ffffffffffffffff81111561579457600080fd5b6156fa89828a0161519c565b7f4e487b7100000000000000000000000000000000000000000000000000000000600052601160045260246000fd5b600082198211156157e2576157e26157a0565b500190565b6000828210156157f9576157f96157a0565b500390565b60006020828403121561581057600080fd5b5051919050565b8183528181602085013750600060208284010152600060207fffffffffffffffffffffffffffffffffffffffffffffffffffffffffffffffe0601f840116840101905092915050565b60006040820185835260206040818501528185835260608501905060608660051b86010192508660005b87811015615934577fffffffffffffffffffffffffffffffffffffffffffffffffffffffffffffffa087860301835281357fffffffffffffffffffffffffffffffffffffffffffffffffffffffffffffffe18a36030181126158eb57600080fd5b8901803567ffffffffffffffff81111561590457600080fd5b8036038b131561591357600080fd5b6159208782888501615817565b96505050918301919083019060010161588a565b509298975050505050505050565b60006020828403121561595457600080fd5b8151801515811461596457600080fd5b9392505050565b600181815b808511156159c457817fffffffffffffffffffffffffffffffffffffffffffffffffffffffffffffffff048211156159aa576159aa6157a0565b808516156159b757918102915b93841c9390800290615970565b509250929050565b6000826159db575060016127c5565b816159e8575060006127c5565b81600181146159fe5760028114615a0857615a24565b60019150506127c5565b60ff841115615a1957615a196157a0565b50506001821b6127c5565b5060208310610133831016604e8410600b8410161715615a47575081810a6127c5565b615a51838361596b565b807fffffffffffffffffffffffffffffffffffffffffffffffffffffffffffffffff04821115615a8357615a836157a0565b029392505050565b60006127c283836159cc565b600082615acd577f4e487b7100000000000000000000000000000000000000000000000000000000600052601260045260246000fd5b500490565b6000817fffffffffffffffffffffffffffffffffffffffffffffffffffffffffffffffff0483118215151615615b0a57615b0a6157a0565b500290565b6020808252825182820181905260009190848201906040850190845b81811015615b4757835183529284019291840191600101615b2b565b50909695505050505050565b81518152602080830151908201526040808301519082015260608083015190820152608081016127c5565b60008060408385031215615b9157600080fd5b505080516020909101519092909150565b60007fffffffffffffffffffffffffffffffffffffffff000000000000000000000000808960601b1683526014830188516020808b0160005b83811015615bf757815185529382019390820190600101615bdb565b5050505060609790971b168652505060148401929092526034830152605482015260740192915050565b60005b83811015615c3c578181015183820152602001615c24565b838111156108b65750506000910152565b600060408201848352602060408185015281855180845260608601915060608160051b870101935082870160005b82811015615cfd577fffffffffffffffffffffffffffffffffffffffffffffffffffffffffffffffa088870301845281518051808852615cc081888a01898501615c21565b601f017fffffffffffffffffffffffffffffffffffffffffffffffffffffffffffffffe01696909601850195509284019290840190600101615c7b565b509398975050505050505050565b7f4e487b7100000000000000000000000000000000000000000000000000000000600052603260045260246000fd5b60008251615d4c818460208701615c21565b9190910192915050565b7f4e487b7100000000000000000000000000000000000000000000000000000000600052603160045260246000fdfea2646970667358221220c79b153746533a6df153629c30a0770abe2f4bca6a754b070e2bc583ce406e7764736f6c634300080a0033",
  "linkReferences": {},
  "deployedLinkReferences": {}
}