{
  "_format": "hh-sol-artifact-1",
  "contractName": "Staking",
  "sourceName": "contracts/Staking/Staking.sol",
  "abi": [
    {
      "inputs": [
        {
          "internalType": "address",
          "name": "_stakedToken",
          "type": "address"
        },
        {
          "internalType": "address",
          "name": "_rewardToken",
          "type": "address"
        },
        {
          "internalType": "uint256",
          "name": "_rewardPerBlock",
          "type": "uint256"
        },
        {
          "internalType": "uint256",
          "name": "_daoShare",
          "type": "uint256"
        },
        {
          "internalType": "uint256",
          "name": "_earlyFoundersShare",
          "type": "uint256"
        },
        {
          "internalType": "address",
          "name": "_daoWallet",
          "type": "address"
        },
        {
          "internalType": "address",
          "name": "_earlyFoundersWallet",
          "type": "address"
        },
        {
          "internalType": "address",
          "name": "_rewardPerBlockSetter",
          "type": "address"
        }
      ],
      "stateMutability": "nonpayable",
      "type": "constructor"
    },
    {
      "anonymous": false,
      "inputs": [
        {
          "indexed": false,
          "internalType": "address",
          "name": "user",
          "type": "address"
        },
        {
          "indexed": false,
          "internalType": "uint256",
          "name": "amount",
          "type": "uint256"
        }
      ],
      "name": "Deposit",
      "type": "event"
    },
    {
      "anonymous": false,
      "inputs": [
        {
          "indexed": false,
          "internalType": "address",
          "name": "user",
          "type": "address"
        },
        {
          "indexed": false,
          "internalType": "uint256",
          "name": "amount",
          "type": "uint256"
        }
      ],
      "name": "EmergencyWithdraw",
      "type": "event"
    },
    {
      "anonymous": false,
      "inputs": [
        {
          "indexed": false,
          "internalType": "address",
          "name": "user",
          "type": "address"
        },
        {
          "indexed": false,
          "internalType": "uint256",
          "name": "amount",
          "type": "uint256"
        }
      ],
      "name": "RewardClaimed",
      "type": "event"
    },
    {
      "anonymous": false,
      "inputs": [
        {
          "indexed": false,
          "internalType": "uint256",
          "name": "oldValue",
          "type": "uint256"
        },
        {
          "indexed": false,
          "internalType": "uint256",
          "name": "newValue",
          "type": "uint256"
        }
      ],
      "name": "RewardPerBlockChanged",
      "type": "event"
    },
    {
      "anonymous": false,
      "inputs": [
        {
          "indexed": true,
          "internalType": "bytes32",
          "name": "role",
          "type": "bytes32"
        },
        {
          "indexed": true,
          "internalType": "bytes32",
          "name": "previousAdminRole",
          "type": "bytes32"
        },
        {
          "indexed": true,
          "internalType": "bytes32",
          "name": "newAdminRole",
          "type": "bytes32"
        }
      ],
      "name": "RoleAdminChanged",
      "type": "event"
    },
    {
      "anonymous": false,
      "inputs": [
        {
          "indexed": true,
          "internalType": "bytes32",
          "name": "role",
          "type": "bytes32"
        },
        {
          "indexed": true,
          "internalType": "address",
          "name": "account",
          "type": "address"
        },
        {
          "indexed": true,
          "internalType": "address",
          "name": "sender",
          "type": "address"
        }
      ],
      "name": "RoleGranted",
      "type": "event"
    },
    {
      "anonymous": false,
      "inputs": [
        {
          "indexed": true,
          "internalType": "bytes32",
          "name": "role",
          "type": "bytes32"
        },
        {
          "indexed": true,
          "internalType": "address",
          "name": "account",
          "type": "address"
        },
        {
          "indexed": true,
          "internalType": "address",
          "name": "sender",
          "type": "address"
        }
      ],
      "name": "RoleRevoked",
      "type": "event"
    },
    {
      "anonymous": false,
      "inputs": [
        {
          "indexed": false,
          "internalType": "uint256",
          "name": "_daoShare",
          "type": "uint256"
        },
        {
          "indexed": false,
          "internalType": "uint256",
          "name": "_earlyFoundersShare",
          "type": "uint256"
        }
      ],
      "name": "SharesSet",
      "type": "event"
    },
    {
      "anonymous": false,
      "inputs": [
        {
          "indexed": false,
          "internalType": "address",
          "name": "_stakedToken",
          "type": "address"
        }
      ],
      "name": "StakedTokenSet",
      "type": "event"
    },
    {
      "anonymous": false,
      "inputs": [
        {
          "indexed": false,
          "internalType": "address",
          "name": "_daoWallet",
          "type": "address"
        },
        {
          "indexed": false,
          "internalType": "address",
          "name": "_earlyFoundersWallet",
          "type": "address"
        }
      ],
      "name": "WalletsSet",
      "type": "event"
    },
    {
      "anonymous": false,
      "inputs": [
        {
          "indexed": false,
          "internalType": "address",
          "name": "user",
          "type": "address"
        },
        {
          "indexed": false,
          "internalType": "uint256",
          "name": "amount",
          "type": "uint256"
        }
      ],
      "name": "Withdraw",
      "type": "event"
    },
    {
      "anonymous": false,
      "inputs": [
        {
          "indexed": false,
          "internalType": "uint256",
          "name": "_earlyFoundersShare",
          "type": "uint256"
        },
        {
          "indexed": false,
          "internalType": "uint256",
          "name": "_daoShare",
          "type": "uint256"
        }
      ],
      "name": "WithdrawParticleCollectorAmount",
      "type": "event"
    },
    {
      "anonymous": false,
      "inputs": [
        {
          "indexed": false,
          "internalType": "uint256",
          "name": "totalStakedTokens",
          "type": "uint256"
        },
        {
          "indexed": false,
          "internalType": "address",
          "name": "to",
          "type": "address"
        }
      ],
      "name": "withdrawStakedtokens",
      "type": "event"
    },
    {
      "inputs": [],
      "name": "DEFAULT_ADMIN_ROLE",
      "outputs": [
        {
          "internalType": "bytes32",
          "name": "",
          "type": "bytes32"
        }
      ],
      "stateMutability": "view",
      "type": "function"
    },
    {
      "inputs": [],
      "name": "REWARD_PER_BLOCK_SETTER",
      "outputs": [
        {
          "internalType": "bytes32",
          "name": "",
          "type": "bytes32"
        }
      ],
      "stateMutability": "view",
      "type": "function"
    },
    {
      "inputs": [],
      "name": "TRUSTY_ROLE",
      "outputs": [
        {
          "internalType": "bytes32",
          "name": "",
          "type": "bytes32"
        }
      ],
      "stateMutability": "view",
      "type": "function"
    },
    {
      "inputs": [],
      "name": "daoShare",
      "outputs": [
        {
          "internalType": "uint256",
          "name": "",
          "type": "uint256"
        }
      ],
      "stateMutability": "view",
      "type": "function"
    },
    {
      "inputs": [],
      "name": "daoWallet",
      "outputs": [
        {
          "internalType": "address",
          "name": "",
          "type": "address"
        }
      ],
      "stateMutability": "view",
      "type": "function"
    },
    {
      "inputs": [
        {
          "internalType": "uint256",
          "name": "amount",
          "type": "uint256"
        }
      ],
      "name": "deposit",
      "outputs": [],
      "stateMutability": "nonpayable",
      "type": "function"
    },
    {
      "inputs": [
        {
          "internalType": "address",
          "name": "_user",
          "type": "address"
        },
        {
          "internalType": "uint256",
          "name": "amount",
          "type": "uint256"
        }
      ],
      "name": "depositFor",
      "outputs": [],
      "stateMutability": "nonpayable",
      "type": "function"
    },
    {
      "inputs": [],
      "name": "earlyFoundersShare",
      "outputs": [
        {
          "internalType": "uint256",
          "name": "",
          "type": "uint256"
        }
      ],
      "stateMutability": "view",
      "type": "function"
    },
    {
      "inputs": [],
      "name": "earlyFoundersWallet",
      "outputs": [
        {
          "internalType": "address",
          "name": "",
          "type": "address"
        }
      ],
      "stateMutability": "view",
      "type": "function"
    },
    {
      "inputs": [],
      "name": "emergencyWithdraw",
      "outputs": [],
      "stateMutability": "nonpayable",
      "type": "function"
    },
    {
      "inputs": [
        {
          "internalType": "address",
          "name": "to",
          "type": "address"
        },
        {
          "internalType": "address",
          "name": "_token",
          "type": "address"
        },
        {
          "internalType": "uint256",
          "name": "amount",
          "type": "uint256"
        }
      ],
      "name": "emergencyWithdrawERC20",
      "outputs": [],
      "stateMutability": "nonpayable",
      "type": "function"
    },
    {
      "inputs": [
        {
          "internalType": "address payable",
          "name": "to",
          "type": "address"
        },
        {
          "internalType": "uint256",
          "name": "amount",
          "type": "uint256"
        }
      ],
      "name": "emergencyWithdrawETH",
      "outputs": [],
      "stateMutability": "nonpayable",
      "type": "function"
    },
    {
      "inputs": [
        {
          "internalType": "bytes32",
          "name": "role",
          "type": "bytes32"
        }
      ],
      "name": "getRoleAdmin",
      "outputs": [
        {
          "internalType": "bytes32",
          "name": "",
          "type": "bytes32"
        }
      ],
      "stateMutability": "view",
      "type": "function"
    },
    {
      "inputs": [
        {
          "internalType": "bytes32",
          "name": "role",
          "type": "bytes32"
        },
        {
          "internalType": "uint256",
          "name": "index",
          "type": "uint256"
        }
      ],
      "name": "getRoleMember",
      "outputs": [
        {
          "internalType": "address",
          "name": "",
          "type": "address"
        }
      ],
      "stateMutability": "view",
      "type": "function"
    },
    {
      "inputs": [
        {
          "internalType": "bytes32",
          "name": "role",
          "type": "bytes32"
        }
      ],
      "name": "getRoleMemberCount",
      "outputs": [
        {
          "internalType": "uint256",
          "name": "",
          "type": "uint256"
        }
      ],
      "stateMutability": "view",
      "type": "function"
    },
    {
      "inputs": [
        {
          "internalType": "bytes32",
          "name": "role",
          "type": "bytes32"
        },
        {
          "internalType": "address",
          "name": "account",
          "type": "address"
        }
      ],
      "name": "grantRole",
      "outputs": [],
      "stateMutability": "nonpayable",
      "type": "function"
    },
    {
      "inputs": [
        {
          "internalType": "bytes32",
          "name": "role",
          "type": "bytes32"
        },
        {
          "internalType": "address",
          "name": "account",
          "type": "address"
        }
      ],
      "name": "hasRole",
      "outputs": [
        {
          "internalType": "bool",
          "name": "",
          "type": "bool"
        }
      ],
      "stateMutability": "view",
      "type": "function"
    },
    {
      "inputs": [],
      "name": "lastUpdatedBlock",
      "outputs": [
        {
          "internalType": "uint256",
          "name": "",
          "type": "uint256"
        }
      ],
      "stateMutability": "view",
      "type": "function"
    },
    {
      "inputs": [],
      "name": "particleCollector",
      "outputs": [
        {
          "internalType": "uint256",
          "name": "",
          "type": "uint256"
        }
      ],
      "stateMutability": "view",
      "type": "function"
    },
    {
      "inputs": [
        {
          "internalType": "address",
          "name": "_user",
          "type": "address"
        }
      ],
      "name": "pendingReward",
      "outputs": [
        {
          "internalType": "uint256",
          "name": "reward",
          "type": "uint256"
        }
      ],
      "stateMutability": "view",
      "type": "function"
    },
    {
      "inputs": [
        {
          "internalType": "bytes32",
          "name": "role",
          "type": "bytes32"
        },
        {
          "internalType": "address",
          "name": "account",
          "type": "address"
        }
      ],
      "name": "renounceRole",
      "outputs": [],
      "stateMutability": "nonpayable",
      "type": "function"
    },
    {
      "inputs": [
        {
          "internalType": "bytes32",
          "name": "role",
          "type": "bytes32"
        },
        {
          "internalType": "address",
          "name": "account",
          "type": "address"
        }
      ],
      "name": "revokeRole",
      "outputs": [],
      "stateMutability": "nonpayable",
      "type": "function"
    },
    {
      "inputs": [],
      "name": "rewardPerBlock",
      "outputs": [
        {
          "internalType": "uint256",
          "name": "",
          "type": "uint256"
        }
      ],
      "stateMutability": "view",
      "type": "function"
    },
    {
      "inputs": [],
      "name": "rewardTillNowPerToken",
      "outputs": [
        {
          "internalType": "uint256",
          "name": "",
          "type": "uint256"
        }
      ],
      "stateMutability": "view",
      "type": "function"
    },
    {
      "inputs": [],
      "name": "rewardToken",
      "outputs": [
        {
          "internalType": "address",
          "name": "",
          "type": "address"
        }
      ],
      "stateMutability": "view",
      "type": "function"
    },
    {
      "inputs": [],
      "name": "scale",
      "outputs": [
        {
          "internalType": "uint256",
          "name": "",
          "type": "uint256"
        }
      ],
      "stateMutability": "view",
      "type": "function"
    },
    {
      "inputs": [
        {
          "internalType": "uint256",
          "name": "_rewardPerBlock",
          "type": "uint256"
        }
      ],
      "name": "setRewardPerBlock",
      "outputs": [],
      "stateMutability": "nonpayable",
      "type": "function"
    },
    {
      "inputs": [
        {
          "internalType": "uint256",
          "name": "_daoShare",
          "type": "uint256"
        },
        {
          "internalType": "uint256",
          "name": "_earlyFoundersShare",
          "type": "uint256"
        }
      ],
      "name": "setShares",
      "outputs": [],
      "stateMutability": "nonpayable",
      "type": "function"
    },
    {
      "inputs": [
        {
          "internalType": "address",
          "name": "_stakedToken",
          "type": "address"
        }
      ],
      "name": "setStakedToken",
      "outputs": [],
      "stateMutability": "nonpayable",
      "type": "function"
    },
    {
      "inputs": [
        {
          "internalType": "address",
          "name": "_daoWallet",
          "type": "address"
        },
        {
          "internalType": "address",
          "name": "_earlyFoundersWallet",
          "type": "address"
        }
      ],
      "name": "setWallets",
      "outputs": [],
      "stateMutability": "nonpayable",
      "type": "function"
    },
    {
      "inputs": [],
      "name": "stakedToken",
      "outputs": [
        {
          "internalType": "address",
          "name": "",
          "type": "address"
        }
      ],
      "stateMutability": "view",
      "type": "function"
    },
    {
      "inputs": [],
      "name": "totalStakedToken",
      "outputs": [
        {
          "internalType": "uint256",
          "name": "",
          "type": "uint256"
        }
      ],
      "stateMutability": "view",
      "type": "function"
    },
    {
      "inputs": [],
      "name": "update",
      "outputs": [],
      "stateMutability": "nonpayable",
      "type": "function"
    },
    {
      "inputs": [
        {
          "internalType": "address",
          "name": "",
          "type": "address"
        }
      ],
      "name": "users",
      "outputs": [
        {
          "internalType": "uint256",
          "name": "depositAmount",
          "type": "uint256"
        },
        {
          "internalType": "uint256",
          "name": "paidReward",
          "type": "uint256"
        }
      ],
      "stateMutability": "view",
      "type": "function"
    },
    {
      "inputs": [
        {
          "internalType": "uint256",
          "name": "amount",
          "type": "uint256"
        }
      ],
      "name": "withdraw",
      "outputs": [],
      "stateMutability": "nonpayable",
      "type": "function"
    },
    {
      "inputs": [
        {
          "internalType": "address",
          "name": "to",
          "type": "address"
        }
      ],
      "name": "withdrawAllStakedtokens",
      "outputs": [],
      "stateMutability": "nonpayable",
      "type": "function"
    },
    {
      "inputs": [],
      "name": "withdrawParticleCollector",
      "outputs": [],
      "stateMutability": "nonpayable",
      "type": "function"
    }
  ],
  "bytecode": "0x60806040526000600255670de0b6b3a764000060055560006006556001600b553480156200002c57600080fd5b50604051620022a9380380620022a98339810160408190526200004f91620002d6565b6001600160a01b038816158015906200007057506001600160a01b03871615155b80156200008557506001600160a01b03831615155b80156200009a57506001600160a01b03821615155b620000ff5760405162461bcd60e51b815260206004820152602b60248201527f5354414b494e473a3a636f6e7374727563746f723a205a65726f20616464726560448201526a1cdcc819195d1958dd195960aa1b606482015260840160405180910390fd5b6200010c600033620001cb565b620001387fee33494882c15ef16fd46d90287d1d71c5808d5681b5d0ee0567fbc8f9b0100b82620001cb565b620001647f0db189261133fd7647d3308512b693b47bed44004cac80fb59aa64b63a231e2c33620001cb565b50600c80546001600160a01b039889166001600160a01b031991821617909155600d8054978916978216979097179096556004949094556007929092556008554360035560098054918516918416919091179055600a805491909316911617905562000363565b620001d78282620001db565b5050565b60008281526020818152604090912062000200918390620017e062000242821b17901c565b15620001d75760405133906001600160a01b0383169084907f2f8788117e7eff1d82e926ec794901d17c78024a50270940304540a733656f0d90600090a45050565b60006200025e836001600160601b0319606085901b1662000267565b90505b92915050565b6000818152600183016020526040812054620002b05750815460018181018455600084815260208082209093018490558454848252828601909352604090209190915562000261565b50600062000261565b80516001600160a01b0381168114620002d157600080fd5b919050565b600080600080600080600080610100898b031215620002f457600080fd5b620002ff89620002b9565b97506200030f60208a01620002b9565b96506040890151955060608901519450608089015193506200033460a08a01620002b9565b92506200034460c08a01620002b9565b91506200035460e08a01620002b9565b90509295985092959890939650565b611f3680620003736000396000f3fe608060405234801561001057600080fd5b50600436106102775760003560e01c8063995d9b6011610160578063cc7a262e116100d8578063db2e21bc1161008c578063f51e181a11610071578063f51e181a1461056c578063f7c618c114610575578063f90ce5ba1461059557600080fd5b8063db2e21bc14610551578063f40f0f521461055957600080fd5b8063d3f6a157116100bd578063d3f6a15714610518578063d547741f1461052b578063d79e85671461053e57600080fd5b8063cc7a262e146104e5578063cee66f631461050557600080fd5b8063a87430ba1161012f578063bb872b4a11610114578063bb872b4a146104b6578063ca15c873146104c9578063cb6d8ee6146104dc57600080fd5b8063a87430ba14610467578063b6b55f25146104a357600080fd5b8063995d9b6014610427578063a217fddf14610430578063a2e6204514610438578063a43c7e7e1461044057600080fd5b806352e9c6d4116101f357806388d19f1b116101c25780639010d07c116101a75780639010d07c146103e957806391d14854146103fc5780639378c6d41461041f57600080fd5b806388d19f1b146103d75780638ae39cac146103e057600080fd5b806352e9c6d41461038857806355b8fb811461039b57806360c6cdac146103ae578063698a5897146103b757600080fd5b80632f2ff15d1161024a57806334ddb95d1161022f57806334ddb95d1461034557806336568abe1461036c578063481af4aa1461037f57600080fd5b80632f2ff15d1461031f5780632f4f21e21461033257600080fd5b8063079a57051461027c578063248a9ca3146102c65780632aca3e7d146102f75780632e1a7d4d1461030c575b600080fd5b600a5461029c9073ffffffffffffffffffffffffffffffffffffffff1681565b60405173ffffffffffffffffffffffffffffffffffffffff90911681526020015b60405180910390f35b6102e96102d4366004611c45565b60009081526020819052604090206002015490565b6040519081526020016102bd565b61030a610305366004611c5e565b61059e565b005b61030a61031a366004611c45565b610683565b61030a61032d366004611ca2565b6108c9565b61030a610340366004611cd2565b61097f565b6102e97f0db189261133fd7647d3308512b693b47bed44004cac80fb59aa64b63a231e2c81565b61030a61037a366004611ca2565b610b29565b6102e960085481565b61030a610396366004611cfe565b610bd8565b61030a6103a9366004611d22565b610ce1565b6102e960025481565b60095461029c9073ffffffffffffffffffffffffffffffffffffffff1681565b6102e960075481565b6102e960045481565b61029c6103f7366004611c5e565b610e10565b61040f61040a366004611ca2565b610e31565b60405190151581526020016102bd565b61030a610e49565b6102e960065481565b6102e9600081565b61030a610ffc565b6102e97fee33494882c15ef16fd46d90287d1d71c5808d5681b5d0ee0567fbc8f9b0100b81565b61048e610475366004611cfe565b6001602081905260009182526040909120805491015482565b604080519283526020830191909152016102bd565b61030a6104b1366004611c45565b611058565b61030a6104c4366004611c45565b611065565b6102e96104d7366004611c45565b611166565b6102e9600b5481565b600c5461029c9073ffffffffffffffffffffffffffffffffffffffff1681565b61030a610513366004611cfe565b61117d565b61030a610526366004611d63565b611390565b61030a610539366004611ca2565b6114ac565b61030a61054c366004611cd2565b611554565b61030a61162c565b6102e9610567366004611cfe565b611735565b6102e960055481565b600d5461029c9073ffffffffffffffffffffffffffffffffffffffff1681565b6102e960035481565b6105c87f0db189261133fd7647d3308512b693b47bed44004cac80fb59aa64b63a231e2c33610e31565b610633576040517f08c379a000000000000000000000000000000000000000000000000000000000815260206004820181905260248201527f5354414b494e473a3a2043616c6c6572206973206e6f7420612074727573747960448201526064015b60405180910390fd5b61063b610e49565b6007829055600881905560408051838152602081018390527f635fab9ef42704636ceacfc3756d45c820dc77e2b15e0f46d436e9ec6f5a708991015b60405180910390a15050565b3360009081526001602052604090208054821115610723576040517f08c379a000000000000000000000000000000000000000000000000000000000815260206004820152603b60248201527f5354414b494e473a3a77697468647261773a20776974686472617720616d6f7560448201527f6e742065786365656473206465706f736974656420616d6f756e740000000000606482015260840161062a565b61072b610ffc565b6000816001015460055460025484600001546107479190611dc0565b6107519190611dfd565b61075b9190611e38565b90506107673382611812565b600060055460085460075461077c9190611e4f565b6107869084611dc0565b6107909190611dfd565b9050806006546107a09190611e4f565b600655831561089f5782546107b6908590611e38565b8355600c546040517fa9059cbb0000000000000000000000000000000000000000000000000000000081523360048201526024810186905273ffffffffffffffffffffffffffffffffffffffff9091169063a9059cbb906044016020604051808303816000875af115801561082f573d6000803e3d6000fd5b505050506040513d601f19601f820116820180604052508101906108539190611e67565b5083600b546108629190611e38565b600b5560408051338152602081018690527f884edad9ce6fa2440d8a54cc123490eb96d2768479d49ff9c7366125a9424364910160405180910390a15b60055460025484546108b19190611dc0565b6108bb9190611dfd565b836001018190555050505050565b6000828152602081905260409020600201546108e59033610e31565b610971576040517f08c379a000000000000000000000000000000000000000000000000000000000815260206004820152602f60248201527f416363657373436f6e74726f6c3a2073656e646572206d75737420626520616e60448201527f2061646d696e20746f206772616e740000000000000000000000000000000000606482015260840161062a565b61097b82826118eb565b5050565b73ffffffffffffffffffffffffffffffffffffffff821660009081526001602052604090206109ac610ffc565b8054156109f1576000816001015460055460025484600001546109cf9190611dc0565b6109d99190611dfd565b6109e39190611e38565b90506109ef8482611812565b505b80546109fe908390611e4f565b8082556005546002549091610a139190611dc0565b610a1d9190611dfd565b6001820155600c546040517f23b872dd0000000000000000000000000000000000000000000000000000000081523360048201523060248201526044810184905273ffffffffffffffffffffffffffffffffffffffff909116906323b872dd906064016020604051808303816000875af1158015610a9f573d6000803e3d6000fd5b505050506040513d601f19601f82011682018060405250810190610ac39190611e67565b5081600b54610ad29190611e4f565b600b556040805173ffffffffffffffffffffffffffffffffffffffff85168152602081018490527fe1fffcc4923d04b559f4d29a8bfc6cda04eb5b0d3c460751c2402c5c5cc9109c910160405180910390a1505050565b73ffffffffffffffffffffffffffffffffffffffff81163314610bce576040517f08c379a000000000000000000000000000000000000000000000000000000000815260206004820152602f60248201527f416363657373436f6e74726f6c3a2063616e206f6e6c792072656e6f756e636560448201527f20726f6c657320666f722073656c660000000000000000000000000000000000606482015260840161062a565b61097b8282611951565b610c027f0db189261133fd7647d3308512b693b47bed44004cac80fb59aa64b63a231e2c33610e31565b610c68576040517f08c379a000000000000000000000000000000000000000000000000000000000815260206004820181905260248201527f5354414b494e473a3a2043616c6c6572206973206e6f74206120747275737479604482015260640161062a565b600c80547fffffffffffffffffffffffff00000000000000000000000000000000000000001673ffffffffffffffffffffffffffffffffffffffff83169081179091556040519081527f793c5d6d63836324edea9ae9eb434d37862194427d3060862215257245a0c9299060200160405180910390a150565b610d0b7f0db189261133fd7647d3308512b693b47bed44004cac80fb59aa64b63a231e2c33610e31565b610d71576040517f08c379a000000000000000000000000000000000000000000000000000000000815260206004820181905260248201527f5354414b494e473a3a2043616c6c6572206973206e6f74206120747275737479604482015260640161062a565b6040517fa9059cbb00000000000000000000000000000000000000000000000000000000815273ffffffffffffffffffffffffffffffffffffffff84811660048301526024820183905283169063a9059cbb906044016020604051808303816000875af1158015610de6573d6000803e3d6000fd5b505050506040513d601f19601f82011682018060405250810190610e0a9190611e67565b50505050565b6000828152602081905260408120610e2890836119b7565b90505b92915050565b6000828152602081905260408120610e2890836119cd565b6000600854600754610e5b9190611e4f565b600754600654610e6b9190611dc0565b610e759190611dfd565b600d546009546040517fb4f56b2600000000000000000000000000000000000000000000000000000000815273ffffffffffffffffffffffffffffffffffffffff918216600482015260248101849052929350169063b4f56b2690604401600060405180830381600087803b158015610eed57600080fd5b505af1158015610f01573d6000803e3d6000fd5b505050506000600854600754610f179190611e4f565b600854600654610f279190611dc0565b610f319190611dfd565b600d54600a546040517fb4f56b2600000000000000000000000000000000000000000000000000000000815273ffffffffffffffffffffffffffffffffffffffff918216600482015260248101849052929350169063b4f56b2690604401600060405180830381600087803b158015610fa957600080fd5b505af1158015610fbd573d6000803e3d6000fd5b50506000600655505060408051828152602081018490527fd7efc4cdd0ec299514928105db63bae6f4b6734397925b15fe9df3db233ceb519101610677565b600354431161100757565b60006004546003544361101a9190611e38565b6110249190611dc0565b9050600b54600554826110379190611dc0565b6110419190611dfd565b60025461104e9190611e4f565b6002555043600355565b611062338261097f565b50565b61108f7fee33494882c15ef16fd46d90287d1d71c5808d5681b5d0ee0567fbc8f9b0100b33610e31565b61111d57604080517f08c379a00000000000000000000000000000000000000000000000000000000081526020600482015260248101919091527f5354414b494e473a3a736574526577617264506572426c6f636b3a2043616c6c60448201527f6572206973206e6f74206120726577617264506572426c6f636b536574746572606482015260840161062a565b611125610ffc565b60045460408051918252602082018390527f79a5349732f93288abbb68e251c3dfc325bf3ee6fde7786d919155d39733e0f5910160405180910390a1600455565b6000818152602081905260408120610e2b90611a0c565b6111a77f0db189261133fd7647d3308512b693b47bed44004cac80fb59aa64b63a231e2c33610e31565b61120d576040517f08c379a000000000000000000000000000000000000000000000000000000000815260206004820181905260248201527f5354414b494e473a3a2043616c6c6572206973206e6f74206120747275737479604482015260640161062a565b600c546040517f70a0823100000000000000000000000000000000000000000000000000000000815230600482015260009173ffffffffffffffffffffffffffffffffffffffff16906370a0823190602401602060405180830381865afa15801561127c573d6000803e3d6000fd5b505050506040513d601f19601f820116820180604052508101906112a09190611e89565b6001600b55600c546040517fa9059cbb00000000000000000000000000000000000000000000000000000000815273ffffffffffffffffffffffffffffffffffffffff85811660048301526024820184905292935091169063a9059cbb906044016020604051808303816000875af1158015611320573d6000803e3d6000fd5b505050506040513d601f19601f820116820180604052508101906113449190611e67565b506040805182815273ffffffffffffffffffffffffffffffffffffffff841660208201527f5a13955452e0668a1ad79cebe6a7578b8561b92374f0749286d41c9805b75b429101610677565b6113ba7f0db189261133fd7647d3308512b693b47bed44004cac80fb59aa64b63a231e2c33610e31565b611420576040517f08c379a000000000000000000000000000000000000000000000000000000000815260206004820181905260248201527f5354414b494e473a3a2043616c6c6572206973206e6f74206120747275737479604482015260640161062a565b6009805473ffffffffffffffffffffffffffffffffffffffff8481167fffffffffffffffffffffffff00000000000000000000000000000000000000009283168117909355600a80549185169190921681179091556040805192835260208301919091527ff5ce80a04fffb5058766b1d6b907c8b27d37be009f9bd418117cf9fa16dfc9b99101610677565b6000828152602081905260409020600201546114c89033610e31565b610bce576040517f08c379a000000000000000000000000000000000000000000000000000000000815260206004820152603060248201527f416363657373436f6e74726f6c3a2073656e646572206d75737420626520616e60448201527f2061646d696e20746f207265766f6b6500000000000000000000000000000000606482015260840161062a565b61157e7f0db189261133fd7647d3308512b693b47bed44004cac80fb59aa64b63a231e2c33610e31565b6115e4576040517f08c379a000000000000000000000000000000000000000000000000000000000815260206004820181905260248201527f5354414b494e473a3a2043616c6c6572206973206e6f74206120747275737479604482015260640161062a565b60405173ffffffffffffffffffffffffffffffffffffffff83169082156108fc029083906000818181858888f19350505050158015611627573d6000803e3d6000fd5b505050565b3360009081526001602052604090208054600b5461164a9190611e38565b600b55600c5481546040517fa9059cbb000000000000000000000000000000000000000000000000000000008152336004820152602481019190915273ffffffffffffffffffffffffffffffffffffffff9091169063a9059cbb906044016020604051808303816000875af11580156116c7573d6000803e3d6000fd5b505050506040513d601f19601f820116820180604052508101906116eb9190611e67565b5080546040805133815260208101929092527f5fafa99d0643513820be26656b45130b01e1c03062e1266bf36f88cbd3bd9695910160405180910390a16000808255600190910155565b73ffffffffffffffffffffffffffffffffffffffff811660009081526001602052604081206002546003544311156117af5760006004546003544361177a9190611e38565b6117849190611dc0565b9050600b54600554826117979190611dc0565b6117a19190611dfd565b6117ab9083611e4f565b9150505b600182015460055483546117c4908490611dc0565b6117ce9190611dfd565b6117d89190611e38565b949350505050565b6000610e28837fffffffffffffffffffffffffffffffffffffffff000000000000000000000000606085901b16611a16565b600d546040517fb4f56b2600000000000000000000000000000000000000000000000000000000815273ffffffffffffffffffffffffffffffffffffffff8481166004830152602482018490529091169063b4f56b2690604401600060405180830381600087803b15801561188657600080fd5b505af115801561189a573d6000803e3d6000fd5b50506040805173ffffffffffffffffffffffffffffffffffffffff86168152602081018590527f106f923f993c2149d49b4255ff723acafa1f2d94393f561d3eda32ae348f72419350019050610677565b600082815260208190526040902061190390826117e0565b1561097b57604051339073ffffffffffffffffffffffffffffffffffffffff83169084907f2f8788117e7eff1d82e926ec794901d17c78024a50270940304540a733656f0d90600090a45050565b60008281526020819052604090206119699082611a65565b1561097b57604051339073ffffffffffffffffffffffffffffffffffffffff83169084907ff6391f5c32d9c69d2a47ea670b442974b53935d1edc7fd64eb21e047a839171b90600090a45050565b60006119c38383611a97565b60601c9392505050565b606081901b7fffffffffffffffffffffffffffffffffffffffff0000000000000000000000001660009081526001830160205260408120541515610e28565b6000610e2b825490565b6000818152600183016020526040812054611a5d57508154600181810184556000848152602080822090930184905584548482528286019093526040902091909155610e2b565b506000610e2b565b6000610e28837fffffffffffffffffffffffffffffffffffffffff000000000000000000000000606085901b16611b52565b81546000908210611b2a576040517f08c379a000000000000000000000000000000000000000000000000000000000815260206004820152602260248201527f456e756d657261626c655365743a20696e646578206f7574206f6620626f756e60448201527f6473000000000000000000000000000000000000000000000000000000000000606482015260840161062a565b826000018281548110611b3f57611b3f611ea2565b9060005260206000200154905092915050565b60008181526001830160205260408120548015611c3b576000611b76600183611e38565b8554909150600090611b8a90600190611e38565b90506000866000018281548110611ba357611ba3611ea2565b9060005260206000200154905080876000018481548110611bc657611bc6611ea2565b600091825260209091200155611bdd836001611e4f565b60008281526001890160205260409020558654879080611bff57611bff611ed1565b60019003818190600052602060002001600090559055866001016000878152602001908152602001600020600090556001945050505050610e2b565b6000915050610e2b565b600060208284031215611c5757600080fd5b5035919050565b60008060408385031215611c7157600080fd5b50508035926020909101359150565b73ffffffffffffffffffffffffffffffffffffffff8116811461106257600080fd5b60008060408385031215611cb557600080fd5b823591506020830135611cc781611c80565b809150509250929050565b60008060408385031215611ce557600080fd5b8235611cf081611c80565b946020939093013593505050565b600060208284031215611d1057600080fd5b8135611d1b81611c80565b9392505050565b600080600060608486031215611d3757600080fd5b8335611d4281611c80565b92506020840135611d5281611c80565b929592945050506040919091013590565b60008060408385031215611d7657600080fd5b8235611d8181611c80565b91506020830135611cc781611c80565b7f4e487b7100000000000000000000000000000000000000000000000000000000600052601160045260246000fd5b6000817fffffffffffffffffffffffffffffffffffffffffffffffffffffffffffffffff0483118215151615611df857611df8611d91565b500290565b600082611e33577f4e487b7100000000000000000000000000000000000000000000000000000000600052601260045260246000fd5b500490565b600082821015611e4a57611e4a611d91565b500390565b60008219821115611e6257611e62611d91565b500190565b600060208284031215611e7957600080fd5b81518015158114611d1b57600080fd5b600060208284031215611e9b57600080fd5b5051919050565b7f4e487b7100000000000000000000000000000000000000000000000000000000600052603260045260246000fd5b7f4e487b7100000000000000000000000000000000000000000000000000000000600052603160045260246000fdfea264697066735822122012956ab11e279b37a46f390efbcb57ea3b3e7d98b6d602a71af5698b75b7d90d64736f6c634300080a0033",
  "linkReferences": {},
  "deployedLinkReferences": {}
}