{
  "_format": "hh-sol-artifact-1",
  "contractName": "MagnitudesAndPowers",
  "sourceName": "contracts/Math/MagnitudesAndPowers.sol",
  "abi": [
    {
      "inputs": [
        {
          "internalType": "uint256",
          "name": "x",
          "type": "uint256"
        }
      ],
      "name": "magnitude",
      "outputs": [
        {
          "internalType": "uint256",
          "name": "",
          "type": "uint256"
        }
      ],
      "stateMutability": "pure",
      "type": "function"
    }
  ],
  "bytecode": "0x61024461003a600b82828239805160001a60731461002d57634e487b7160e01b600052600060045260246000fd5b30600052607381538281f3fe73000000000000000000000000000000000000000030146080604052600436106100355760003560e01c80632ba96f631461003a575b600080fd5b61004d61004836600461011f565b61005f565b60405190815260200160405180910390f35b600080821161006d57600080fd5b6000604d5b818111156100c257600060016100888385610167565b610093906001610167565b901c90506100a0816100c9565b85106100ae578092506100bc565b6100b960018261017f565b91505b50610072565b5092915050565b60006001600a5b83156100c2576100e1600285610196565b60011415610107576100f381836101d1565b915061010060018561017f565b93506100d0565b61011181806101d1565b9050600184901c93506100d0565b60006020828403121561013157600080fd5b5035919050565b7f4e487b7100000000000000000000000000000000000000000000000000000000600052601160045260246000fd5b6000821982111561017a5761017a610138565b500190565b60008282101561019157610191610138565b500390565b6000826101cc577f4e487b7100000000000000000000000000000000000000000000000000000000600052601260045260246000fd5b500690565b6000817fffffffffffffffffffffffffffffffffffffffffffffffffffffffffffffffff048311821515161561020957610209610138565b50029056fea2646970667358221220f4b57d48c7c6315f8c36d1657c41c85b24284cac6a480aa1624613069b5d214264736f6c634300080a0033",
  "linkReferences": {},
  "deployedLinkReferences": {}
}