{
  "_format": "hh-sol-artifact-1",
  "contractName": "DEUSToken",
  "sourceName": "contracts/DEUS/DEUS.sol",
  "abi": [
    {
      "inputs": [
        {
          "internalType": "string",
          "name": "_name",
          "type": "string"
        },
        {
          "internalType": "string",
          "name": "_symbol",
          "type": "string"
        },
        {
          "internalType": "address",
          "name": "_trusty_address",
          "type": "address"
        }
      ],
      "stateMutability": "nonpayable",
      "type": "constructor"
    },
    {
      "anonymous": false,
      "inputs": [
        {
          "indexed": true,
          "internalType": "address",
          "name": "owner",
          "type": "address"
        },
        {
          "indexed": true,
          "internalType": "address",
          "name": "spender",
          "type": "address"
        },
        {
          "indexed": false,
          "internalType": "uint256",
          "name": "value",
          "type": "uint256"
        }
      ],
      "name": "Approval",
      "type": "event"
    },
    {
      "anonymous": false,
      "inputs": [
        {
          "indexed": false,
          "internalType": "address",
          "name": "addr",
          "type": "address"
        }
      ],
      "name": "DEIAddressSet",
      "type": "event"
    },
    {
      "anonymous": false,
      "inputs": [
        {
          "indexed": true,
          "internalType": "address",
          "name": "from",
          "type": "address"
        },
        {
          "indexed": true,
          "internalType": "address",
          "name": "to",
          "type": "address"
        },
        {
          "indexed": false,
          "internalType": "uint256",
          "name": "amount",
          "type": "uint256"
        }
      ],
      "name": "DEUSBurned",
      "type": "event"
    },
    {
      "anonymous": false,
      "inputs": [
        {
          "indexed": true,
          "internalType": "address",
          "name": "from",
          "type": "address"
        },
        {
          "indexed": true,
          "internalType": "address",
          "name": "to",
          "type": "address"
        },
        {
          "indexed": false,
          "internalType": "uint256",
          "name": "amount",
          "type": "uint256"
        }
      ],
      "name": "DEUSMinted",
      "type": "event"
    },
    {
      "anonymous": false,
      "inputs": [
        {
          "indexed": false,
          "internalType": "string",
          "name": "name",
          "type": "string"
        },
        {
          "indexed": false,
          "internalType": "string",
          "name": "symbol",
          "type": "string"
        }
      ],
      "name": "NameAndSymbolSet",
      "type": "event"
    },
    {
      "anonymous": false,
      "inputs": [
        {
          "indexed": true,
          "internalType": "bytes32",
          "name": "role",
          "type": "bytes32"
        },
        {
          "indexed": true,
          "internalType": "bytes32",
          "name": "previousAdminRole",
          "type": "bytes32"
        },
        {
          "indexed": true,
          "internalType": "bytes32",
          "name": "newAdminRole",
          "type": "bytes32"
        }
      ],
      "name": "RoleAdminChanged",
      "type": "event"
    },
    {
      "anonymous": false,
      "inputs": [
        {
          "indexed": true,
          "internalType": "bytes32",
          "name": "role",
          "type": "bytes32"
        },
        {
          "indexed": true,
          "internalType": "address",
          "name": "account",
          "type": "address"
        },
        {
          "indexed": true,
          "internalType": "address",
          "name": "sender",
          "type": "address"
        }
      ],
      "name": "RoleGranted",
      "type": "event"
    },
    {
      "anonymous": false,
      "inputs": [
        {
          "indexed": true,
          "internalType": "bytes32",
          "name": "role",
          "type": "bytes32"
        },
        {
          "indexed": true,
          "internalType": "address",
          "name": "account",
          "type": "address"
        },
        {
          "indexed": true,
          "internalType": "address",
          "name": "sender",
          "type": "address"
        }
      ],
      "name": "RoleRevoked",
      "type": "event"
    },
    {
      "anonymous": false,
      "inputs": [
        {
          "indexed": true,
          "internalType": "address",
          "name": "from",
          "type": "address"
        },
        {
          "indexed": true,
          "internalType": "address",
          "name": "to",
          "type": "address"
        },
        {
          "indexed": false,
          "internalType": "uint256",
          "name": "value",
          "type": "uint256"
        }
      ],
      "name": "Transfer",
      "type": "event"
    },
    {
      "inputs": [],
      "name": "DEFAULT_ADMIN_ROLE",
      "outputs": [
        {
          "internalType": "bytes32",
          "name": "",
          "type": "bytes32"
        }
      ],
      "stateMutability": "view",
      "type": "function"
    },
    {
      "inputs": [],
      "name": "DOMAIN_SEPARATOR",
      "outputs": [
        {
          "internalType": "bytes32",
          "name": "",
          "type": "bytes32"
        }
      ],
      "stateMutability": "view",
      "type": "function"
    },
    {
      "inputs": [],
      "name": "MINTER_ROLE",
      "outputs": [
        {
          "internalType": "bytes32",
          "name": "",
          "type": "bytes32"
        }
      ],
      "stateMutability": "view",
      "type": "function"
    },
    {
      "inputs": [],
      "name": "TRUSTY_ROLE",
      "outputs": [
        {
          "internalType": "bytes32",
          "name": "",
          "type": "bytes32"
        }
      ],
      "stateMutability": "view",
      "type": "function"
    },
    {
      "inputs": [
        {
          "internalType": "address",
          "name": "owner",
          "type": "address"
        },
        {
          "internalType": "address",
          "name": "spender",
          "type": "address"
        }
      ],
      "name": "allowance",
      "outputs": [
        {
          "internalType": "uint256",
          "name": "",
          "type": "uint256"
        }
      ],
      "stateMutability": "view",
      "type": "function"
    },
    {
      "inputs": [
        {
          "internalType": "address",
          "name": "spender",
          "type": "address"
        },
        {
          "internalType": "uint256",
          "name": "amount",
          "type": "uint256"
        }
      ],
      "name": "approve",
      "outputs": [
        {
          "internalType": "bool",
          "name": "",
          "type": "bool"
        }
      ],
      "stateMutability": "nonpayable",
      "type": "function"
    },
    {
      "inputs": [
        {
          "internalType": "address",
          "name": "account",
          "type": "address"
        }
      ],
      "name": "balanceOf",
      "outputs": [
        {
          "internalType": "uint256",
          "name": "",
          "type": "uint256"
        }
      ],
      "stateMutability": "view",
      "type": "function"
    },
    {
      "inputs": [
        {
          "internalType": "uint256",
          "name": "amount",
          "type": "uint256"
        }
      ],
      "name": "burn",
      "outputs": [],
      "stateMutability": "nonpayable",
      "type": "function"
    },
    {
      "inputs": [
        {
          "internalType": "address",
          "name": "account",
          "type": "address"
        },
        {
          "internalType": "uint256",
          "name": "amount",
          "type": "uint256"
        }
      ],
      "name": "burnFrom",
      "outputs": [],
      "stateMutability": "nonpayable",
      "type": "function"
    },
    {
      "inputs": [],
      "name": "decimals",
      "outputs": [
        {
          "internalType": "uint8",
          "name": "",
          "type": "uint8"
        }
      ],
      "stateMutability": "view",
      "type": "function"
    },
    {
      "inputs": [
        {
          "internalType": "address",
          "name": "spender",
          "type": "address"
        },
        {
          "internalType": "uint256",
          "name": "subtractedValue",
          "type": "uint256"
        }
      ],
      "name": "decreaseAllowance",
      "outputs": [
        {
          "internalType": "bool",
          "name": "",
          "type": "bool"
        }
      ],
      "stateMutability": "nonpayable",
      "type": "function"
    },
    {
      "inputs": [],
      "name": "dei_contract_address",
      "outputs": [
        {
          "internalType": "address",
          "name": "",
          "type": "address"
        }
      ],
      "stateMutability": "view",
      "type": "function"
    },
    {
      "inputs": [],
      "name": "genesis_supply",
      "outputs": [
        {
          "internalType": "uint256",
          "name": "",
          "type": "uint256"
        }
      ],
      "stateMutability": "view",
      "type": "function"
    },
    {
      "inputs": [
        {
          "internalType": "bytes32",
          "name": "role",
          "type": "bytes32"
        }
      ],
      "name": "getRoleAdmin",
      "outputs": [
        {
          "internalType": "bytes32",
          "name": "",
          "type": "bytes32"
        }
      ],
      "stateMutability": "view",
      "type": "function"
    },
    {
      "inputs": [
        {
          "internalType": "bytes32",
          "name": "role",
          "type": "bytes32"
        },
        {
          "internalType": "uint256",
          "name": "index",
          "type": "uint256"
        }
      ],
      "name": "getRoleMember",
      "outputs": [
        {
          "internalType": "address",
          "name": "",
          "type": "address"
        }
      ],
      "stateMutability": "view",
      "type": "function"
    },
    {
      "inputs": [
        {
          "internalType": "bytes32",
          "name": "role",
          "type": "bytes32"
        }
      ],
      "name": "getRoleMemberCount",
      "outputs": [
        {
          "internalType": "uint256",
          "name": "",
          "type": "uint256"
        }
      ],
      "stateMutability": "view",
      "type": "function"
    },
    {
      "inputs": [
        {
          "internalType": "bytes32",
          "name": "role",
          "type": "bytes32"
        },
        {
          "internalType": "address",
          "name": "account",
          "type": "address"
        }
      ],
      "name": "grantRole",
      "outputs": [],
      "stateMutability": "nonpayable",
      "type": "function"
    },
    {
      "inputs": [
        {
          "internalType": "bytes32",
          "name": "role",
          "type": "bytes32"
        },
        {
          "internalType": "address",
          "name": "account",
          "type": "address"
        }
      ],
      "name": "hasRole",
      "outputs": [
        {
          "internalType": "bool",
          "name": "",
          "type": "bool"
        }
      ],
      "stateMutability": "view",
      "type": "function"
    },
    {
      "inputs": [
        {
          "internalType": "address",
          "name": "spender",
          "type": "address"
        },
        {
          "internalType": "uint256",
          "name": "addedValue",
          "type": "uint256"
        }
      ],
      "name": "increaseAllowance",
      "outputs": [
        {
          "internalType": "bool",
          "name": "",
          "type": "bool"
        }
      ],
      "stateMutability": "nonpayable",
      "type": "function"
    },
    {
      "inputs": [
        {
          "internalType": "address",
          "name": "to",
          "type": "address"
        },
        {
          "internalType": "uint256",
          "name": "amount",
          "type": "uint256"
        }
      ],
      "name": "mint",
      "outputs": [],
      "stateMutability": "nonpayable",
      "type": "function"
    },
    {
      "inputs": [],
      "name": "name",
      "outputs": [
        {
          "internalType": "string",
          "name": "",
          "type": "string"
        }
      ],
      "stateMutability": "view",
      "type": "function"
    },
    {
      "inputs": [
        {
          "internalType": "address",
          "name": "owner",
          "type": "address"
        }
      ],
      "name": "nonces",
      "outputs": [
        {
          "internalType": "uint256",
          "name": "",
          "type": "uint256"
        }
      ],
      "stateMutability": "view",
      "type": "function"
    },
    {
      "inputs": [
        {
          "internalType": "address",
          "name": "owner",
          "type": "address"
        },
        {
          "internalType": "address",
          "name": "spender",
          "type": "address"
        },
        {
          "internalType": "uint256",
          "name": "value",
          "type": "uint256"
        },
        {
          "internalType": "uint256",
          "name": "deadline",
          "type": "uint256"
        },
        {
          "internalType": "uint8",
          "name": "v",
          "type": "uint8"
        },
        {
          "internalType": "bytes32",
          "name": "r",
          "type": "bytes32"
        },
        {
          "internalType": "bytes32",
          "name": "s",
          "type": "bytes32"
        }
      ],
      "name": "permit",
      "outputs": [],
      "stateMutability": "nonpayable",
      "type": "function"
    },
    {
      "inputs": [
        {
          "internalType": "address",
          "name": "b_address",
          "type": "address"
        },
        {
          "internalType": "uint256",
          "name": "b_amount",
          "type": "uint256"
        }
      ],
      "name": "pool_burn_from",
      "outputs": [],
      "stateMutability": "nonpayable",
      "type": "function"
    },
    {
      "inputs": [
        {
          "internalType": "address",
          "name": "m_address",
          "type": "address"
        },
        {
          "internalType": "uint256",
          "name": "m_amount",
          "type": "uint256"
        }
      ],
      "name": "pool_mint",
      "outputs": [],
      "stateMutability": "nonpayable",
      "type": "function"
    },
    {
      "inputs": [
        {
          "internalType": "bytes32",
          "name": "role",
          "type": "bytes32"
        },
        {
          "internalType": "address",
          "name": "account",
          "type": "address"
        }
      ],
      "name": "renounceRole",
      "outputs": [],
      "stateMutability": "nonpayable",
      "type": "function"
    },
    {
      "inputs": [
        {
          "internalType": "bytes32",
          "name": "role",
          "type": "bytes32"
        },
        {
          "internalType": "address",
          "name": "account",
          "type": "address"
        }
      ],
      "name": "revokeRole",
      "outputs": [],
      "stateMutability": "nonpayable",
      "type": "function"
    },
    {
      "inputs": [
        {
          "internalType": "address",
          "name": "_dei_contract_address",
          "type": "address"
        }
      ],
      "name": "setDEIAddress",
      "outputs": [],
      "stateMutability": "nonpayable",
      "type": "function"
    },
    {
      "inputs": [
        {
          "internalType": "string",
          "name": "_name",
          "type": "string"
        },
        {
          "internalType": "string",
          "name": "_symbol",
          "type": "string"
        }
      ],
      "name": "setNameAndSymbol",
      "outputs": [],
      "stateMutability": "nonpayable",
      "type": "function"
    },
    {
      "inputs": [],
      "name": "symbol",
      "outputs": [
        {
          "internalType": "string",
          "name": "",
          "type": "string"
        }
      ],
      "stateMutability": "view",
      "type": "function"
    },
    {
      "inputs": [],
      "name": "totalSupply",
      "outputs": [
        {
          "internalType": "uint256",
          "name": "",
          "type": "uint256"
        }
      ],
      "stateMutability": "view",
      "type": "function"
    },
    {
      "inputs": [
        {
          "internalType": "address",
          "name": "recipient",
          "type": "address"
        },
        {
          "internalType": "uint256",
          "name": "amount",
          "type": "uint256"
        }
      ],
      "name": "transfer",
      "outputs": [
        {
          "internalType": "bool",
          "name": "",
          "type": "bool"
        }
      ],
      "stateMutability": "nonpayable",
      "type": "function"
    },
    {
      "inputs": [
        {
          "internalType": "address",
          "name": "sender",
          "type": "address"
        },
        {
          "internalType": "address",
          "name": "recipient",
          "type": "address"
        },
        {
          "internalType": "uint256",
          "name": "amount",
          "type": "uint256"
        }
      ],
      "name": "transferFrom",
      "outputs": [
        {
          "internalType": "bool",
          "name": "",
          "type": "bool"
        }
      ],
      "stateMutability": "nonpayable",
      "type": "function"
    }
  ],
  "bytecode": "0x6101406040527f6e71edae12b1b97f4d1f60370fef10105fa2faae0126114a169c64845d6126c9610120523480156200003757600080fd5b506040516200300f3803806200300f8339810160408190526200005a9162000653565b600680546200006990620006e0565b80601f01602080910402602001604051908101604052809291908181526020018280546200009790620006e0565b8015620000e85780601f10620000bc57610100808354040283529160200191620000e8565b820191906000526020600020905b815481529060010190602001808311620000ca57829003601f168201915b505060408051808201825260018152603160f81b60209182015285519581019590952060c08181527fc89efdaa54c0f20c7adf612882df0950f5a951637e0307cdcb4c672f298b8bc660e08190524660a081815285517f8b73c3c69bb8fe3d512ecc4cf759cc79239f7b179b0ffacaa9a75d522b39400f818c018190528188019690965260608101939093526080808401929092523083820152855180840390910181529190920190935282519290960191909120909452505050610100526001600160a01b038116620002145760405162461bcd60e51b815260206004820152602860248201527f444555533a3a636f6e7374727563746f723a207a65726f20616464726573732060448201526719195d1958dd195960c21b60648201526084015b60405180910390fd5b825162000229906006906020860190620004e0565b5081516200023f906005906020850190620004e0565b506200024d60008262000297565b620002797f0db189261133fd7647d3308512b693b47bed44004cac80fb59aa64b63a231e2c8262000297565b6200028e8168056bc75e2d63100000620002a7565b50505062000744565b620002a38282620003a3565b5050565b6001600160a01b038216620002ff5760405162461bcd60e51b815260206004820152601f60248201527f45524332303a206d696e7420746f20746865207a65726f20616464726573730060448201526064016200020b565b6200031b816002546200040c60201b620012351790919060201c565b6002556001600160a01b038216600090815260208181526040909120546200034e918390620012356200040c821b17901c565b6001600160a01b038316600081815260208181526040808320949094559251848152919290917fddf252ad1be2c89b69c2b068fc378daa952ba7f163c4a11628f55a4df523b3ef910160405180910390a35050565b6000828152600460209081526040909120620003ca918390620012ae62000478821b17901c565b15620002a35760405133906001600160a01b0383169084907f2f8788117e7eff1d82e926ec794901d17c78024a50270940304540a733656f0d90600090a45050565b6000806200041b83856200071d565b9050838110156200046f5760405162461bcd60e51b815260206004820152601b60248201527f536166654d6174683a206164646974696f6e206f766572666c6f77000000000060448201526064016200020b565b90505b92915050565b60006200046f836001600160601b0319606085901b166000818152600183016020526040812054620004d75750815460018181018455600084815260208082209093018490558454848252828601909352604090209190915562000472565b50600062000472565b828054620004ee90620006e0565b90600052602060002090601f0160209004810192826200051257600085556200055d565b82601f106200052d57805160ff19168380011785556200055d565b828001600101855582156200055d579182015b828111156200055d57825182559160200191906001019062000540565b506200056b9291506200056f565b5090565b5b808211156200056b576000815560010162000570565b634e487b7160e01b600052604160045260246000fd5b600082601f830112620005ae57600080fd5b81516001600160401b0380821115620005cb57620005cb62000586565b604051601f8301601f19908116603f01168101908282118183101715620005f657620005f662000586565b816040528381526020925086838588010111156200061357600080fd5b600091505b8382101562000637578582018301518183018401529082019062000618565b83821115620006495760008385830101525b9695505050505050565b6000806000606084860312156200066957600080fd5b83516001600160401b03808211156200068157600080fd5b6200068f878388016200059c565b94506020860151915080821115620006a657600080fd5b50620006b5868287016200059c565b604086015190935090506001600160a01b0381168114620006d557600080fd5b809150509250925092565b600181811c90821680620006f557607f821691505b602082108114156200071757634e487b7160e01b600052602260045260246000fd5b50919050565b600082198211156200073f57634e487b7160e01b600052601160045260246000fd5b500190565b60805160a05160c05160e051610100516101205161287b620007946000396000610e90015260006117ce0152600061181d015260006117f80152600061177c015260006117a5015261287b6000f3fe608060405234801561001057600080fd5b506004361061020b5760003560e01c806379cc67901161012a578063a8a778ae116100bd578063d505accf1161008c578063d547741f11610071578063d547741f146104d6578063dd62ed3e146104e9578063efa007361461052f57600080fd5b8063d505accf1461049c578063d5391393146104af57600080fd5b8063a8a778ae14610450578063a9059cbb14610463578063b4f56b2614610476578063ca15c8731461048957600080fd5b806391d14854116100f957806391d148541461041a57806395d89b411461042d578063a217fddf14610435578063a457c2d71461043d57600080fd5b806379cc67901461039c5780637ecebe00146103af57806383e2d870146103c25780639010d07c1461040757600080fd5b80633644e515116101a257806342966c681161017157806342966c681461033057806351e238e3146103435780635a4462151461035357806370a082311461036657600080fd5b80633644e515146102ef57806336568abe146102f7578063395093511461030a57806340c10f191461031d57600080fd5b8063248a9ca3116101de578063248a9ca3146102765780632f2ff15d14610299578063313ce567146102ae57806334ddb95d146102c857600080fd5b806306fdde0314610210578063095ea7b31461022e57806318160ddd1461025157806323b872dd14610263575b600080fd5b610218610542565b6040516102259190612205565b60405180910390f35b61024161023c3660046122a1565b6105d0565b6040519015158152602001610225565b6002545b604051908152602001610225565b6102416102713660046122cb565b6105e7565b610255610284366004612307565b60009081526004602052604090206002015490565b6102ac6102a7366004612320565b61067b565b005b6102b6601281565b60405160ff9091168152602001610225565b6102557f0db189261133fd7647d3308512b693b47bed44004cac80fb59aa64b63a231e2c81565b610255610736565b6102ac610305366004612320565b610745565b6102416103183660046122a1565b6107f4565b6102ac61032b3660046122a1565b610837565b6102ac61033e366004612307565b6108f7565b61025568056bc75e2d6310000081565b6102ac610361366004612426565b610904565b61025561037436600461248a565b73ffffffffffffffffffffffffffffffffffffffff1660009081526020819052604090205490565b6102ac6103aa3660046122a1565b6109fb565b6102556103bd36600461248a565b610a47565b6007546103e29073ffffffffffffffffffffffffffffffffffffffff1681565b60405173ffffffffffffffffffffffffffffffffffffffff9091168152602001610225565b6103e26104153660046124a5565b610a72565b610241610428366004612320565b610a91565b610218610aa9565b610255600081565b61024161044b3660046122a1565b610ab6565b6102ac61045e3660046122a1565b610b12565b6102416104713660046122a1565b610c8c565b6102ac6104843660046122a1565b610c99565b610255610497366004612307565b610e0b565b6102ac6104aa3660046124c7565b610e22565b6102557f9f2df0fed2c77648de5860a4cc508cd0818c85b8b8a1ab4ceeef8d981c8956a681565b6102ac6104e4366004612320565b610fe1565b6102556104f736600461253a565b73ffffffffffffffffffffffffffffffffffffffff918216600090815260016020908152604080832093909416825291909152205490565b6102ac61053d36600461248a565b611089565b6006805461054f90612564565b80601f016020809104026020016040519081016040528092919081815260200182805461057b90612564565b80156105c85780601f1061059d576101008083540402835291602001916105c8565b820191906000526020600020905b8154815290600101906020018083116105ab57829003601f168201915b505050505081565b60006105dd3384846112e0565b5060015b92915050565b60006105f4848484611494565b610671843361066c856040518060600160405280602881526020016127d56028913973ffffffffffffffffffffffffffffffffffffffff8a16600090815260016020526040812090335b73ffffffffffffffffffffffffffffffffffffffff16815260208101919091526040016000205491906116be565b6112e0565b5060019392505050565b6000828152600460205260409020600201546106979033610a91565b610728576040517f08c379a000000000000000000000000000000000000000000000000000000000815260206004820152602f60248201527f416363657373436f6e74726f6c3a2073656e646572206d75737420626520616e60448201527f2061646d696e20746f206772616e74000000000000000000000000000000000060648201526084015b60405180910390fd5b6107328282611712565b5050565b6000610740611778565b905090565b73ffffffffffffffffffffffffffffffffffffffff811633146107ea576040517f08c379a000000000000000000000000000000000000000000000000000000000815260206004820152602f60248201527f416363657373436f6e74726f6c3a2063616e206f6e6c792072656e6f756e636560448201527f20726f6c657320666f722073656c660000000000000000000000000000000000606482015260840161071f565b610732828261186b565b33600081815260016020908152604080832073ffffffffffffffffffffffffffffffffffffffff8716845290915281205490916105dd91859061066c9086611235565b6108617f9f2df0fed2c77648de5860a4cc508cd0818c85b8b8a1ab4ceeef8d981c8956a633610a91565b6108ed576040517f08c379a000000000000000000000000000000000000000000000000000000000815260206004820152603360248201527f444555533a204f6e6c79206d696e746572732061726520616c6c6f776564207460448201527f6f20646f2074686973206f7065726174696f6e00000000000000000000000000606482015260840161071f565b61073282826118d1565b61090133826119e9565b50565b61092e7f0db189261133fd7647d3308512b693b47bed44004cac80fb59aa64b63a231e2c33610a91565b610994576040517f08c379a000000000000000000000000000000000000000000000000000000000815260206004820152601860248201527f444555533a20596f7520617265206e6f74207472757374790000000000000000604482015260640161071f565b81516109a790600690602085019061216c565b5080516109bb90600590602084019061216c565b507f24a9aef9121ba62598f20f8f80fd406fa1d2d956747e0728068c649f324ddf41600660056040516109ef929190612689565b60405180910390a15050565b6000610a2b826040518060600160405280602481526020016127fd60249139610a2486336104f7565b91906116be565b9050610a388333836112e0565b610a4283836119e9565b505050565b73ffffffffffffffffffffffffffffffffffffffff81166000908152600360205260408120546105e1565b6000828152600460205260408120610a8a9083611b57565b9392505050565b6000828152600460205260408120610a8a9083611b6d565b6005805461054f90612564565b60006105dd338461066c856040518060600160405280602581526020016128216025913933600090815260016020908152604080832073ffffffffffffffffffffffffffffffffffffffff8d16845290915290205491906116be565b6007546040517f15ea919c00000000000000000000000000000000000000000000000000000000815233600482015273ffffffffffffffffffffffffffffffffffffffff909116906315ea919c90602401602060405180830381865afa158015610b80573d6000803e3d6000fd5b505050506040513d601f19601f82011682018060405250810190610ba491906126ae565b610c30576040517f08c379a000000000000000000000000000000000000000000000000000000000815260206004820152603560248201527f444555533a204f6e6c792064656920706f6f6c732061726520616c6c6f77656460448201527f20746f20646f2074686973206f7065726174696f6e0000000000000000000000606482015260840161071f565b610c3a8282611bac565b604051818152309073ffffffffffffffffffffffffffffffffffffffff8416907ffea1faea8b86058686e38c71a510e9ba19bc719a67a74e590aa5f68dfdfc21be906020015b60405180910390a35050565b60006105dd338484611494565b6007546040517f15ea919c00000000000000000000000000000000000000000000000000000000815233600482015273ffffffffffffffffffffffffffffffffffffffff909116906315ea919c90602401602060405180830381865afa158015610d07573d6000803e3d6000fd5b505050506040513d601f19601f82011682018060405250810190610d2b91906126ae565b610db7576040517f08c379a000000000000000000000000000000000000000000000000000000000815260206004820152603560248201527f444555533a204f6e6c792064656920706f6f6c732061726520616c6c6f77656460448201527f20746f20646f2074686973206f7065726174696f6e0000000000000000000000606482015260840161071f565b610dc182826118d1565b60405181815273ffffffffffffffffffffffffffffffffffffffff83169030907fdcdaf2f9efb1a9727c667bcd34ba547e3ce5ec7f3af304aa8829a5e590211d7e90602001610c80565b60008181526004602052604081206105e190611c04565b83421115610e8c576040517f08c379a000000000000000000000000000000000000000000000000000000000815260206004820152601d60248201527f45524332305065726d69743a206578706972656420646561646c696e65000000604482015260640161071f565b60007f0000000000000000000000000000000000000000000000000000000000000000888888610ebb8c611c0e565b60408051602081019690965273ffffffffffffffffffffffffffffffffffffffff94851690860152929091166060840152608083015260a082015260c0810186905260e0016040516020818303038152906040528051906020012090506000610f2382611c43565b90506000610f3382878787611cac565b90508973ffffffffffffffffffffffffffffffffffffffff168173ffffffffffffffffffffffffffffffffffffffff1614610fca576040517f08c379a000000000000000000000000000000000000000000000000000000000815260206004820152601e60248201527f45524332305065726d69743a20696e76616c6964207369676e61747572650000604482015260640161071f565b610fd58a8a8a6112e0565b50505050505050505050565b600082815260046020526040902060020154610ffd9033610a91565b6107ea576040517f08c379a000000000000000000000000000000000000000000000000000000000815260206004820152603060248201527f416363657373436f6e74726f6c3a2073656e646572206d75737420626520616e60448201527f2061646d696e20746f207265766f6b6500000000000000000000000000000000606482015260840161071f565b6110b37f0db189261133fd7647d3308512b693b47bed44004cac80fb59aa64b63a231e2c33610a91565b611119576040517f08c379a000000000000000000000000000000000000000000000000000000000815260206004820152601860248201527f444555533a20596f7520617265206e6f74207472757374790000000000000000604482015260640161071f565b73ffffffffffffffffffffffffffffffffffffffff81166111bc576040517f08c379a000000000000000000000000000000000000000000000000000000000815260206004820152602a60248201527f444555533a3a736574444549416464726573733a205a65726f2061646472657360448201527f7320646574656374656400000000000000000000000000000000000000000000606482015260840161071f565b600780547fffffffffffffffffffffffff00000000000000000000000000000000000000001673ffffffffffffffffffffffffffffffffffffffff83169081179091556040519081527f0692ea78a01b96b5abe8a744eae1de9f7f001f685fd013f0c552220d563d4ba79060200160405180910390a150565b60008061124283856126ff565b905083811015610a8a576040517f08c379a000000000000000000000000000000000000000000000000000000000815260206004820152601b60248201527f536166654d6174683a206164646974696f6e206f766572666c6f770000000000604482015260640161071f565b6000610a8a837fffffffffffffffffffffffffffffffffffffffff000000000000000000000000606085901b16611efb565b73ffffffffffffffffffffffffffffffffffffffff8316611382576040517f08c379a0000000000000000000000000000000000000000000000000000000008152602060048201526024808201527f45524332303a20617070726f76652066726f6d20746865207a65726f2061646460448201527f7265737300000000000000000000000000000000000000000000000000000000606482015260840161071f565b73ffffffffffffffffffffffffffffffffffffffff8216611425576040517f08c379a000000000000000000000000000000000000000000000000000000000815260206004820152602260248201527f45524332303a20617070726f766520746f20746865207a65726f20616464726560448201527f7373000000000000000000000000000000000000000000000000000000000000606482015260840161071f565b73ffffffffffffffffffffffffffffffffffffffff83811660008181526001602090815260408083209487168084529482529182902085905590518481527f8c5be1e5ebec7d5bd14f71427d1e84f3dd0314c0f7b2291e5b200ac8c7c3b92591015b60405180910390a3505050565b73ffffffffffffffffffffffffffffffffffffffff8316611537576040517f08c379a000000000000000000000000000000000000000000000000000000000815260206004820152602560248201527f45524332303a207472616e736665722066726f6d20746865207a65726f20616460448201527f6472657373000000000000000000000000000000000000000000000000000000606482015260840161071f565b73ffffffffffffffffffffffffffffffffffffffff82166115da576040517f08c379a000000000000000000000000000000000000000000000000000000000815260206004820152602360248201527f45524332303a207472616e7366657220746f20746865207a65726f206164647260448201527f6573730000000000000000000000000000000000000000000000000000000000606482015260840161071f565b611624816040518060600160405280602681526020016127af6026913973ffffffffffffffffffffffffffffffffffffffff861660009081526020819052604090205491906116be565b73ffffffffffffffffffffffffffffffffffffffff80851660009081526020819052604080822093909355908416815220546116609082611235565b73ffffffffffffffffffffffffffffffffffffffff8381166000818152602081815260409182902094909455518481529092918616917fddf252ad1be2c89b69c2b068fc378daa952ba7f163c4a11628f55a4df523b3ef9101611487565b600081848411156116fc576040517f08c379a000000000000000000000000000000000000000000000000000000000815260040161071f9190612205565b5060006117098486612717565b95945050505050565b600082815260046020526040902061172a90826112ae565b1561073257604051339073ffffffffffffffffffffffffffffffffffffffff83169084907f2f8788117e7eff1d82e926ec794901d17c78024a50270940304540a733656f0d90600090a45050565b60007f00000000000000000000000000000000000000000000000000000000000000004614156117c757507f000000000000000000000000000000000000000000000000000000000000000090565b50604080517f00000000000000000000000000000000000000000000000000000000000000006020808301919091527f0000000000000000000000000000000000000000000000000000000000000000828401527f000000000000000000000000000000000000000000000000000000000000000060608301524660808301523060a0808401919091528351808403909101815260c0909201909252805191012090565b60008281526004602052604090206118839082611f4a565b1561073257604051339073ffffffffffffffffffffffffffffffffffffffff83169084907ff6391f5c32d9c69d2a47ea670b442974b53935d1edc7fd64eb21e047a839171b90600090a45050565b73ffffffffffffffffffffffffffffffffffffffff821661194e576040517f08c379a000000000000000000000000000000000000000000000000000000000815260206004820152601f60248201527f45524332303a206d696e7420746f20746865207a65726f206164647265737300604482015260640161071f565b60025461195b9082611235565b60025573ffffffffffffffffffffffffffffffffffffffff821660009081526020819052604090205461198e9082611235565b73ffffffffffffffffffffffffffffffffffffffff8316600081815260208181526040808320949094559251848152919290917fddf252ad1be2c89b69c2b068fc378daa952ba7f163c4a11628f55a4df523b3ef9101610c80565b73ffffffffffffffffffffffffffffffffffffffff8216611a8c576040517f08c379a000000000000000000000000000000000000000000000000000000000815260206004820152602160248201527f45524332303a206275726e2066726f6d20746865207a65726f2061646472657360448201527f7300000000000000000000000000000000000000000000000000000000000000606482015260840161071f565b611ad68160405180606001604052806022815260200161278d6022913973ffffffffffffffffffffffffffffffffffffffff851660009081526020819052604090205491906116be565b73ffffffffffffffffffffffffffffffffffffffff8316600090815260208190526040902055600254611b099082611f7c565b60025560405181815260009073ffffffffffffffffffffffffffffffffffffffff8416907fddf252ad1be2c89b69c2b068fc378daa952ba7f163c4a11628f55a4df523b3ef90602001610c80565b6000611b638383611fbe565b60601c9392505050565b606081901b7fffffffffffffffffffffffffffffffffffffffff0000000000000000000000001660009081526001830160205260408120541515610a8a565b611bb682826119e9565b610732823361066c846040518060600160405280602481526020016127fd6024913973ffffffffffffffffffffffffffffffffffffffff88166000908152600160205260408120903361063e565b60006105e1825490565b73ffffffffffffffffffffffffffffffffffffffff811660009081526003602052604090208054600181018255905b50919050565b60006105e1611c50611778565b836040517f19010000000000000000000000000000000000000000000000000000000000006020820152602281018390526042810182905260009060620160405160208183030381529060405280519060200120905092915050565b60007f7fffffffffffffffffffffffffffffff5d576e7357a4501ddfe92f46681b20a0821115611d5e576040517f08c379a000000000000000000000000000000000000000000000000000000000815260206004820152602260248201527f45434453413a20696e76616c6964207369676e6174757265202773272076616c60448201527f7565000000000000000000000000000000000000000000000000000000000000606482015260840161071f565b8360ff16601b1480611d7357508360ff16601c145b611dff576040517f08c379a000000000000000000000000000000000000000000000000000000000815260206004820152602260248201527f45434453413a20696e76616c6964207369676e6174757265202776272076616c60448201527f7565000000000000000000000000000000000000000000000000000000000000606482015260840161071f565b6040805160008082526020820180845288905260ff871692820192909252606081018590526080810184905260019060a0016020604051602081039080840390855afa158015611e53573d6000803e3d6000fd5b50506040517fffffffffffffffffffffffffffffffffffffffffffffffffffffffffffffffe0015191505073ffffffffffffffffffffffffffffffffffffffff8116611709576040517f08c379a000000000000000000000000000000000000000000000000000000000815260206004820152601860248201527f45434453413a20696e76616c6964207369676e61747572650000000000000000604482015260640161071f565b6000818152600183016020526040812054611f42575081546001818101845560008481526020808220909301849055845484825282860190935260409020919091556105e1565b5060006105e1565b6000610a8a837fffffffffffffffffffffffffffffffffffffffff000000000000000000000000606085901b16612079565b6000610a8a83836040518060400160405280601e81526020017f536166654d6174683a207375627472616374696f6e206f766572666c6f7700008152506116be565b81546000908210612051576040517f08c379a000000000000000000000000000000000000000000000000000000000815260206004820152602260248201527f456e756d657261626c655365743a20696e646578206f7574206f6620626f756e60448201527f6473000000000000000000000000000000000000000000000000000000000000606482015260840161071f565b8260000182815481106120665761206661272e565b9060005260206000200154905092915050565b6000818152600183016020526040812054801561216257600061209d600183612717565b85549091506000906120b190600190612717565b905060008660000182815481106120ca576120ca61272e565b90600052602060002001549050808760000184815481106120ed576120ed61272e565b6000918252602090912001556121048360016126ff565b600082815260018901602052604090205586548790806121265761212661275d565b600190038181906000526020600020016000905590558660010160008781526020019081526020016000206000905560019450505050506105e1565b60009150506105e1565b82805461217890612564565b90600052602060002090601f01602090048101928261219a57600085556121e0565b82601f106121b357805160ff19168380011785556121e0565b828001600101855582156121e0579182015b828111156121e05782518255916020019190600101906121c5565b506121ec9291506121f0565b5090565b5b808211156121ec57600081556001016121f1565b600060208083528351808285015260005b8181101561223257858101830151858201604001528201612216565b81811115612244576000604083870101525b50601f017fffffffffffffffffffffffffffffffffffffffffffffffffffffffffffffffe016929092016040019392505050565b803573ffffffffffffffffffffffffffffffffffffffff8116811461229c57600080fd5b919050565b600080604083850312156122b457600080fd5b6122bd83612278565b946020939093013593505050565b6000806000606084860312156122e057600080fd5b6122e984612278565b92506122f760208501612278565b9150604084013590509250925092565b60006020828403121561231957600080fd5b5035919050565b6000806040838503121561233357600080fd5b8235915061234360208401612278565b90509250929050565b7f4e487b7100000000000000000000000000000000000000000000000000000000600052604160045260246000fd5b600082601f83011261238c57600080fd5b813567ffffffffffffffff808211156123a7576123a761234c565b604051601f83017fffffffffffffffffffffffffffffffffffffffffffffffffffffffffffffffe0908116603f011681019082821181831017156123ed576123ed61234c565b8160405283815286602085880101111561240657600080fd5b836020870160208301376000602085830101528094505050505092915050565b6000806040838503121561243957600080fd5b823567ffffffffffffffff8082111561245157600080fd5b61245d8683870161237b565b9350602085013591508082111561247357600080fd5b506124808582860161237b565b9150509250929050565b60006020828403121561249c57600080fd5b610a8a82612278565b600080604083850312156124b857600080fd5b50508035926020909101359150565b600080600080600080600060e0888a0312156124e257600080fd5b6124eb88612278565b96506124f960208901612278565b95506040880135945060608801359350608088013560ff8116811461251d57600080fd5b9699959850939692959460a0840135945060c09093013592915050565b6000806040838503121561254d57600080fd5b61255683612278565b915061234360208401612278565b600181811c9082168061257857607f821691505b60208210811415611c3d577f4e487b7100000000000000000000000000000000000000000000000000000000600052602260045260246000fd5b8054600090600181811c90808316806125cc57607f831692505b6020808410821415612607577f4e487b7100000000000000000000000000000000000000000000000000000000600052602260045260246000fd5b8388526020880182801561262257600181146126515761267c565b7fffffffffffffffffffffffffffffffffffffffffffffffffffffffffffffff0087168252828201975061267c565b60008981526020902060005b878110156126765781548482015290860190840161265d565b83019850505b5050505050505092915050565b60408152600061269c60408301856125b2565b828103602084015261170981856125b2565b6000602082840312156126c057600080fd5b81518015158114610a8a57600080fd5b7f4e487b7100000000000000000000000000000000000000000000000000000000600052601160045260246000fd5b60008219821115612712576127126126d0565b500190565b600082821015612729576127296126d0565b500390565b7f4e487b7100000000000000000000000000000000000000000000000000000000600052603260045260246000fd5b7f4e487b7100000000000000000000000000000000000000000000000000000000600052603160045260246000fdfe45524332303a206275726e20616d6f756e7420657863656564732062616c616e636545524332303a207472616e7366657220616d6f756e7420657863656564732062616c616e636545524332303a207472616e7366657220616d6f756e74206578636565647320616c6c6f77616e636545524332303a206275726e20616d6f756e74206578636565647320616c6c6f77616e636545524332303a2064656372656173656420616c6c6f77616e63652062656c6f77207a65726fa26469706673582212201bee284b4d8e4bb789461cb33680ff61e63852e0240a14da24cf01309182f12a64736f6c634300080a0033",
  "linkReferences": {},
  "deployedLinkReferences": {}
}