{
  "_format": "hh-sol-artifact-1",
  "contractName": "ReserveTracker",
  "sourceName": "contracts/Oracle/ReserveTracker.sol",
  "abi": [
    {
      "inputs": [
        {
          "internalType": "address",
          "name": "_dei_contract_address",
          "type": "address"
        },
        {
          "internalType": "address",
          "name": "_deus_contract_address",
          "type": "address"
        }
      ],
      "stateMutability": "nonpayable",
      "type": "constructor"
    },
    {
      "anonymous": false,
      "inputs": [
        {
          "indexed": true,
          "internalType": "bytes32",
          "name": "role",
          "type": "bytes32"
        },
        {
          "indexed": true,
          "internalType": "bytes32",
          "name": "previousAdminRole",
          "type": "bytes32"
        },
        {
          "indexed": true,
          "internalType": "bytes32",
          "name": "newAdminRole",
          "type": "bytes32"
        }
      ],
      "name": "RoleAdminChanged",
      "type": "event"
    },
    {
      "anonymous": false,
      "inputs": [
        {
          "indexed": true,
          "internalType": "bytes32",
          "name": "role",
          "type": "bytes32"
        },
        {
          "indexed": true,
          "internalType": "address",
          "name": "account",
          "type": "address"
        },
        {
          "indexed": true,
          "internalType": "address",
          "name": "sender",
          "type": "address"
        }
      ],
      "name": "RoleGranted",
      "type": "event"
    },
    {
      "anonymous": false,
      "inputs": [
        {
          "indexed": true,
          "internalType": "bytes32",
          "name": "role",
          "type": "bytes32"
        },
        {
          "indexed": true,
          "internalType": "address",
          "name": "account",
          "type": "address"
        },
        {
          "indexed": true,
          "internalType": "address",
          "name": "sender",
          "type": "address"
        }
      ],
      "name": "RoleRevoked",
      "type": "event"
    },
    {
      "inputs": [],
      "name": "DEFAULT_ADMIN_ROLE",
      "outputs": [
        {
          "internalType": "bytes32",
          "name": "",
          "type": "bytes32"
        }
      ],
      "stateMutability": "view",
      "type": "function"
    },
    {
      "inputs": [],
      "name": "TRUSTY_ROLE",
      "outputs": [
        {
          "internalType": "bytes32",
          "name": "",
          "type": "bytes32"
        }
      ],
      "stateMutability": "view",
      "type": "function"
    },
    {
      "inputs": [
        {
          "internalType": "address",
          "name": "pair_address",
          "type": "address"
        }
      ],
      "name": "addDEUSPair",
      "outputs": [],
      "stateMutability": "nonpayable",
      "type": "function"
    },
    {
      "inputs": [
        {
          "internalType": "address",
          "name": "",
          "type": "address"
        }
      ],
      "name": "deus_pairs",
      "outputs": [
        {
          "internalType": "bool",
          "name": "",
          "type": "bool"
        }
      ],
      "stateMutability": "view",
      "type": "function"
    },
    {
      "inputs": [
        {
          "internalType": "uint256",
          "name": "",
          "type": "uint256"
        }
      ],
      "name": "deus_pairs_array",
      "outputs": [
        {
          "internalType": "address",
          "name": "",
          "type": "address"
        }
      ],
      "stateMutability": "view",
      "type": "function"
    },
    {
      "inputs": [],
      "name": "getDEUSReserves",
      "outputs": [
        {
          "internalType": "uint256",
          "name": "",
          "type": "uint256"
        }
      ],
      "stateMutability": "view",
      "type": "function"
    },
    {
      "inputs": [
        {
          "internalType": "bytes32",
          "name": "role",
          "type": "bytes32"
        }
      ],
      "name": "getRoleAdmin",
      "outputs": [
        {
          "internalType": "bytes32",
          "name": "",
          "type": "bytes32"
        }
      ],
      "stateMutability": "view",
      "type": "function"
    },
    {
      "inputs": [
        {
          "internalType": "bytes32",
          "name": "role",
          "type": "bytes32"
        },
        {
          "internalType": "uint256",
          "name": "index",
          "type": "uint256"
        }
      ],
      "name": "getRoleMember",
      "outputs": [
        {
          "internalType": "address",
          "name": "",
          "type": "address"
        }
      ],
      "stateMutability": "view",
      "type": "function"
    },
    {
      "inputs": [
        {
          "internalType": "bytes32",
          "name": "role",
          "type": "bytes32"
        }
      ],
      "name": "getRoleMemberCount",
      "outputs": [
        {
          "internalType": "uint256",
          "name": "",
          "type": "uint256"
        }
      ],
      "stateMutability": "view",
      "type": "function"
    },
    {
      "inputs": [
        {
          "internalType": "bytes32",
          "name": "role",
          "type": "bytes32"
        },
        {
          "internalType": "address",
          "name": "account",
          "type": "address"
        }
      ],
      "name": "grantRole",
      "outputs": [],
      "stateMutability": "nonpayable",
      "type": "function"
    },
    {
      "inputs": [
        {
          "internalType": "bytes32",
          "name": "role",
          "type": "bytes32"
        },
        {
          "internalType": "address",
          "name": "account",
          "type": "address"
        }
      ],
      "name": "hasRole",
      "outputs": [
        {
          "internalType": "bool",
          "name": "",
          "type": "bool"
        }
      ],
      "stateMutability": "view",
      "type": "function"
    },
    {
      "inputs": [
        {
          "internalType": "address",
          "name": "pair_address",
          "type": "address"
        }
      ],
      "name": "removeDEUSPair",
      "outputs": [],
      "stateMutability": "nonpayable",
      "type": "function"
    },
    {
      "inputs": [
        {
          "internalType": "bytes32",
          "name": "role",
          "type": "bytes32"
        },
        {
          "internalType": "address",
          "name": "account",
          "type": "address"
        }
      ],
      "name": "renounceRole",
      "outputs": [],
      "stateMutability": "nonpayable",
      "type": "function"
    },
    {
      "inputs": [
        {
          "internalType": "bytes32",
          "name": "role",
          "type": "bytes32"
        },
        {
          "internalType": "address",
          "name": "account",
          "type": "address"
        }
      ],
      "name": "revokeRole",
      "outputs": [],
      "stateMutability": "nonpayable",
      "type": "function"
    }
  ],
  "bytecode": "0x6080604052620f42406001553480156200001857600080fd5b50604051620014e1380380620014e18339810160408190526200003b91620001b7565b600280546001600160a01b038085166001600160a01b031992831617909255600380549284169290911691909117905562000078600033620000ac565b620000a47f0db189261133fd7647d3308512b693b47bed44004cac80fb59aa64b63a231e2c33620000ac565b5050620001ef565b620000b88282620000bc565b5050565b600082815260208181526040909120620000e191839062000ce762000123821b17901c565b15620000b85760405133906001600160a01b0383169084907f2f8788117e7eff1d82e926ec794901d17c78024a50270940304540a733656f0d90600090a45050565b60006200013f836001600160601b0319606085901b1662000148565b90505b92915050565b6000818152600183016020526040812054620001915750815460018181018455600084815260208082209093018490558454848252828601909352604090209190915562000142565b50600062000142565b80516001600160a01b0381168114620001b257600080fd5b919050565b60008060408385031215620001cb57600080fd5b620001d6836200019a565b9150620001e6602084016200019a565b90509250929050565b6112e280620001ff6000396000f3fe608060405234801561001057600080fd5b50600436106100e95760003560e01c806336568abe1161008c578063a217fddf11610066578063a217fddf1461021f578063b28e750e14610227578063ca15c8731461023a578063d547741f1461024d57600080fd5b806336568abe146101e65780639010d07c146101f957806391d148541461020c57600080fd5b806328bb931d116100c857806328bb931d146101645780632f2ff15d1461019757806331738fcc146101ac57806334ddb95d146101bf57600080fd5b8062a66f1f146100ee57806303e63f1014610109578063248a9ca314610141575b600080fd5b6100f6610260565b6040519081526020015b60405180910390f35b61011c610117366004611073565b610646565b60405173ffffffffffffffffffffffffffffffffffffffff9091168152602001610100565b6100f661014f366004611073565b60009081526020819052604090206002015490565b6101876101723660046110b1565b60056020526000908152604090205460ff1681565b6040519015158152602001610100565b6101aa6101a53660046110d5565b61067d565b005b6101aa6101ba3660046110b1565b610738565b6100f67f0db189261133fd7647d3308512b693b47bed44004cac80fb59aa64b63a231e2c81565b6101aa6101f43660046110d5565b610901565b61011c610207366004611105565b6109b0565b61018761021a3660046110d5565b6109d1565b6100f6600081565b6101aa6102353660046110b1565b6109e9565b6100f6610248366004611073565b610c28565b6101aa61025b3660046110d5565b610c3f565b600080805b60045481101561064057600073ffffffffffffffffffffffffffffffffffffffff166004828154811061029a5761029a611127565b60009182526020909120015473ffffffffffffffffffffffffffffffffffffffff161461062e576003546004805473ffffffffffffffffffffffffffffffffffffffff90921691839081106102f1576102f1611127565b60009182526020918290200154604080517f0dfe1681000000000000000000000000000000000000000000000000000000008152905173ffffffffffffffffffffffffffffffffffffffff90921692630dfe1681926004808401938290030181865afa158015610365573d6000803e3d6000fd5b505050506040513d601f19601f820116820180604052508101906103899190611156565b73ffffffffffffffffffffffffffffffffffffffff161415610479576000600482815481106103ba576103ba611127565b9060005260206000200160009054906101000a900473ffffffffffffffffffffffffffffffffffffffff1673ffffffffffffffffffffffffffffffffffffffff16630902f1ac6040518163ffffffff1660e01b8152600401606060405180830381865afa15801561042f573d6000803e3d6000fd5b505050506040513d601f19601f820116820180604052508101906104539190611196565b50506dffffffffffffffffffffffffffff1690506104718184611215565b92505061062e565b6003546004805473ffffffffffffffffffffffffffffffffffffffff90921691839081106104a9576104a9611127565b60009182526020918290200154604080517fd21220a7000000000000000000000000000000000000000000000000000000008152905173ffffffffffffffffffffffffffffffffffffffff9092169263d21220a7926004808401938290030181865afa15801561051d573d6000803e3d6000fd5b505050506040513d601f19601f820116820180604052508101906105419190611156565b73ffffffffffffffffffffffffffffffffffffffff16141561062e5760006004828154811061057257610572611127565b9060005260206000200160009054906101000a900473ffffffffffffffffffffffffffffffffffffffff1673ffffffffffffffffffffffffffffffffffffffff16630902f1ac6040518163ffffffff1660e01b8152600401606060405180830381865afa1580156105e7573d6000803e3d6000fd5b505050506040513d601f19601f8201168201806040525081019061060b9190611196565b506dffffffffffffffffffffffffffff16915061062a90508184611215565b9250505b806106388161122d565b915050610265565b50919050565b6004818154811061065657600080fd5b60009182526020909120015473ffffffffffffffffffffffffffffffffffffffff16905081565b60008281526020819052604090206002015461069990336109d1565b61072a576040517f08c379a000000000000000000000000000000000000000000000000000000000815260206004820152602f60248201527f416363657373436f6e74726f6c3a2073656e646572206d75737420626520616e60448201527f2061646d696e20746f206772616e74000000000000000000000000000000000060648201526084015b60405180910390fd5b6107348282610d19565b5050565b6107627f0db189261133fd7647d3308512b693b47bed44004cac80fb59aa64b63a231e2c336109d1565b6107c8576040517f08c379a000000000000000000000000000000000000000000000000000000000815260206004820152601460248201527f43616c6c6572206973206e6f74207472757374790000000000000000000000006044820152606401610721565b73ffffffffffffffffffffffffffffffffffffffff811660009081526005602052604090205460ff1615610858576040517f08c379a000000000000000000000000000000000000000000000000000000000815260206004820152601660248201527f4164647265737320616c726561647920657869737473000000000000000000006044820152606401610721565b73ffffffffffffffffffffffffffffffffffffffff16600081815260056020526040812080547fffffffffffffffffffffffffffffffffffffffffffffffffffffffffffffff001660019081179091556004805491820181559091527f8a35acfbc15ff81a39ae7d344fd709f28e8600b4aa8c65c6b64bfe7fe36bd19b0180547fffffffffffffffffffffffff0000000000000000000000000000000000000000169091179055565b73ffffffffffffffffffffffffffffffffffffffff811633146109a6576040517f08c379a000000000000000000000000000000000000000000000000000000000815260206004820152602f60248201527f416363657373436f6e74726f6c3a2063616e206f6e6c792072656e6f756e636560448201527f20726f6c657320666f722073656c6600000000000000000000000000000000006064820152608401610721565b6107348282610d7f565b60008281526020819052604081206109c89083610de5565b90505b92915050565b60008281526020819052604081206109c89083610dfb565b610a137f0db189261133fd7647d3308512b693b47bed44004cac80fb59aa64b63a231e2c336109d1565b610a79576040517f08c379a000000000000000000000000000000000000000000000000000000000815260206004820152601460248201527f43616c6c6572206973206e6f74207472757374790000000000000000000000006044820152606401610721565b73ffffffffffffffffffffffffffffffffffffffff811660009081526005602052604090205460ff161515600114610b0d576040517f08c379a000000000000000000000000000000000000000000000000000000000815260206004820152601360248201527f41646472657373206e6f6e6578697374616e74000000000000000000000000006044820152606401610721565b73ffffffffffffffffffffffffffffffffffffffff8116600090815260056020526040812080547fffffffffffffffffffffffffffffffffffffffffffffffffffffffffffffff001690555b600454811015610734578173ffffffffffffffffffffffffffffffffffffffff1660048281548110610b8d57610b8d611127565b60009182526020909120015473ffffffffffffffffffffffffffffffffffffffff161415610c1657600060048281548110610bca57610bca611127565b9060005260206000200160006101000a81548173ffffffffffffffffffffffffffffffffffffffff021916908373ffffffffffffffffffffffffffffffffffffffff1602179055505050565b80610c208161122d565b915050610b59565b60008181526020819052604081206109cb90610e3a565b600082815260208190526040902060020154610c5b90336109d1565b6109a6576040517f08c379a000000000000000000000000000000000000000000000000000000000815260206004820152603060248201527f416363657373436f6e74726f6c3a2073656e646572206d75737420626520616e60448201527f2061646d696e20746f207265766f6b65000000000000000000000000000000006064820152608401610721565b60006109c8837fffffffffffffffffffffffffffffffffffffffff000000000000000000000000606085901b16610e44565b6000828152602081905260409020610d319082610ce7565b1561073457604051339073ffffffffffffffffffffffffffffffffffffffff83169084907f2f8788117e7eff1d82e926ec794901d17c78024a50270940304540a733656f0d90600090a45050565b6000828152602081905260409020610d979082610e93565b1561073457604051339073ffffffffffffffffffffffffffffffffffffffff83169084907ff6391f5c32d9c69d2a47ea670b442974b53935d1edc7fd64eb21e047a839171b90600090a45050565b6000610df18383610ec5565b60601c9392505050565b606081901b7fffffffffffffffffffffffffffffffffffffffff00000000000000000000000016600090815260018301602052604081205415156109c8565b60006109cb825490565b6000818152600183016020526040812054610e8b575081546001818101845560008481526020808220909301849055845484825282860190935260409020919091556109cb565b5060006109cb565b60006109c8837fffffffffffffffffffffffffffffffffffffffff000000000000000000000000606085901b16610f80565b81546000908210610f58576040517f08c379a000000000000000000000000000000000000000000000000000000000815260206004820152602260248201527f456e756d657261626c655365743a20696e646578206f7574206f6620626f756e60448201527f64730000000000000000000000000000000000000000000000000000000000006064820152608401610721565b826000018281548110610f6d57610f6d611127565b9060005260206000200154905092915050565b60008181526001830160205260408120548015611069576000610fa4600183611266565b8554909150600090610fb890600190611266565b90506000866000018281548110610fd157610fd1611127565b9060005260206000200154905080876000018481548110610ff457610ff4611127565b60009182526020909120015561100b836001611215565b6000828152600189016020526040902055865487908061102d5761102d61127d565b600190038181906000526020600020016000905590558660010160008781526020019081526020016000206000905560019450505050506109cb565b60009150506109cb565b60006020828403121561108557600080fd5b5035919050565b73ffffffffffffffffffffffffffffffffffffffff811681146110ae57600080fd5b50565b6000602082840312156110c357600080fd5b81356110ce8161108c565b9392505050565b600080604083850312156110e857600080fd5b8235915060208301356110fa8161108c565b809150509250929050565b6000806040838503121561111857600080fd5b50508035926020909101359150565b7f4e487b7100000000000000000000000000000000000000000000000000000000600052603260045260246000fd5b60006020828403121561116857600080fd5b81516110ce8161108c565b80516dffffffffffffffffffffffffffff8116811461119157600080fd5b919050565b6000806000606084860312156111ab57600080fd5b6111b484611173565b92506111c260208501611173565b9150604084015163ffffffff811681146111db57600080fd5b809150509250925092565b7f4e487b7100000000000000000000000000000000000000000000000000000000600052601160045260246000fd5b60008219821115611228576112286111e6565b500190565b60007fffffffffffffffffffffffffffffffffffffffffffffffffffffffffffffffff82141561125f5761125f6111e6565b5060010190565b600082821015611278576112786111e6565b500390565b7f4e487b7100000000000000000000000000000000000000000000000000000000600052603160045260246000fdfea2646970667358221220aadf88649a2994cacf03cdf9ee652efa1f717f92bb550e513a0b41f19678198864736f6c634300080a0033",
  "linkReferences": {},
  "deployedLinkReferences": {}
}