{
  "_format": "hh-sol-artifact-1",
  "contractName": "BundleUtils",
  "sourceName": "contracts/Utils/BundleUtils.sol",
  "abi": [
    {
      "inputs": [],
      "stateMutability": "nonpayable",
      "type": "constructor"
    },
    {
      "inputs": [
        {
          "internalType": "bytes32",
          "name": "_parent_hash",
          "type": "bytes32"
        }
      ],
      "name": "checkParentHash",
      "outputs": [
        {
          "internalType": "bool",
          "name": "",
          "type": "bool"
        }
      ],
      "stateMutability": "view",
      "type": "function"
    },
    {
      "inputs": [
        {
          "internalType": "uint256",
          "name": "_amount_wei",
          "type": "uint256"
        }
      ],
      "name": "payFlashbotsMiner",
      "outputs": [
        {
          "internalType": "bool",
          "name": "",
          "type": "bool"
        }
      ],
      "stateMutability": "payable",
      "type": "function"
    }
  ],
  "bytecode": "0x608060405234801561001057600080fd5b506101bc806100206000396000f3fe6080604052600436106100295760003560e01c80633456913f1461002e578063d66f5fba14610055575b600080fd5b61004161003c36600461012f565b610075565b604051901515815260200160405180910390f35b34801561006157600080fd5b5061004161007036600461012f565b6100ad565b604051600090419083156108fc0290849084818181858888f193505050501580156100a4573d6000803e3d6000fd5b50600192915050565b6000816100bb600143610148565b4014610127576040517f08c379a000000000000000000000000000000000000000000000000000000000815260206004820152600c60248201527f7374616c652062756e646c650000000000000000000000000000000000000000604482015260640160405180910390fd5b506001919050565b60006020828403121561014157600080fd5b5035919050565b600082821015610181577f4e487b7100000000000000000000000000000000000000000000000000000000600052601160045260246000fd5b50039056fea2646970667358221220d20f7e2eb12c5d5007280ed03bdec488281c1349962a7efcc13ed8acfca7a80464736f6c634300080a0033",
  "linkReferences": {},
  "deployedLinkReferences": {}
}