{
  "_format": "hh-sol-artifact-1",
  "contractName": "DEIStablecoin",
  "sourceName": "contracts/DEI/DEI.sol",
  "abi": [
    {
      "inputs": [
        {
          "internalType": "string",
          "name": "_name",
          "type": "string"
        },
        {
          "internalType": "string",
          "name": "_symbol",
          "type": "string"
        },
        {
          "internalType": "address",
          "name": "_trusty_address",
          "type": "address"
        }
      ],
      "stateMutability": "nonpayable",
      "type": "constructor"
    },
    {
      "anonymous": false,
      "inputs": [
        {
          "indexed": true,
          "internalType": "address",
          "name": "owner",
          "type": "address"
        },
        {
          "indexed": true,
          "internalType": "address",
          "name": "spender",
          "type": "address"
        },
        {
          "indexed": false,
          "internalType": "uint256",
          "name": "value",
          "type": "uint256"
        }
      ],
      "name": "Approval",
      "type": "event"
    },
    {
      "anonymous": false,
      "inputs": [
        {
          "indexed": false,
          "internalType": "uint256",
          "name": "global_collateral_ratio",
          "type": "uint256"
        }
      ],
      "name": "CollateralRatioRefreshed",
      "type": "event"
    },
    {
      "anonymous": false,
      "inputs": [
        {
          "indexed": false,
          "internalType": "bool",
          "name": "collateral_ratio_paused",
          "type": "bool"
        }
      ],
      "name": "CollateralRatioToggled",
      "type": "event"
    },
    {
      "anonymous": false,
      "inputs": [
        {
          "indexed": true,
          "internalType": "address",
          "name": "from",
          "type": "address"
        },
        {
          "indexed": true,
          "internalType": "address",
          "name": "to",
          "type": "address"
        },
        {
          "indexed": false,
          "internalType": "uint256",
          "name": "amount",
          "type": "uint256"
        }
      ],
      "name": "DEIBurned",
      "type": "event"
    },
    {
      "anonymous": false,
      "inputs": [
        {
          "indexed": true,
          "internalType": "address",
          "name": "from",
          "type": "address"
        },
        {
          "indexed": true,
          "internalType": "address",
          "name": "to",
          "type": "address"
        },
        {
          "indexed": false,
          "internalType": "uint256",
          "name": "amount",
          "type": "uint256"
        }
      ],
      "name": "DEIMinted",
      "type": "event"
    },
    {
      "anonymous": false,
      "inputs": [
        {
          "indexed": false,
          "internalType": "uint256",
          "name": "new_step",
          "type": "uint256"
        }
      ],
      "name": "DEIStepSet",
      "type": "event"
    },
    {
      "anonymous": false,
      "inputs": [
        {
          "indexed": false,
          "internalType": "address",
          "name": "deus_address",
          "type": "address"
        }
      ],
      "name": "DEUSAddressSet",
      "type": "event"
    },
    {
      "anonymous": false,
      "inputs": [
        {
          "indexed": false,
          "internalType": "bool",
          "name": "activate",
          "type": "bool"
        }
      ],
      "name": "DIPSet",
      "type": "event"
    },
    {
      "anonymous": false,
      "inputs": [
        {
          "indexed": false,
          "internalType": "uint256",
          "name": "GR_top_band",
          "type": "uint256"
        },
        {
          "indexed": false,
          "internalType": "uint256",
          "name": "GR_bottom_band",
          "type": "uint256"
        }
      ],
      "name": "GrowthRatioBandSet",
      "type": "event"
    },
    {
      "anonymous": false,
      "inputs": [
        {
          "indexed": false,
          "internalType": "string",
          "name": "name",
          "type": "string"
        },
        {
          "indexed": false,
          "internalType": "string",
          "name": "symbol",
          "type": "string"
        }
      ],
      "name": "NameAndSymbolSet",
      "type": "event"
    },
    {
      "anonymous": false,
      "inputs": [
        {
          "indexed": false,
          "internalType": "address",
          "name": "oracle",
          "type": "address"
        }
      ],
      "name": "OracleSet",
      "type": "event"
    },
    {
      "anonymous": false,
      "inputs": [
        {
          "indexed": false,
          "internalType": "address",
          "name": "pool_address",
          "type": "address"
        }
      ],
      "name": "PoolAdded",
      "type": "event"
    },
    {
      "anonymous": false,
      "inputs": [
        {
          "indexed": false,
          "internalType": "address",
          "name": "pool_address",
          "type": "address"
        }
      ],
      "name": "PoolRemoved",
      "type": "event"
    },
    {
      "anonymous": false,
      "inputs": [
        {
          "indexed": false,
          "internalType": "uint256",
          "name": "top_band",
          "type": "uint256"
        },
        {
          "indexed": false,
          "internalType": "uint256",
          "name": "bottom_band",
          "type": "uint256"
        }
      ],
      "name": "PriceBandSet",
      "type": "event"
    },
    {
      "anonymous": false,
      "inputs": [
        {
          "indexed": false,
          "internalType": "uint256",
          "name": "new_cooldown",
          "type": "uint256"
        }
      ],
      "name": "RefreshCooldownSet",
      "type": "event"
    },
    {
      "anonymous": false,
      "inputs": [
        {
          "indexed": false,
          "internalType": "address",
          "name": "reserve_tracker_address",
          "type": "address"
        }
      ],
      "name": "ReserveTrackerSet",
      "type": "event"
    },
    {
      "anonymous": false,
      "inputs": [
        {
          "indexed": true,
          "internalType": "bytes32",
          "name": "role",
          "type": "bytes32"
        },
        {
          "indexed": true,
          "internalType": "bytes32",
          "name": "previousAdminRole",
          "type": "bytes32"
        },
        {
          "indexed": true,
          "internalType": "bytes32",
          "name": "newAdminRole",
          "type": "bytes32"
        }
      ],
      "name": "RoleAdminChanged",
      "type": "event"
    },
    {
      "anonymous": false,
      "inputs": [
        {
          "indexed": true,
          "internalType": "bytes32",
          "name": "role",
          "type": "bytes32"
        },
        {
          "indexed": true,
          "internalType": "address",
          "name": "account",
          "type": "address"
        },
        {
          "indexed": true,
          "internalType": "address",
          "name": "sender",
          "type": "address"
        }
      ],
      "name": "RoleGranted",
      "type": "event"
    },
    {
      "anonymous": false,
      "inputs": [
        {
          "indexed": true,
          "internalType": "bytes32",
          "name": "role",
          "type": "bytes32"
        },
        {
          "indexed": true,
          "internalType": "address",
          "name": "account",
          "type": "address"
        },
        {
          "indexed": true,
          "internalType": "address",
          "name": "sender",
          "type": "address"
        }
      ],
      "name": "RoleRevoked",
      "type": "event"
    },
    {
      "anonymous": false,
      "inputs": [
        {
          "indexed": true,
          "internalType": "address",
          "name": "from",
          "type": "address"
        },
        {
          "indexed": true,
          "internalType": "address",
          "name": "to",
          "type": "address"
        },
        {
          "indexed": false,
          "internalType": "uint256",
          "name": "value",
          "type": "uint256"
        }
      ],
      "name": "Transfer",
      "type": "event"
    },
    {
      "anonymous": false,
      "inputs": [
        {
          "indexed": false,
          "internalType": "bool",
          "name": "use_growth_ratio",
          "type": "bool"
        }
      ],
      "name": "UseGrowthRatioSet",
      "type": "event"
    },
    {
      "inputs": [],
      "name": "COLLATERAL_RATIO_PAUSER",
      "outputs": [
        {
          "internalType": "bytes32",
          "name": "",
          "type": "bytes32"
        }
      ],
      "stateMutability": "view",
      "type": "function"
    },
    {
      "inputs": [],
      "name": "DEFAULT_ADMIN_ROLE",
      "outputs": [
        {
          "internalType": "bytes32",
          "name": "",
          "type": "bytes32"
        }
      ],
      "stateMutability": "view",
      "type": "function"
    },
    {
      "inputs": [],
      "name": "DEI_bottom_band",
      "outputs": [
        {
          "internalType": "uint256",
          "name": "",
          "type": "uint256"
        }
      ],
      "stateMutability": "view",
      "type": "function"
    },
    {
      "inputs": [],
      "name": "DEI_top_band",
      "outputs": [
        {
          "internalType": "uint256",
          "name": "",
          "type": "uint256"
        }
      ],
      "stateMutability": "view",
      "type": "function"
    },
    {
      "inputs": [],
      "name": "DIP",
      "outputs": [
        {
          "internalType": "bool",
          "name": "",
          "type": "bool"
        }
      ],
      "stateMutability": "view",
      "type": "function"
    },
    {
      "inputs": [],
      "name": "DOMAIN_SEPARATOR",
      "outputs": [
        {
          "internalType": "bytes32",
          "name": "",
          "type": "bytes32"
        }
      ],
      "stateMutability": "view",
      "type": "function"
    },
    {
      "inputs": [],
      "name": "GR_bottom_band",
      "outputs": [
        {
          "internalType": "uint256",
          "name": "",
          "type": "uint256"
        }
      ],
      "stateMutability": "view",
      "type": "function"
    },
    {
      "inputs": [],
      "name": "GR_top_band",
      "outputs": [
        {
          "internalType": "uint256",
          "name": "",
          "type": "uint256"
        }
      ],
      "stateMutability": "view",
      "type": "function"
    },
    {
      "inputs": [],
      "name": "TRUSTY_ROLE",
      "outputs": [
        {
          "internalType": "bytes32",
          "name": "",
          "type": "bytes32"
        }
      ],
      "stateMutability": "view",
      "type": "function"
    },
    {
      "inputs": [
        {
          "internalType": "bool",
          "name": "_activate",
          "type": "bool"
        }
      ],
      "name": "activateDIP",
      "outputs": [],
      "stateMutability": "nonpayable",
      "type": "function"
    },
    {
      "inputs": [
        {
          "internalType": "address",
          "name": "pool_address",
          "type": "address"
        }
      ],
      "name": "addPool",
      "outputs": [],
      "stateMutability": "nonpayable",
      "type": "function"
    },
    {
      "inputs": [
        {
          "internalType": "address",
          "name": "owner",
          "type": "address"
        },
        {
          "internalType": "address",
          "name": "spender",
          "type": "address"
        }
      ],
      "name": "allowance",
      "outputs": [
        {
          "internalType": "uint256",
          "name": "",
          "type": "uint256"
        }
      ],
      "stateMutability": "view",
      "type": "function"
    },
    {
      "inputs": [
        {
          "internalType": "address",
          "name": "spender",
          "type": "address"
        },
        {
          "internalType": "uint256",
          "name": "amount",
          "type": "uint256"
        }
      ],
      "name": "approve",
      "outputs": [
        {
          "internalType": "bool",
          "name": "",
          "type": "bool"
        }
      ],
      "stateMutability": "nonpayable",
      "type": "function"
    },
    {
      "inputs": [
        {
          "internalType": "address",
          "name": "account",
          "type": "address"
        }
      ],
      "name": "balanceOf",
      "outputs": [
        {
          "internalType": "uint256",
          "name": "",
          "type": "uint256"
        }
      ],
      "stateMutability": "view",
      "type": "function"
    },
    {
      "inputs": [
        {
          "internalType": "uint256",
          "name": "amount",
          "type": "uint256"
        }
      ],
      "name": "burn",
      "outputs": [],
      "stateMutability": "nonpayable",
      "type": "function"
    },
    {
      "inputs": [
        {
          "internalType": "address",
          "name": "account",
          "type": "address"
        },
        {
          "internalType": "uint256",
          "name": "amount",
          "type": "uint256"
        }
      ],
      "name": "burnFrom",
      "outputs": [],
      "stateMutability": "nonpayable",
      "type": "function"
    },
    {
      "inputs": [],
      "name": "collateral_ratio_paused",
      "outputs": [
        {
          "internalType": "bool",
          "name": "",
          "type": "bool"
        }
      ],
      "stateMutability": "view",
      "type": "function"
    },
    {
      "inputs": [],
      "name": "decimals",
      "outputs": [
        {
          "internalType": "uint8",
          "name": "",
          "type": "uint8"
        }
      ],
      "stateMutability": "view",
      "type": "function"
    },
    {
      "inputs": [
        {
          "internalType": "address",
          "name": "spender",
          "type": "address"
        },
        {
          "internalType": "uint256",
          "name": "subtractedValue",
          "type": "uint256"
        }
      ],
      "name": "decreaseAllowance",
      "outputs": [
        {
          "internalType": "bool",
          "name": "",
          "type": "bool"
        }
      ],
      "stateMutability": "nonpayable",
      "type": "function"
    },
    {
      "inputs": [
        {
          "internalType": "uint256[]",
          "name": "collat_usd_price",
          "type": "uint256[]"
        }
      ],
      "name": "dei_info",
      "outputs": [
        {
          "internalType": "uint256",
          "name": "",
          "type": "uint256"
        },
        {
          "internalType": "uint256",
          "name": "",
          "type": "uint256"
        },
        {
          "internalType": "uint256",
          "name": "",
          "type": "uint256"
        }
      ],
      "stateMutability": "view",
      "type": "function"
    },
    {
      "inputs": [
        {
          "internalType": "address",
          "name": "",
          "type": "address"
        }
      ],
      "name": "dei_pools",
      "outputs": [
        {
          "internalType": "bool",
          "name": "",
          "type": "bool"
        }
      ],
      "stateMutability": "view",
      "type": "function"
    },
    {
      "inputs": [
        {
          "internalType": "uint256",
          "name": "",
          "type": "uint256"
        }
      ],
      "name": "dei_pools_array",
      "outputs": [
        {
          "internalType": "address",
          "name": "",
          "type": "address"
        }
      ],
      "stateMutability": "view",
      "type": "function"
    },
    {
      "inputs": [],
      "name": "dei_step",
      "outputs": [
        {
          "internalType": "uint256",
          "name": "",
          "type": "uint256"
        }
      ],
      "stateMutability": "view",
      "type": "function"
    },
    {
      "inputs": [],
      "name": "deus_address",
      "outputs": [
        {
          "internalType": "address",
          "name": "",
          "type": "address"
        }
      ],
      "stateMutability": "view",
      "type": "function"
    },
    {
      "inputs": [],
      "name": "genesis_supply",
      "outputs": [
        {
          "internalType": "uint256",
          "name": "",
          "type": "uint256"
        }
      ],
      "stateMutability": "view",
      "type": "function"
    },
    {
      "inputs": [],
      "name": "getChainID",
      "outputs": [
        {
          "internalType": "uint256",
          "name": "",
          "type": "uint256"
        }
      ],
      "stateMutability": "view",
      "type": "function"
    },
    {
      "inputs": [
        {
          "internalType": "bytes32",
          "name": "role",
          "type": "bytes32"
        }
      ],
      "name": "getRoleAdmin",
      "outputs": [
        {
          "internalType": "bytes32",
          "name": "",
          "type": "bytes32"
        }
      ],
      "stateMutability": "view",
      "type": "function"
    },
    {
      "inputs": [
        {
          "internalType": "bytes32",
          "name": "role",
          "type": "bytes32"
        },
        {
          "internalType": "uint256",
          "name": "index",
          "type": "uint256"
        }
      ],
      "name": "getRoleMember",
      "outputs": [
        {
          "internalType": "address",
          "name": "",
          "type": "address"
        }
      ],
      "stateMutability": "view",
      "type": "function"
    },
    {
      "inputs": [
        {
          "internalType": "bytes32",
          "name": "role",
          "type": "bytes32"
        }
      ],
      "name": "getRoleMemberCount",
      "outputs": [
        {
          "internalType": "uint256",
          "name": "",
          "type": "uint256"
        }
      ],
      "stateMutability": "view",
      "type": "function"
    },
    {
      "inputs": [
        {
          "internalType": "uint256[]",
          "name": "collat_usd_price",
          "type": "uint256[]"
        }
      ],
      "name": "globalCollateralValue",
      "outputs": [
        {
          "internalType": "uint256",
          "name": "",
          "type": "uint256"
        }
      ],
      "stateMutability": "view",
      "type": "function"
    },
    {
      "inputs": [],
      "name": "global_collateral_ratio",
      "outputs": [
        {
          "internalType": "uint256",
          "name": "",
          "type": "uint256"
        }
      ],
      "stateMutability": "view",
      "type": "function"
    },
    {
      "inputs": [
        {
          "internalType": "bytes32",
          "name": "role",
          "type": "bytes32"
        },
        {
          "internalType": "address",
          "name": "account",
          "type": "address"
        }
      ],
      "name": "grantRole",
      "outputs": [],
      "stateMutability": "nonpayable",
      "type": "function"
    },
    {
      "inputs": [],
      "name": "growth_ratio",
      "outputs": [
        {
          "internalType": "uint256",
          "name": "",
          "type": "uint256"
        }
      ],
      "stateMutability": "view",
      "type": "function"
    },
    {
      "inputs": [
        {
          "internalType": "bytes32",
          "name": "role",
          "type": "bytes32"
        },
        {
          "internalType": "address",
          "name": "account",
          "type": "address"
        }
      ],
      "name": "hasRole",
      "outputs": [
        {
          "internalType": "bool",
          "name": "",
          "type": "bool"
        }
      ],
      "stateMutability": "view",
      "type": "function"
    },
    {
      "inputs": [
        {
          "internalType": "address",
          "name": "spender",
          "type": "address"
        },
        {
          "internalType": "uint256",
          "name": "addedValue",
          "type": "uint256"
        }
      ],
      "name": "increaseAllowance",
      "outputs": [
        {
          "internalType": "bool",
          "name": "",
          "type": "bool"
        }
      ],
      "stateMutability": "nonpayable",
      "type": "function"
    },
    {
      "inputs": [],
      "name": "last_call_time",
      "outputs": [
        {
          "internalType": "uint256",
          "name": "",
          "type": "uint256"
        }
      ],
      "stateMutability": "view",
      "type": "function"
    },
    {
      "inputs": [],
      "name": "name",
      "outputs": [
        {
          "internalType": "string",
          "name": "",
          "type": "string"
        }
      ],
      "stateMutability": "view",
      "type": "function"
    },
    {
      "inputs": [
        {
          "internalType": "address",
          "name": "owner",
          "type": "address"
        }
      ],
      "name": "nonces",
      "outputs": [
        {
          "internalType": "uint256",
          "name": "",
          "type": "uint256"
        }
      ],
      "stateMutability": "view",
      "type": "function"
    },
    {
      "inputs": [],
      "name": "oracle",
      "outputs": [
        {
          "internalType": "address",
          "name": "",
          "type": "address"
        }
      ],
      "stateMutability": "view",
      "type": "function"
    },
    {
      "inputs": [
        {
          "internalType": "address",
          "name": "owner",
          "type": "address"
        },
        {
          "internalType": "address",
          "name": "spender",
          "type": "address"
        },
        {
          "internalType": "uint256",
          "name": "value",
          "type": "uint256"
        },
        {
          "internalType": "uint256",
          "name": "deadline",
          "type": "uint256"
        },
        {
          "internalType": "uint8",
          "name": "v",
          "type": "uint8"
        },
        {
          "internalType": "bytes32",
          "name": "r",
          "type": "bytes32"
        },
        {
          "internalType": "bytes32",
          "name": "s",
          "type": "bytes32"
        }
      ],
      "name": "permit",
      "outputs": [],
      "stateMutability": "nonpayable",
      "type": "function"
    },
    {
      "inputs": [
        {
          "internalType": "address",
          "name": "b_address",
          "type": "address"
        },
        {
          "internalType": "uint256",
          "name": "b_amount",
          "type": "uint256"
        }
      ],
      "name": "pool_burn_from",
      "outputs": [],
      "stateMutability": "nonpayable",
      "type": "function"
    },
    {
      "inputs": [
        {
          "internalType": "address",
          "name": "m_address",
          "type": "address"
        },
        {
          "internalType": "uint256",
          "name": "m_amount",
          "type": "uint256"
        }
      ],
      "name": "pool_mint",
      "outputs": [],
      "stateMutability": "nonpayable",
      "type": "function"
    },
    {
      "inputs": [
        {
          "internalType": "uint256",
          "name": "deus_price",
          "type": "uint256"
        },
        {
          "internalType": "uint256",
          "name": "dei_price",
          "type": "uint256"
        },
        {
          "internalType": "uint256",
          "name": "expire_block",
          "type": "uint256"
        },
        {
          "internalType": "bytes[]",
          "name": "sigs",
          "type": "bytes[]"
        }
      ],
      "name": "refreshCollateralRatio",
      "outputs": [],
      "stateMutability": "nonpayable",
      "type": "function"
    },
    {
      "inputs": [],
      "name": "refresh_cooldown",
      "outputs": [
        {
          "internalType": "uint256",
          "name": "",
          "type": "uint256"
        }
      ],
      "stateMutability": "view",
      "type": "function"
    },
    {
      "inputs": [
        {
          "internalType": "address",
          "name": "pool_address",
          "type": "address"
        }
      ],
      "name": "removePool",
      "outputs": [],
      "stateMutability": "nonpayable",
      "type": "function"
    },
    {
      "inputs": [
        {
          "internalType": "bytes32",
          "name": "role",
          "type": "bytes32"
        },
        {
          "internalType": "address",
          "name": "account",
          "type": "address"
        }
      ],
      "name": "renounceRole",
      "outputs": [],
      "stateMutability": "nonpayable",
      "type": "function"
    },
    {
      "inputs": [],
      "name": "reserve_tracker_address",
      "outputs": [
        {
          "internalType": "address",
          "name": "",
          "type": "address"
        }
      ],
      "stateMutability": "view",
      "type": "function"
    },
    {
      "inputs": [
        {
          "internalType": "bytes32",
          "name": "role",
          "type": "bytes32"
        },
        {
          "internalType": "address",
          "name": "account",
          "type": "address"
        }
      ],
      "name": "revokeRole",
      "outputs": [],
      "stateMutability": "nonpayable",
      "type": "function"
    },
    {
      "inputs": [
        {
          "internalType": "uint256",
          "name": "_new_step",
          "type": "uint256"
        }
      ],
      "name": "setDEIStep",
      "outputs": [],
      "stateMutability": "nonpayable",
      "type": "function"
    },
    {
      "inputs": [
        {
          "internalType": "address",
          "name": "_deus_address",
          "type": "address"
        }
      ],
      "name": "setDEUSAddress",
      "outputs": [],
      "stateMutability": "nonpayable",
      "type": "function"
    },
    {
      "inputs": [
        {
          "internalType": "uint256",
          "name": "_GR_top_band",
          "type": "uint256"
        },
        {
          "internalType": "uint256",
          "name": "_GR_bottom_band",
          "type": "uint256"
        }
      ],
      "name": "setGrowthRatioBands",
      "outputs": [],
      "stateMutability": "nonpayable",
      "type": "function"
    },
    {
      "inputs": [
        {
          "internalType": "string",
          "name": "_name",
          "type": "string"
        },
        {
          "internalType": "string",
          "name": "_symbol",
          "type": "string"
        }
      ],
      "name": "setNameAndSymbol",
      "outputs": [],
      "stateMutability": "nonpayable",
      "type": "function"
    },
    {
      "inputs": [
        {
          "internalType": "address",
          "name": "_oracle",
          "type": "address"
        }
      ],
      "name": "setOracle",
      "outputs": [],
      "stateMutability": "nonpayable",
      "type": "function"
    },
    {
      "inputs": [
        {
          "internalType": "uint256",
          "name": "_top_band",
          "type": "uint256"
        },
        {
          "internalType": "uint256",
          "name": "_bottom_band",
          "type": "uint256"
        }
      ],
      "name": "setPriceBands",
      "outputs": [],
      "stateMutability": "nonpayable",
      "type": "function"
    },
    {
      "inputs": [
        {
          "internalType": "uint256",
          "name": "_new_cooldown",
          "type": "uint256"
        }
      ],
      "name": "setRefreshCooldown",
      "outputs": [],
      "stateMutability": "nonpayable",
      "type": "function"
    },
    {
      "inputs": [
        {
          "internalType": "address",
          "name": "_reserve_tracker_address",
          "type": "address"
        }
      ],
      "name": "setReserveTracker",
      "outputs": [],
      "stateMutability": "nonpayable",
      "type": "function"
    },
    {
      "inputs": [
        {
          "internalType": "bool",
          "name": "_use_growth_ratio",
          "type": "bool"
        }
      ],
      "name": "setUseGrowthRatio",
      "outputs": [],
      "stateMutability": "nonpayable",
      "type": "function"
    },
    {
      "inputs": [],
      "name": "symbol",
      "outputs": [
        {
          "internalType": "string",
          "name": "",
          "type": "string"
        }
      ],
      "stateMutability": "view",
      "type": "function"
    },
    {
      "inputs": [],
      "name": "toggleCollateralRatio",
      "outputs": [],
      "stateMutability": "nonpayable",
      "type": "function"
    },
    {
      "inputs": [],
      "name": "totalSupply",
      "outputs": [
        {
          "internalType": "uint256",
          "name": "",
          "type": "uint256"
        }
      ],
      "stateMutability": "view",
      "type": "function"
    },
    {
      "inputs": [
        {
          "internalType": "address",
          "name": "recipient",
          "type": "address"
        },
        {
          "internalType": "uint256",
          "name": "amount",
          "type": "uint256"
        }
      ],
      "name": "transfer",
      "outputs": [
        {
          "internalType": "bool",
          "name": "",
          "type": "bool"
        }
      ],
      "stateMutability": "nonpayable",
      "type": "function"
    },
    {
      "inputs": [
        {
          "internalType": "address",
          "name": "sender",
          "type": "address"
        },
        {
          "internalType": "address",
          "name": "recipient",
          "type": "address"
        },
        {
          "internalType": "uint256",
          "name": "amount",
          "type": "uint256"
        }
      ],
      "name": "transferFrom",
      "outputs": [
        {
          "internalType": "bool",
          "name": "",
          "type": "bool"
        }
      ],
      "stateMutability": "nonpayable",
      "type": "function"
    },
    {
      "inputs": [],
      "name": "use_growth_ratio",
      "outputs": [
        {
          "internalType": "bool",
          "name": "",
          "type": "bool"
        }
      ],
      "stateMutability": "view",
      "type": "function"
    },
    {
      "inputs": [
        {
          "internalType": "bytes32",
          "name": "sighash",
          "type": "bytes32"
        },
        {
          "internalType": "bytes[]",
          "name": "sigs",
          "type": "bytes[]"
        }
      ],
      "name": "verify_price",
      "outputs": [
        {
          "internalType": "bool",
          "name": "",
          "type": "bool"
        }
      ],
      "stateMutability": "view",
      "type": "function"
    }
  ],
  "bytecode": "0x6101406040527f6e71edae12b1b97f4d1f60370fef10105fa2faae0126114a169c64845d6126c961012052600f805460ff191690553480156200004157600080fd5b5060405162004b9038038062004b90833981016040819052620000649162000697565b60068054620000739062000724565b80601f0160208091040260200160405190810160405280929190818152602001828054620000a19062000724565b8015620000f25780601f10620000c657610100808354040283529160200191620000f2565b820191906000526020600020905b815481529060010190602001808311620000d457829003601f168201915b505060408051808201825260018152603160f81b60209182015285519581019590952060c08181527fc89efdaa54c0f20c7adf612882df0950f5a951637e0307cdcb4c672f298b8bc660e08190524660a081815285517f8b73c3c69bb8fe3d512ecc4cf759cc79239f7b179b0ffacaa9a75d522b39400f818c018190528188019690965260608101939093526080808401929092523083820152855180840390910181529190920190935282519290960191909120909452505050610100526001600160a01b0381166200020d5760405162461bcd60e51b815260206004820152601b60248201527f4445493a207a65726f20616464726573732064657465637465642e000000000060448201526064015b60405180910390fd5b82516200022290600690602086019062000524565b5081516200023890600590602085019062000524565b506109c4600d55620c3500600c5561012c600e5562000259600082620002db565b620002857fb25402418ad555013210365a422f9f1206b2dd00719998db06f8a1fbe014641b82620002db565b620002b17f0db189261133fd7647d3308512b693b47bed44004cac80fb59aa64b63a231e2c82620002db565b620002c78169021e19e0c9bab2400000620002eb565b50506103e860118190556012555062000788565b620002e78282620003e7565b5050565b6001600160a01b038216620003435760405162461bcd60e51b815260206004820152601f60248201527f45524332303a206d696e7420746f20746865207a65726f206164647265737300604482015260640162000204565b6200035f816002546200045060201b620029861790919060201c565b6002556001600160a01b03821660009081526020818152604090912054620003929183906200298662000450821b17901c565b6001600160a01b038316600081815260208181526040808320949094559251848152919290917fddf252ad1be2c89b69c2b068fc378daa952ba7f163c4a11628f55a4df523b3ef910160405180910390a35050565b60008281526004602090815260409091206200040e918390620029ff620004bc821b17901c565b15620002e75760405133906001600160a01b0383169084907f2f8788117e7eff1d82e926ec794901d17c78024a50270940304540a733656f0d90600090a45050565b6000806200045f838562000761565b905083811015620004b35760405162461bcd60e51b815260206004820152601b60248201527f536166654d6174683a206164646974696f6e206f766572666c6f770000000000604482015260640162000204565b90505b92915050565b6000620004b3836001600160601b0319606085901b1660008181526001830160205260408120546200051b57508154600181810184556000848152602080822090930184905584548482528286019093526040902091909155620004b6565b506000620004b6565b828054620005329062000724565b90600052602060002090601f016020900481019282620005565760008555620005a1565b82601f106200057157805160ff1916838001178555620005a1565b82800160010185558215620005a1579182015b82811115620005a157825182559160200191906001019062000584565b50620005af929150620005b3565b5090565b5b80821115620005af5760008155600101620005b4565b634e487b7160e01b600052604160045260246000fd5b600082601f830112620005f257600080fd5b81516001600160401b03808211156200060f576200060f620005ca565b604051601f8301601f19908116603f011681019082821181831017156200063a576200063a620005ca565b816040528381526020925086838588010111156200065757600080fd5b600091505b838210156200067b57858201830151818301840152908201906200065c565b838211156200068d5760008385830101525b9695505050505050565b600080600060608486031215620006ad57600080fd5b83516001600160401b0380821115620006c557600080fd5b620006d387838801620005e0565b94506020860151915080821115620006ea57600080fd5b50620006f986828701620005e0565b604086015190935090506001600160a01b03811681146200071957600080fd5b809150509250925092565b600181811c908216806200073957607f821691505b602082108114156200075b57634e487b7160e01b600052602260045260246000fd5b50919050565b600082198211156200078357634e487b7160e01b600052601160045260246000fd5b500190565b60805160a05160c05160e05161010051610120516143b8620007d860003960006123dd01526000612f1f01526000612f6e01526000612f4901526000612ecd01526000612ef601526143b86000f3fe608060405234801561001057600080fd5b50600436106103d05760003560e01c806379cc6790116101ff578063ae7730291161011a578063d01dd162116100ad578063dd62ed3e1161007c578063dd62ed3e146108b4578063e6344628146108fa578063f1fc1fff1461090d578063f72bd4f01461091657600080fd5b8063d01dd16214610868578063d505accf1461087b578063d547741f1461088e578063d914cd4b146108a157600080fd5b8063c03f7be3116100e9578063c03f7be314610836578063c1e2785b1461083f578063c2593c2714610848578063ca15c8731461085557600080fd5b8063ae773029146107da578063aee06a5e14610808578063b4f56b261461081b578063bef40ec81461082e57600080fd5b80639a6f978d11610192578063a6959f0f11610161578063a6959f0f1461078e578063a8a778ae146107a1578063a9059cbb146107b4578063ab3d1bb6146107c757600080fd5b80639a6f978d1461074e578063a085ea7c14610760578063a217fddf14610773578063a457c2d71461077b57600080fd5b806387a140c3116101ce57806387a140c3146107135780639010d07c1461072057806391d148541461073357806395d89b411461074657600080fd5b806379cc6790146106ba5780637adbf973146106cd5780637dc0d1d0146106e05780637ecebe001461070057600080fd5b8063313ce567116102ef5780634d97897b11610282578063597bf73811610251578063597bf7381461064b5780635a4462151461065e5780636793f0ac1461067157806370a082311461068457600080fd5b80634d97897b146105ed57806351e238e31461060d578063545055171461061e578063564b81ef1461064557600080fd5b806336568abe116102be57806336568abe146105a157806339509351146105b45780633b7d0946146105c757806342966c68146105da57600080fd5b8063313ce5671461054f578063349432d91461056957806334ddb95d146105725780633644e5151461059957600080fd5b80631c5df1e511610367578063248a9ca311610336578063248a9ca3146104cb57806327daf4f8146104ee5780632eb9771b146105335780632f2ff15d1461053c57600080fd5b80631c5df1e5146104895780632258750a1461049c57806323b872dd146104a55780632480fcea146104b857600080fd5b806315ea919c116103a357806315ea919c1461043e57806316b0c8461461046157806318160ddd1461047857806319d05d091461048057600080fd5b806306fdde03146103d5578063095ea7b3146103f35780630c0a25aa1461041657806311af9a4b1461042b575b600080fd5b6103dd61091f565b6040516103ea9190613956565b60405180910390f35b6104066104013660046139f2565b6109ad565b60405190151581526020016103ea565b610429610424366004613a2a565b6109c4565b005b610429610439366004613a47565b610aca565b61040661044c366004613a47565b600b6020526000908152604090205460ff1681565b61046a60105481565b6040519081526020016103ea565b60025461046a565b61046a60135481565b610429610497366004613a62565b610bcd565b61046a60165481565b6104066104b3366004613a7b565b610c92565b61046a6104c6366004613b35565b610d26565b61046a6104d9366004613a62565b60009081526004602052604090206002015490565b60085461050e9073ffffffffffffffffffffffffffffffffffffffff1681565b60405173ffffffffffffffffffffffffffffffffffffffff90911681526020016103ea565b61046a600c5481565b61042961054a366004613bdb565b610e66565b610557601281565b60405160ff90911681526020016103ea565b61046a60125481565b61046a7f0db189261133fd7647d3308512b693b47bed44004cac80fb59aa64b63a231e2c81565b61046a610f1c565b6104296105af366004613bdb565b610f2b565b6104066105c23660046139f2565b610fda565b6104296105d5366004613a47565b61101d565b6104296105e8366004613a62565b61136c565b60095461050e9073ffffffffffffffffffffffffffffffffffffffff1681565b61046a69021e19e0c9bab240000081565b61046a7fb25402418ad555013210365a422f9f1206b2dd00719998db06f8a1fbe014641b81565b4661046a565b610429610659366004613a62565b611379565b61042961066c366004613c95565b61143e565b61040661067f366004613d45565b611535565b61046a610692366004613a47565b73ffffffffffffffffffffffffffffffffffffffff1660009081526020819052604090205490565b6104296106c83660046139f2565b611616565b6104296106db366004613a47565b611662565b60075461050e9073ffffffffffffffffffffffffffffffffffffffff1681565b61046a61070e366004613a47565b611765565b600f546104069060ff1681565b61050e61072e366004613d91565b611790565b610406610741366004613bdb565b6117af565b6103dd6117c7565b60155461040690610100900460ff1681565b61042961076e366004613d91565b6117d4565b61046a600081565b6104066107893660046139f2565b6118a4565b61042961079c366004613d91565b611900565b6104296107af3660046139f2565b6119d0565b6104066107c23660046139f2565b611ad0565b6104296107d5366004613db3565b611add565b6107ed6107e8366004613b35565b611f3b565b604080519384526020840192909252908201526060016103ea565b610429610816366004613a47565b611f62565b6104296108293660046139f2565b612108565b610429612200565b61046a600e5481565b61046a60145481565b6015546104069060ff1681565b61046a610863366004613a62565b612321565b61050e610876366004613a62565b612338565b610429610889366004613e14565b61236f565b61042961089c366004613bdb565b61252e565b6104296108af366004613a47565b6125d6565b61046a6108c2366004613e87565b73ffffffffffffffffffffffffffffffffffffffff918216600090815260016020908152604080832093909416825291909152205490565b610429610908366004613a2a565b612897565b61046a600d5481565b61046a60115481565b6006805461092c90613eb1565b80601f016020809104026020016040519081016040528092919081815260200182805461095890613eb1565b80156109a55780601f1061097a576101008083540402835291602001916109a5565b820191906000526020600020905b81548152906001019060200180831161098857829003601f168201915b505050505081565b60006109ba338484612a31565b5060015b92915050565b6109ee7f0db189261133fd7647d3308512b693b47bed44004cac80fb59aa64b63a231e2c336117af565b610a59576040517f08c379a000000000000000000000000000000000000000000000000000000000815260206004820152601a60248201527f4445493a20796f7520617265206e6f7420746865206f776e657200000000000060448201526064015b60405180910390fd5b60158054821515610100027fffffffffffffffffffffffffffffffffffffffffffffffffffffffffffff00ff9091161790556040517fe50bc939dc0e5025414f0f3b58008de090812f288a3670db7e723ef663dcdc5490610abf90831515815260200190565b60405180910390a150565b610af47f0db189261133fd7647d3308512b693b47bed44004cac80fb59aa64b63a231e2c336117af565b610b5a576040517f08c379a000000000000000000000000000000000000000000000000000000000815260206004820152601a60248201527f4445493a20796f7520617265206e6f7420746865206f776e65720000000000006044820152606401610a50565b600980547fffffffffffffffffffffffff00000000000000000000000000000000000000001673ffffffffffffffffffffffffffffffffffffffff83169081179091556040519081527fd7ab6b495fc0223207243f48d9c9e2c8303180b6d1914be5710ecf209ebd2d1c90602001610abf565b610bf77f0db189261133fd7647d3308512b693b47bed44004cac80fb59aa64b63a231e2c336117af565b610c5d576040517f08c379a000000000000000000000000000000000000000000000000000000000815260206004820152601a60248201527f4445493a20796f7520617265206e6f7420746865206f776e65720000000000006044820152606401610a50565b600e8190556040518181527fc7443059c2ed485e2c9efe4e766bef9432a6f0ed6695741ab4afdffab3b9215790602001610abf565b6000610c9f848484612be5565b610d1c8433610d17856040518060600160405280602881526020016143126028913973ffffffffffffffffffffffffffffffffffffffff8a16600090815260016020526040812090335b73ffffffffffffffffffffffffffffffffffffffff1681526020810191909152604001600020549190612e0f565b612a31565b5060019392505050565b600080805b600a54811015610e5f57600073ffffffffffffffffffffffffffffffffffffffff16600a8281548110610d6057610d60613eff565b60009182526020909120015473ffffffffffffffffffffffffffffffffffffffff1614610e4d57600a8181548110610d9a57610d9a613eff565b600091825260209091200154845173ffffffffffffffffffffffffffffffffffffffff9091169063b6258aaa90869084908110610dd957610dd9613eff565b60200260200101516040518263ffffffff1660e01b8152600401610dff91815260200190565b602060405180830381865afa158015610e1c573d6000803e3d6000fd5b505050506040513d601f19601f82011682018060405250810190610e409190613f2e565b610e4a9083613f76565b91505b80610e5781613f8e565b915050610d2b565b5092915050565b600082815260046020526040902060020154610e8290336117af565b610f0e576040517f08c379a000000000000000000000000000000000000000000000000000000000815260206004820152602f60248201527f416363657373436f6e74726f6c3a2073656e646572206d75737420626520616e60448201527f2061646d696e20746f206772616e7400000000000000000000000000000000006064820152608401610a50565b610f188282612e63565b5050565b6000610f26612ec9565b905090565b73ffffffffffffffffffffffffffffffffffffffff81163314610fd0576040517f08c379a000000000000000000000000000000000000000000000000000000000815260206004820152602f60248201527f416363657373436f6e74726f6c3a2063616e206f6e6c792072656e6f756e636560448201527f20726f6c657320666f722073656c6600000000000000000000000000000000006064820152608401610a50565b610f188282612fbc565b33600081815260016020908152604080832073ffffffffffffffffffffffffffffffffffffffff8716845290915281205490916109ba918590610d179086612986565b6110477f0db189261133fd7647d3308512b693b47bed44004cac80fb59aa64b63a231e2c336117af565b6110ad576040517f08c379a000000000000000000000000000000000000000000000000000000000815260206004820152601a60248201527f4445493a20796f7520617265206e6f7420746865206f776e65720000000000006044820152606401610a50565b73ffffffffffffffffffffffffffffffffffffffff8116611150576040517f08c379a000000000000000000000000000000000000000000000000000000000815260206004820152602660248201527f4445493a3a72656d6f7665506f6f6c3a205a65726f206164647265737320646560448201527f74656374656400000000000000000000000000000000000000000000000000006064820152608401610a50565b73ffffffffffffffffffffffffffffffffffffffff81166000908152600b602052604090205460ff161515600114611209576040517f08c379a0000000000000000000000000000000000000000000000000000000008152602060048201526024808201527f4445493a3a72656d6f7665506f6f6c3a2041646472657373206e6f6e6578697360448201527f74616e74000000000000000000000000000000000000000000000000000000006064820152608401610a50565b73ffffffffffffffffffffffffffffffffffffffff81166000908152600b6020526040812080547fffffffffffffffffffffffffffffffffffffffffffffffffffffffffffffff001690555b600a54811015611325578173ffffffffffffffffffffffffffffffffffffffff16600a828154811061128957611289613eff565b60009182526020909120015473ffffffffffffffffffffffffffffffffffffffff161415611313576000600a82815481106112c6576112c6613eff565b9060005260206000200160006101000a81548173ffffffffffffffffffffffffffffffffffffffff021916908373ffffffffffffffffffffffffffffffffffffffff160217905550611325565b8061131d81613f8e565b915050611255565b5060405173ffffffffffffffffffffffffffffffffffffffff821681527f4106dfdaa577573db51c0ca93f766dbedfa0758faa2e7f5bcdb7c142be803c3f90602001610abf565b6113763382613022565b50565b6113a37f0db189261133fd7647d3308512b693b47bed44004cac80fb59aa64b63a231e2c336117af565b611409576040517f08c379a000000000000000000000000000000000000000000000000000000000815260206004820152601a60248201527f4445493a20796f7520617265206e6f7420746865206f776e65720000000000006044820152606401610a50565b600d8190556040518181527f3e2f198539455d04450252bfc103c833ca10d4231da6509e0528bb2383e22b7390602001610abf565b6114687f0db189261133fd7647d3308512b693b47bed44004cac80fb59aa64b63a231e2c336117af565b6114ce576040517f08c379a000000000000000000000000000000000000000000000000000000000815260206004820152601a60248201527f4445493a20796f7520617265206e6f7420746865206f776e65720000000000006044820152606401610a50565b81516114e19060069060208501906138bd565b5080516114f59060059060208401906138bd565b507f24a9aef9121ba62598f20f8f80fd406fa1d2d956747e0728068c649f324ddf416006600560405161152992919061409e565b60405180910390a15050565b60075460009073ffffffffffffffffffffffffffffffffffffffff1663fb0fe3f46115ad866040517f19457468657265756d205369676e6564204d6573736167653a0a3332000000006020820152603c8101829052600090605c01604051602081830303815290604052805190602001209050919050565b85856040518463ffffffff1660e01b81526004016115cd9392919061410c565b602060405180830381865afa1580156115ea573d6000803e3d6000fd5b505050506040513d601f19601f8201168201806040525081019061160e91906141ee565b949350505050565b60006116468260405180606001604052806024815260200161433a6024913961163f86336108c2565b9190612e0f565b9050611653833383612a31565b61165d8383613022565b505050565b61168c7f0db189261133fd7647d3308512b693b47bed44004cac80fb59aa64b63a231e2c336117af565b6116f2576040517f08c379a000000000000000000000000000000000000000000000000000000000815260206004820152601a60248201527f4445493a20796f7520617265206e6f7420746865206f776e65720000000000006044820152606401610a50565b600780547fffffffffffffffffffffffff00000000000000000000000000000000000000001673ffffffffffffffffffffffffffffffffffffffff83169081179091556040519081527f3f32684a32a11dabdbb8c0177de80aa3ae36a004d75210335b49e544e48cd0aa90602001610abf565b73ffffffffffffffffffffffffffffffffffffffff81166000908152600360205260408120546109be565b60008281526004602052604081206117a89083613190565b9392505050565b60008281526004602052604081206117a890836131a6565b6005805461092c90613eb1565b6117fe7f0db189261133fd7647d3308512b693b47bed44004cac80fb59aa64b63a231e2c336117af565b611864576040517f08c379a000000000000000000000000000000000000000000000000000000000815260206004820152601a60248201527f4445493a20796f7520617265206e6f7420746865206f776e65720000000000006044820152606401610a50565b6011829055601281905560408051838152602081018390527f36d9a5eb34de8b03405baea3d54341f11312730be6f93d18c932728c9e2250d49101611529565b60006109ba3384610d178560405180606001604052806025815260200161435e6025913933600090815260016020908152604080832073ffffffffffffffffffffffffffffffffffffffff8d1684529091529020549190612e0f565b61192a7f0db189261133fd7647d3308512b693b47bed44004cac80fb59aa64b63a231e2c336117af565b611990576040517f08c379a000000000000000000000000000000000000000000000000000000000815260206004820152601a60248201527f4445493a20796f7520617265206e6f7420746865206f776e65720000000000006044820152606401610a50565b6013829055601481905560408051838152602081018390527f2896b6d714a04536ba6121e132dc3aff2eaca8a2ba3eff2676d6a8b435f317459101611529565b336000908152600b602052604090205460ff161515600114611a74576040517f08c379a000000000000000000000000000000000000000000000000000000000815260206004820152602a60248201527f4445493a206f6e6c792064656920706f6f6c732063616e2063616c6c2074686960448201527f732066756e6374696f6e000000000000000000000000000000000000000000006064820152608401610a50565b611a7e82826131e5565b604051818152339073ffffffffffffffffffffffffffffffffffffffff8416907f4857273a485c2cfff4b12a1064c50e871b8e0c686cf17f44c16b4f8554ede3b1906020015b60405180910390a35050565b60006109ba338484612be5565b600f5460ff1615611b70576040517f08c379a000000000000000000000000000000000000000000000000000000000815260206004820152602560248201527f4445493a3a436f6c6c61746572616c20526174696f20686173206265656e207060448201527f61757365640000000000000000000000000000000000000000000000000000006064820152608401610a50565b600060165442611b80919061420b565b9050600e54811015611c14576040517f08c379a000000000000000000000000000000000000000000000000000000000815260206004820152602160248201527f4445493a3a496e7465726e616c20636f6f6c646f776e206e6f7420706173736560448201527f64000000000000000000000000000000000000000000000000000000000000006064820152608401610a50565b600954604080517ea66f1f000000000000000000000000000000000000000000000000000000008152905160009273ffffffffffffffffffffffffffffffffffffffff169162a66f1f9160048083019260209291908290030181865afa158015611c82573d6000803e3d6000fd5b505050506040513d601f19601f82011682018060405250810190611ca69190613f2e565b600854604080517fffffffffffffffffffffffffffffffffffffffff000000000000000000000000606093841b8116602080840191909152603483018d90523090941b166054820152606881018a9052608881018990524660a8808301919091528251808303909101815260c89091019091528051910120909150611d2c818686611535565b506000611d398984614222565b90506000611d4660025490565b90506000611d54828461425f565b601554909150610100900460ff1615611e04576013548a1180611d7857506014548a105b611e04576040517f08c379a000000000000000000000000000000000000000000000000000000000815260206004820152603a60248201527f4445493a3a5573652072656672657368436f6c6c61746572616c526174696f2060448201527f7768656e20444549206973206f757473696465206f66207065670000000000006064820152608401610a50565b6013548a1115611e2657600d54600c54611e1e919061420b565b600c55611ed5565b6014548a1015611e4057600d54600c54611e1e9190613f76565b60155460ff1615611ed557620f4240601154620f4240611e609190613f76565b601054611e6d9190614222565b611e77919061425f565b811115611e8e57600d54600c54611e1e919061420b565b620f4240601254620f4240611ea3919061420b565b601054611eb09190614222565b611eba919061425f565b811015611ed557600d54600c54611ed19190613f76565b600c555b601081905542601655600c54620f42401015611ef357620f4240600c555b7fb1200af9b3ac4dec88c9d01e1fb7cc7fa1f0fe55bf4afac1f30cc4fc2b2d1dd2600c54604051611f2691815260200190565b60405180910390a15050505050505050505050565b6000806000611f4960025490565b600c54611f5586610d26565b9250925092509193909250565b611f8c7f0db189261133fd7647d3308512b693b47bed44004cac80fb59aa64b63a231e2c336117af565b611ff2576040517f08c379a000000000000000000000000000000000000000000000000000000000815260206004820152601a60248201527f4445493a20796f7520617265206e6f7420746865206f776e65720000000000006044820152606401610a50565b73ffffffffffffffffffffffffffffffffffffffff8116612095576040517f08c379a000000000000000000000000000000000000000000000000000000000815260206004820152602a60248201527f4445493a3a73657444455553416464726573733a205a65726f2061646472657360448201527f73206465746563746564000000000000000000000000000000000000000000006064820152608401610a50565b600880547fffffffffffffffffffffffff00000000000000000000000000000000000000001673ffffffffffffffffffffffffffffffffffffffff83169081179091556040519081527f40c19b0139e5bc25c64e466d74e6e13ee1095acc65b58faf1932f9583e7d812c90602001610abf565b336000908152600b602052604090205460ff1615156001146121ac576040517f08c379a000000000000000000000000000000000000000000000000000000000815260206004820152602a60248201527f4445493a206f6e6c792064656920706f6f6c732063616e2063616c6c2074686960448201527f732066756e6374696f6e000000000000000000000000000000000000000000006064820152608401610a50565b6121b6828261323d565b60405181815273ffffffffffffffffffffffffffffffffffffffff83169033907f97847a1fcbba98b997fb5b6c48f68c2d69b53a19157db1622218a559b95fe9be90602001611ac4565b61222a7fb25402418ad555013210365a422f9f1206b2dd00719998db06f8a1fbe014641b336117af565b6122b6576040517f08c379a000000000000000000000000000000000000000000000000000000000815260206004820152602c60248201527f4445493a20796f7520617265206e6f742074686520636f6c6c61746572616c2060448201527f726174696f2070617573657200000000000000000000000000000000000000006064820152608401610a50565b600f805460ff808216157fffffffffffffffffffffffffffffffffffffffffffffffffffffffffffffff0090921682179092556040519116151581527f209068f7bed5a02fb7695c3e3b61bb8324d1facb25523c6422bfd2105ec44d929060200160405180910390a1565b60008181526004602052604081206109be90613355565b600a818154811061234857600080fd5b60009182526020909120015473ffffffffffffffffffffffffffffffffffffffff16905081565b834211156123d9576040517f08c379a000000000000000000000000000000000000000000000000000000000815260206004820152601d60248201527f45524332305065726d69743a206578706972656420646561646c696e650000006044820152606401610a50565b60007f00000000000000000000000000000000000000000000000000000000000000008888886124088c61335f565b60408051602081019690965273ffffffffffffffffffffffffffffffffffffffff94851690860152929091166060840152608083015260a082015260c0810186905260e001604051602081830303815290604052805190602001209050600061247082613394565b90506000612480828787876133fd565b90508973ffffffffffffffffffffffffffffffffffffffff168173ffffffffffffffffffffffffffffffffffffffff1614612517576040517f08c379a000000000000000000000000000000000000000000000000000000000815260206004820152601e60248201527f45524332305065726d69743a20696e76616c6964207369676e617475726500006044820152606401610a50565b6125228a8a8a612a31565b50505050505050505050565b60008281526004602052604090206002015461254a90336117af565b610fd0576040517f08c379a000000000000000000000000000000000000000000000000000000000815260206004820152603060248201527f416363657373436f6e74726f6c3a2073656e646572206d75737420626520616e60448201527f2061646d696e20746f207265766f6b65000000000000000000000000000000006064820152608401610a50565b6126007f0db189261133fd7647d3308512b693b47bed44004cac80fb59aa64b63a231e2c336117af565b612666576040517f08c379a000000000000000000000000000000000000000000000000000000000815260206004820152601a60248201527f4445493a20796f7520617265206e6f7420746865206f776e65720000000000006044820152606401610a50565b73ffffffffffffffffffffffffffffffffffffffff8116612709576040517f08c379a000000000000000000000000000000000000000000000000000000000815260206004820152602360248201527f4445493a3a616464506f6f6c3a205a65726f206164647265737320646574656360448201527f74656400000000000000000000000000000000000000000000000000000000006064820152608401610a50565b73ffffffffffffffffffffffffffffffffffffffff81166000908152600b602052604090205460ff16156127be576040517f08c379a0000000000000000000000000000000000000000000000000000000008152602060048201526024808201527f4445493a3a616464506f6f6c3a204164647265737320616c726561647920657860448201527f69737473000000000000000000000000000000000000000000000000000000006064820152608401610a50565b73ffffffffffffffffffffffffffffffffffffffff81166000818152600b6020908152604080832080547fffffffffffffffffffffffffffffffffffffffffffffffffffffffffffffff00166001908117909155600a805491820181559093527fc65a7bb8d6351c1cf70c95a316cc6a92839c986682d98bc35f958f4883f9d2a890920180547fffffffffffffffffffffffff0000000000000000000000000000000000000000168417905590519182527f73cca62ab1b520c9715bf4e6c71e3e518c754e7148f65102f43289a7df0efea69101610abf565b6128c17f0db189261133fd7647d3308512b693b47bed44004cac80fb59aa64b63a231e2c336117af565b612927576040517f08c379a000000000000000000000000000000000000000000000000000000000815260206004820152601a60248201527f4445493a20796f7520617265206e6f7420746865206f776e65720000000000006044820152606401610a50565b601580547fffffffffffffffffffffffffffffffffffffffffffffffffffffffffffffff00168215159081179091556040519081527fa272b58e328af1078a931ae3f79e96ad602c5fbbf0e953a5651b5e7e107846d290602001610abf565b6000806129938385613f76565b9050838110156117a8576040517f08c379a000000000000000000000000000000000000000000000000000000000815260206004820152601b60248201527f536166654d6174683a206164646974696f6e206f766572666c6f7700000000006044820152606401610a50565b60006117a8837fffffffffffffffffffffffffffffffffffffffff000000000000000000000000606085901b1661364c565b73ffffffffffffffffffffffffffffffffffffffff8316612ad3576040517f08c379a0000000000000000000000000000000000000000000000000000000008152602060048201526024808201527f45524332303a20617070726f76652066726f6d20746865207a65726f2061646460448201527f72657373000000000000000000000000000000000000000000000000000000006064820152608401610a50565b73ffffffffffffffffffffffffffffffffffffffff8216612b76576040517f08c379a000000000000000000000000000000000000000000000000000000000815260206004820152602260248201527f45524332303a20617070726f766520746f20746865207a65726f20616464726560448201527f73730000000000000000000000000000000000000000000000000000000000006064820152608401610a50565b73ffffffffffffffffffffffffffffffffffffffff83811660008181526001602090815260408083209487168084529482529182902085905590518481527f8c5be1e5ebec7d5bd14f71427d1e84f3dd0314c0f7b2291e5b200ac8c7c3b92591015b60405180910390a3505050565b73ffffffffffffffffffffffffffffffffffffffff8316612c88576040517f08c379a000000000000000000000000000000000000000000000000000000000815260206004820152602560248201527f45524332303a207472616e736665722066726f6d20746865207a65726f20616460448201527f64726573730000000000000000000000000000000000000000000000000000006064820152608401610a50565b73ffffffffffffffffffffffffffffffffffffffff8216612d2b576040517f08c379a000000000000000000000000000000000000000000000000000000000815260206004820152602360248201527f45524332303a207472616e7366657220746f20746865207a65726f206164647260448201527f65737300000000000000000000000000000000000000000000000000000000006064820152608401610a50565b612d75816040518060600160405280602681526020016142ec6026913973ffffffffffffffffffffffffffffffffffffffff86166000908152602081905260409020549190612e0f565b73ffffffffffffffffffffffffffffffffffffffff8085166000908152602081905260408082209390935590841681522054612db19082612986565b73ffffffffffffffffffffffffffffffffffffffff8381166000818152602081815260409182902094909455518481529092918616917fddf252ad1be2c89b69c2b068fc378daa952ba7f163c4a11628f55a4df523b3ef9101612bd8565b60008184841115612e4d576040517f08c379a0000000000000000000000000000000000000000000000000000000008152600401610a509190613956565b506000612e5a848661420b565b95945050505050565b6000828152600460205260409020612e7b90826129ff565b15610f1857604051339073ffffffffffffffffffffffffffffffffffffffff83169084907f2f8788117e7eff1d82e926ec794901d17c78024a50270940304540a733656f0d90600090a45050565b60007f0000000000000000000000000000000000000000000000000000000000000000461415612f1857507f000000000000000000000000000000000000000000000000000000000000000090565b50604080517f00000000000000000000000000000000000000000000000000000000000000006020808301919091527f0000000000000000000000000000000000000000000000000000000000000000828401527f000000000000000000000000000000000000000000000000000000000000000060608301524660808301523060a0808401919091528351808403909101815260c0909201909252805191012090565b6000828152600460205260409020612fd4908261369b565b15610f1857604051339073ffffffffffffffffffffffffffffffffffffffff83169084907ff6391f5c32d9c69d2a47ea670b442974b53935d1edc7fd64eb21e047a839171b90600090a45050565b73ffffffffffffffffffffffffffffffffffffffff82166130c5576040517f08c379a000000000000000000000000000000000000000000000000000000000815260206004820152602160248201527f45524332303a206275726e2066726f6d20746865207a65726f2061646472657360448201527f73000000000000000000000000000000000000000000000000000000000000006064820152608401610a50565b61310f816040518060600160405280602281526020016142ca6022913973ffffffffffffffffffffffffffffffffffffffff85166000908152602081905260409020549190612e0f565b73ffffffffffffffffffffffffffffffffffffffff831660009081526020819052604090205560025461314290826136cd565b60025560405181815260009073ffffffffffffffffffffffffffffffffffffffff8416907fddf252ad1be2c89b69c2b068fc378daa952ba7f163c4a11628f55a4df523b3ef90602001611ac4565b600061319c838361370f565b60601c9392505050565b606081901b7fffffffffffffffffffffffffffffffffffffffff00000000000000000000000016600090815260018301602052604081205415156117a8565b6131ef8282613022565b610f188233610d178460405180606001604052806024815260200161433a6024913973ffffffffffffffffffffffffffffffffffffffff881660009081526001602052604081209033610ce9565b73ffffffffffffffffffffffffffffffffffffffff82166132ba576040517f08c379a000000000000000000000000000000000000000000000000000000000815260206004820152601f60248201527f45524332303a206d696e7420746f20746865207a65726f2061646472657373006044820152606401610a50565b6002546132c79082612986565b60025573ffffffffffffffffffffffffffffffffffffffff82166000908152602081905260409020546132fa9082612986565b73ffffffffffffffffffffffffffffffffffffffff8316600081815260208181526040808320949094559251848152919290917fddf252ad1be2c89b69c2b068fc378daa952ba7f163c4a11628f55a4df523b3ef9101611ac4565b60006109be825490565b73ffffffffffffffffffffffffffffffffffffffff811660009081526003602052604090208054600181018255905b50919050565b60006109be6133a1612ec9565b836040517f19010000000000000000000000000000000000000000000000000000000000006020820152602281018390526042810182905260009060620160405160208183030381529060405280519060200120905092915050565b60007f7fffffffffffffffffffffffffffffff5d576e7357a4501ddfe92f46681b20a08211156134af576040517f08c379a000000000000000000000000000000000000000000000000000000000815260206004820152602260248201527f45434453413a20696e76616c6964207369676e6174757265202773272076616c60448201527f75650000000000000000000000000000000000000000000000000000000000006064820152608401610a50565b8360ff16601b14806134c457508360ff16601c145b613550576040517f08c379a000000000000000000000000000000000000000000000000000000000815260206004820152602260248201527f45434453413a20696e76616c6964207369676e6174757265202776272076616c60448201527f75650000000000000000000000000000000000000000000000000000000000006064820152608401610a50565b6040805160008082526020820180845288905260ff871692820192909252606081018590526080810184905260019060a0016020604051602081039080840390855afa1580156135a4573d6000803e3d6000fd5b50506040517fffffffffffffffffffffffffffffffffffffffffffffffffffffffffffffffe0015191505073ffffffffffffffffffffffffffffffffffffffff8116612e5a576040517f08c379a000000000000000000000000000000000000000000000000000000000815260206004820152601860248201527f45434453413a20696e76616c6964207369676e617475726500000000000000006044820152606401610a50565b6000818152600183016020526040812054613693575081546001818101845560008481526020808220909301849055845484825282860190935260409020919091556109be565b5060006109be565b60006117a8837fffffffffffffffffffffffffffffffffffffffff000000000000000000000000606085901b166137ca565b60006117a883836040518060400160405280601e81526020017f536166654d6174683a207375627472616374696f6e206f766572666c6f770000815250612e0f565b815460009082106137a2576040517f08c379a000000000000000000000000000000000000000000000000000000000815260206004820152602260248201527f456e756d657261626c655365743a20696e646578206f7574206f6620626f756e60448201527f64730000000000000000000000000000000000000000000000000000000000006064820152608401610a50565b8260000182815481106137b7576137b7613eff565b9060005260206000200154905092915050565b600081815260018301602052604081205480156138b35760006137ee60018361420b565b85549091506000906138029060019061420b565b9050600086600001828154811061381b5761381b613eff565b906000526020600020015490508087600001848154811061383e5761383e613eff565b600091825260209091200155613855836001613f76565b600082815260018901602052604090205586548790806138775761387761429a565b600190038181906000526020600020016000905590558660010160008781526020019081526020016000206000905560019450505050506109be565b60009150506109be565b8280546138c990613eb1565b90600052602060002090601f0160209004810192826138eb5760008555613931565b82601f1061390457805160ff1916838001178555613931565b82800160010185558215613931579182015b82811115613931578251825591602001919060010190613916565b5061393d929150613941565b5090565b5b8082111561393d5760008155600101613942565b600060208083528351808285015260005b8181101561398357858101830151858201604001528201613967565b81811115613995576000604083870101525b50601f017fffffffffffffffffffffffffffffffffffffffffffffffffffffffffffffffe016929092016040019392505050565b803573ffffffffffffffffffffffffffffffffffffffff811681146139ed57600080fd5b919050565b60008060408385031215613a0557600080fd5b613a0e836139c9565b946020939093013593505050565b801515811461137657600080fd5b600060208284031215613a3c57600080fd5b81356117a881613a1c565b600060208284031215613a5957600080fd5b6117a8826139c9565b600060208284031215613a7457600080fd5b5035919050565b600080600060608486031215613a9057600080fd5b613a99846139c9565b9250613aa7602085016139c9565b9150604084013590509250925092565b7f4e487b7100000000000000000000000000000000000000000000000000000000600052604160045260246000fd5b604051601f82017fffffffffffffffffffffffffffffffffffffffffffffffffffffffffffffffe016810167ffffffffffffffff81118282101715613b2d57613b2d613ab7565b604052919050565b60006020808385031215613b4857600080fd5b823567ffffffffffffffff80821115613b6057600080fd5b818501915085601f830112613b7457600080fd5b813581811115613b8657613b86613ab7565b8060051b9150613b97848301613ae6565b8181529183018401918481019088841115613bb157600080fd5b938501935b83851015613bcf57843582529385019390850190613bb6565b98975050505050505050565b60008060408385031215613bee57600080fd5b82359150613bfe602084016139c9565b90509250929050565b600082601f830112613c1857600080fd5b813567ffffffffffffffff811115613c3257613c32613ab7565b613c6360207fffffffffffffffffffffffffffffffffffffffffffffffffffffffffffffffe0601f84011601613ae6565b818152846020838601011115613c7857600080fd5b816020850160208301376000918101602001919091529392505050565b60008060408385031215613ca857600080fd5b823567ffffffffffffffff80821115613cc057600080fd5b613ccc86838701613c07565b93506020850135915080821115613ce257600080fd5b50613cef85828601613c07565b9150509250929050565b60008083601f840112613d0b57600080fd5b50813567ffffffffffffffff811115613d2357600080fd5b6020830191508360208260051b8501011115613d3e57600080fd5b9250929050565b600080600060408486031215613d5a57600080fd5b83359250602084013567ffffffffffffffff811115613d7857600080fd5b613d8486828701613cf9565b9497909650939450505050565b60008060408385031215613da457600080fd5b50508035926020909101359150565b600080600080600060808688031215613dcb57600080fd5b853594506020860135935060408601359250606086013567ffffffffffffffff811115613df757600080fd5b613e0388828901613cf9565b969995985093965092949392505050565b600080600080600080600060e0888a031215613e2f57600080fd5b613e38886139c9565b9650613e46602089016139c9565b95506040880135945060608801359350608088013560ff81168114613e6a57600080fd5b9699959850939692959460a0840135945060c09093013592915050565b60008060408385031215613e9a57600080fd5b613ea3836139c9565b9150613bfe602084016139c9565b600181811c90821680613ec557607f821691505b6020821081141561338e577f4e487b7100000000000000000000000000000000000000000000000000000000600052602260045260246000fd5b7f4e487b7100000000000000000000000000000000000000000000000000000000600052603260045260246000fd5b600060208284031215613f4057600080fd5b5051919050565b7f4e487b7100000000000000000000000000000000000000000000000000000000600052601160045260246000fd5b60008219821115613f8957613f89613f47565b500190565b60007fffffffffffffffffffffffffffffffffffffffffffffffffffffffffffffffff821415613fc057613fc0613f47565b5060010190565b8054600090600181811c9080831680613fe157607f831692505b602080841082141561401c577f4e487b7100000000000000000000000000000000000000000000000000000000600052602260045260246000fd5b83885260208801828015614037576001811461406657614091565b7fffffffffffffffffffffffffffffffffffffffffffffffffffffffffffffff00871682528282019750614091565b60008981526020902060005b8781101561408b57815484820152908601908401614072565b83019850505b5050505050505092915050565b6040815260006140b16040830185613fc7565b8281036020840152612e5a8185613fc7565b8183528181602085013750600060208284010152600060207fffffffffffffffffffffffffffffffffffffffffffffffffffffffffffffffe0601f840116840101905092915050565b60006040820185835260206040818501528185835260608501905060608660051b86010192508660005b878110156141e0577fffffffffffffffffffffffffffffffffffffffffffffffffffffffffffffffa087860301835281357fffffffffffffffffffffffffffffffffffffffffffffffffffffffffffffffe18a360301811261419757600080fd5b8901803567ffffffffffffffff8111156141b057600080fd5b8036038b13156141bf57600080fd5b6141cc87828885016140c3565b965050509183019190830190600101614136565b509298975050505050505050565b60006020828403121561420057600080fd5b81516117a881613a1c565b60008282101561421d5761421d613f47565b500390565b6000817fffffffffffffffffffffffffffffffffffffffffffffffffffffffffffffffff048311821515161561425a5761425a613f47565b500290565b600082614295577f4e487b7100000000000000000000000000000000000000000000000000000000600052601260045260246000fd5b500490565b7f4e487b7100000000000000000000000000000000000000000000000000000000600052603160045260246000fdfe45524332303a206275726e20616d6f756e7420657863656564732062616c616e636545524332303a207472616e7366657220616d6f756e7420657863656564732062616c616e636545524332303a207472616e7366657220616d6f756e74206578636565647320616c6c6f77616e636545524332303a206275726e20616d6f756e74206578636565647320616c6c6f77616e636545524332303a2064656372656173656420616c6c6f77616e63652062656c6f77207a65726fa2646970667358221220e461646f2d503bf780a9f3926215ffa592ef73f33f8529487295fcaf87728f9e64736f6c634300080a0033",
  "linkReferences": {},
  "deployedLinkReferences": {}
}